:020000040800F2
:1000000000000220255200088520000887200008F3
:10001000892000088B2000088D20000800000000C7
:10002000000000000000000000000000914D0008EA
:100030008F20000800000000314E0008954E000897
:100040007552000875520008755200087552000874
:100050007552000875520008755200087552000864
:100060007552000875520008755200087552000854
:100070007552000875520008755200087552000844
:100080007552000875520008755200087552000834
:100090007552000875520008755200087552000824
:1000A0007552000875520008755200087552000814
:1000B00091380008A13800087552000875520008F0
:1000C00075520008755200087552000875520008F4
:1000D0007552000875520008F53A0008053B000803
:1000E00075520008755200087552000875520008D4
:1000F00075520008755200087552000875520008C4
:1001000075520008755200087552000875520008B3
:1001100075520008755200087552000875520008A3
:100120007552000875520008755200087552000893
:100130007552000875520008755200087552000883
:100140007552000875520008755200087552000873
:100150007552000875520008755200087552000863
:100160007552000875520008755200087552000853
:100170007552000875520008755200080000000012
:080180007552000875520008D9
:10019000034613F8012B002AFBD1181A01387047C7
:1001A00081F0004102E000BF83F0004330B54FEA28
:1001B00041044FEA430594EA050F08BF90EA020F95
:1001C0001FBF54EA000C55EA020C7FEA645C7FEA28
:1001D000655C00F0E2804FEA5454D4EB5555B8BF4B
:1001E0006D420CDD2C4480EA020281EA030382EABC
:1001F000000083EA010180EA020281EA0303362D4E
:1002000088BF30BD11F0004F4FEA01314FF4801C20
:100210004CEA113102D0404261EB410113F0004F32
:100220004FEA03334CEA133302D0524263EB4303E9
:1002300094EA050F00F0A780A4F10104D5F1200E87
:100240000DDB02FA0EFC22FA05F2801841F10001E2
:1002500003FA0EF2801843FA05F359410EE0A5F1B6
:1002600020050EF1200E012A03FA0EFC28BF4CF0E7
:10027000020C43FA05F3C01851EBE37101F000459D
:1002800007D54FF0000EDCF1000C7EEB00006EEBAA
:100290000101B1F5801F1BD3B1F5001F0CD3490834
:1002A0005FEA30004FEA3C0C04F101044FEA44528B
:1002B00012F5800F80F09A80BCF1004F08BF5FEA12
:1002C000500C50F1000041EB045141EA050130BDF2
:1002D0005FEA4C0C404141EB0101013C28BFB1F504
:1002E000801FE9D291F0000F04BF01460020B1FA4F
:1002F00081F308BF2033A3F10B03B3F120020CDA22
:100300000C3208DD02F1140CC2F10C0201FA0CF0FF
:1003100021FA02F10CE002F11402D8BFC2F1200C64
:1003200001FA02F120FA0CFCDCBF41EA0C0190401A
:10033000E41AA2BF01EB0451294330BD6FEA040463
:100340001F3C1CDA0C340EDC04F11404C4F120024E
:1003500020FA04F001FA02F340EA030021FA04F360
:1003600045EA030130BDC4F10C04C4F1200220FAB7
:1003700002F001FA04F340EA0300294630BD21FAF5
:1003800004F0294630BD94F0000F83F4801306BFBB
:1003900081F480110134013D4EE77FEA645C18BFAF
:1003A0007FEA655C29D094EA050F08BF90EA020F46
:1003B00005D054EA000C04BF1946104630BD91EA3E
:1003C000030F1EBF0021002030BD5FEA545C05D141
:1003D0004000494128BF41F0004130BD14F5800480
:1003E0003CBF01F5801130BD01F0004545F0FE41F4
:1003F00041F470014FF0000030BD7FEA645C1ABF29
:10040000194610467FEA655C1CBF0B46024650EA5F
:10041000013406BF52EA033591EA030F41F400218B
:1004200030BD00BF90F0000F04BF0021704730B511
:100430004FF4806404F132044FF000054FF00001E6
:1004400050E700BF90F0000F04BF0021704730B5A7
:100450004FF4806404F1320410F0004548BF40427C
:100460004FF000013EE700BF42004FEAE2014FEAD1
:1004700031014FEA02701FBF12F07F4393F07F4FAC
:1004800081F06051704732F07F4208BF704793F0AF
:100490007F4F04BF41F40021704730B54FF46074C2
:1004A00001F0004521F000411CE700BF50EA0102C5
:1004B00008BF704730B54FF000050AE050EA01026E
:1004C00008BF704730B511F0004502D5404261EBDE
:1004D00041014FF4806404F132045FEA915C3FF41F
:1004E000D8AE4FF003025FEADC0C18BF03325FEABC
:1004F000DC0C18BF033202EBDC02C2F1200300FA6D
:1005000003FC20FA02F001FA03FE40EA0E0021FA91
:1005100002F11444BDE600BF70B54FF0FF0C4CF47F
:10052000E06C1CEA11541DBF1CEA135594EA0C0F31
:1005300095EA0C0F00F0DEF82C4481EA030621EA6C
:100540004C5123EA4C5350EA013518BF52EA0335A7
:1005500041F4801143F4801338D0A0FB02CE4FF059
:100560000005E1FB02E506F00042E0FB03E54FF089
:100570000006E1FB03569CF0000F18BF4EF0010E81
:10058000A4F1FF04B6F5007F64F5407404D25FEA7D
:100590004E0E6D4146EB060642EAC62141EA555130
:1005A0004FEAC52040EA5E504FEACE2EB4F1FD0C72
:1005B00088BFBCF5E06F1ED8BEF1004F08BF5FEAF0
:1005C000500E50F1000041EB045170BD06F00046A2
:1005D00046EA010140EA020081EA0301B4EB5C044F
:1005E000C2BFD4EB0C0541EA045170BD41F4801147
:1005F0004FF0000E013C00F3AB8014F1360FDEBF6C
:10060000002001F0004170BDC4F10004203C35DA47
:100610000C341BDC04F11404C4F1200500FA05F3CA
:1006200020FA04F001FA05F240EA020001F000426B
:1006300021F0004110EBD37021FA04F642EB0601E1
:100640005EEA430E08BF20EAD37070BDC4F10C040B
:10065000C4F1200500FA04F320FA05F001FA04F2CF
:1006600040EA020001F0004110EBD37041F10001BB
:100670005EEA430E08BF20EAD37070BDC4F12005C6
:1006800000FA05F24EEA020E20FA04F301FA05F22E
:1006900043EA020321FA04F001F0004121FA04F2D6
:1006A00020EA020000EBD3705EEA430E08BF20EAA6
:1006B000D37070BD94F0000F0FD101F000464000E0
:1006C00041EB010111F4801F08BF013CF7D041EA62
:1006D000060195F0000F18BF704703F00046520066
:1006E00043EB030313F4801F08BF013DF7D043EA37
:1006F0000603704794EA0C0F0CEA135518BF95EAED
:100700000C0F0CD050EA410618BF52EA4306D1D173
:1007100081EA030101F000414FF0000070BD50EA92
:10072000410606BF1046194652EA430619D094EA1C
:100730000C0F02D150EA013613D195EA0C0F05D106
:1007400052EA03361CBF104619460AD181EA03015A
:1007500001F0004141F0FE4141F470014FF0000012
:1007600070BD41F0FE4141F4780170BD70B54FF0AD
:10077000FF0C4CF4E06C1CEA11541DBF1CEA13552D
:1007800094EA0C0F95EA0C0F00F0A7F8A4EB05040F
:1007900081EA030E52EA03354FEA013100F0888006
:1007A0004FEA03334FF0805545EA131343EA1263CF
:1007B0004FEA022245EA111545EA10654FEA002684
:1007C0000EF000419D4208BF964244F1FD0404F53D
:1007D000407402D25B084FEA3202B61A65EB030599
:1007E0005B084FEA32024FF480104FF4002CB6EB56
:1007F000020E75EB030E22BFB61A754640EA0C00D6
:100800005B084FEA3202B6EB020E75EB030E22BF15
:10081000B61A754640EA5C005B084FEA3202B6EB56
:10082000020E75EB030E22BFB61A754640EA9C0015
:100830005B084FEA3202B6EB020E75EB030E22BFE5
:10084000B61A754640EADC0055EA060E18D04FEAA3
:10085000051545EA16754FEA06164FEAC30343EA43
:1008600052734FEAC2025FEA1C1CC0D111F4801F10
:100870000BD141EA00014FF000004FF0004CB6E709
:1008800011F4801F04BF01430020B4F1FD0C88BFA8
:10089000BCF5E06F3FF6AFAEB5EB030C04BFB6EBB3
:1008A000020C5FEA500C50F1000041EB045170BDA6
:1008B0000EF0004E4EEA113114EB5C04C2BFD4EBD3
:1008C0000C0541EA045170BD41F480114FF0000E57
:1008D000013C90E645EA060E8DE60CEA135594EAD3
:1008E0000C0F08BF95EA0C0F3FF43BAF94EA0C0FD6
:1008F0000AD150EA01347FF434AF95EA0C0F7FF44B
:1009000025AF104619462CE795EA0C0F06D152EA9E
:1009100003353FF4FDAE1046194622E750EA410682
:1009200018BF52EA43067FF4C5AE50EA41047FF493
:100930000DAF52EA43057FF4EBAE12E74FF0FF3CF8
:1009400006E000BF4FF0010C02E000BF4FF0010CC9
:100950004DF804CD4FEA410C7FEA6C5C4FEA430C42
:1009600018BF7FEA6C5C1BD001B050EA410C0CBF91
:1009700052EA430C91EA030F02BF90EA020F0020F3
:10098000704710F1000F91EA030F58BF994208BF5A
:1009900090422CBFD8176FEAE37040F00100704717
:1009A0004FEA410C7FEA6C5C02D150EA013C07D16E
:1009B0004FEA430C7FEA6C5CD6D152EA033CD3D0B9
:1009C0005DF8040B704700BF8446104662468C46B3
:1009D0001946634600E000BF01B5FFF7B7FF0028E6
:1009E00048BF10F1000F01BD4DF808EDFFF7F4FF0F
:1009F0000CBF012000205DF808FB00BF4DF808ED9A
:100A0000FFF7EAFF34BF012000205DF808FB00BFBC
:100A10004DF808EDFFF7E0FF94BF012000205DF8DE
:100A200008FB00BF4DF808EDFFF7CEFF94BF012093
:100A300000205DF808FB00BF4DF808EDFFF7C4FF8C
:100A400034BF012000205DF808FB00BF4FEA4102DF
:100A500012F5001215D211D56FF47873B3EB625210
:100A600012D94FEAC12343F0004343EA505311F037
:100A7000004F23FA02F018BF404270474FF00000C9
:100A8000704750EA013005D111F0004008BF6FF007
:100A9000004070474FF00000704700BF4A0011D27D
:100AA00012F5001211D20DD56FF47873B3EB6252C8
:100AB0000ED44FEAC12343F0004343EA505323FAD4
:100AC00002F070474FF00000704750EA013002D149
:100AD0004FF0FF3070474FF00000704780F000404B
:100AE00002E000BF81F0004142001FBF5FEA410306
:100AF00092EA030F7FEA226C7FEA236C6AD04FEA06
:100B00001262D2EB1363C1BFD2184140484041404A
:100B1000B8BF5B42192B88BF704710F0004F40F4FC
:100B2000000020F07F4018BF404211F0004F41F418
:100B3000000121F07F4118BF494292EA030F3FD0E4
:100B4000A2F1010241FA03FC10EB0C00C3F12003F7
:100B500001FA03F100F0004302D5494260EB400086
:100B6000B0F5000F13D3B0F1807F06D340084FEAF1
:100B7000310102F10102FE2A51D2B1F1004F40EBE6
:100B8000C25008BF20F0010040EA0300704749004E
:100B900040EB0000013A28BFB0F5000FEDD2B0FAEB
:100BA00080FCACF1080CB2EB0C0200FA0CF0AABF0E
:100BB00000EBC25052421843BCBFD04018437047AC
:100BC00092F0000F81F4000106BF80F400000132B2
:100BD000013BB5E74FEA41037FEA226C18BF7FEA89
:100BE000236C21D092EA030F04D092F0000F08BFCB
:100BF0000846704790EA010F1CBF0020704712F0B2
:100C00007F4F04D1400028BF40F00040704712F1F0
:100C100000723CBF00F50000704700F0004343F055
:100C2000FE4040F4000070477FEA226216BF08468B
:100C30007FEA23630146420206BF5FEA412390EA4E
:100C4000010F40F4800070474FF0000304E000BF44
:100C500010F0004348BF40425FEA000C08BF7047F5
:100C600043F0964301464FF000001CE050EA0102B9
:100C700008BF70474FF000030AE000BF50EA0102CE
:100C800008BF704711F0004302D5404261EB4101BB
:100C90005FEA010C02BF84460146002043F0B643E0
:100CA00008BFA3F18053A3F50003BCFA8CF2083A05
:100CB000A3EBC25310DB01FA02FC634400FA02FC0E
:100CC000C2F12002BCF1004F20FA02F243EB020015
:100CD00008BF20F00100704702F1200201FA02FC77
:100CE000C2F1200250EA4C0021FA02F243EB02006A
:100CF00008BF20EADC70704753B94AB9002908BF21
:100D000000281CBF4FF0FF314FF0FF3000F00CB84F
:100D1000ADF1080C6DE904CE04F01CFBDDF804E035
:100D2000DDE9022304B07047704700BF0348044B5D
:100D3000834202D0034B03B11847704710000020D4
:100D400010000020000000000548064B1B1AD90FB8
:100D500001EBA301491002D0034B03B118477047C0
:100D600010000020100000200000000010B5064C0C
:100D7000237843B9FFF7DAFF044B13B10448AFF30C
:100D800000800123237010BD10000020000000002F
:100D90001056000808B5054B1BB105490548AFF3CF
:100DA0000080BDE80840FFF7CFBF00BF0000000093
:100DB000140000201056000800B59BB01F4BB3F97B
:100DC000003007EE903AF8EEE77A77EEA77A9FEDDB
:100DD0001C7A67EE877A9FED1B6AC7EE866A1A4B0C
:100DE000C3ED006A194BB3F90030194A138007EEBE
:100DF000903AF8EEE77A77EEA77A67EE877A9FED7A
:100E0000157AC7EE870A144BC3ED000A9FED131A3B
:100E1000134B93ED000A02F0E5FB02460B46114925
:100E20000A604B60104901A801F0FAF801A90F48C7
:100E300002F070FE0A2003F01BFCBFE75400002004
:100E4000DB0F494001008C43400000205C00002083
:100E50005800002000C0DA463C0000200BD7233C9D
:100E60003800002030000020285600083C010020F7
:100E700000B583B001F03CF902F038FD02F018FD36
:100E800002F0B2FD02F086FC0021019103230093E1
:100E90000B468222024803F001FA03F033FAFEE720
:100EA000B90D00089A4200D2885470477047014635
:100EB000002008E000EB8000531C0B60137803EB6C
:100EC0004003A3F130000A681378303BDBB2092BF2
:100ED000F0D970472DE9F04F83B005460E46934692
:100EE0001F46DDF830A00D9CDDF838900F9B13F005
:100EF000030F19D1A0460192C84509D202F1010B96
:100F00003B4631462020A84708F101085A46F3E73E
:100F1000DDF804B008E0013C02F101083B4631462F
:100F20001AF80400A8474246002CF4D10F9B13F096
:100F3000020F03D1104603B0BDE8F08FA2EB0B0304
:100F40004B45F7D2541C3B4631462020A847224649
:100F5000F4E72DE9F04385B099460C9D0D9C9DF872
:100F60003880DDF840E0119F129E16F0020F21D16B
:100F70007FB116F0010F0CD0B8F1000F02D116F0BE
:100F80000C0F06D0013F04E04FF0300C05F804C010
:100F90000134744501D21F2CF6D916F0010F09D087
:100FA000BC4207D21F2C05D84FF0300C05F804C006
:100FB0000134F2E716F0100F14D016F4806F04D14C
:100FC0001CB1744522D0BC4220D00F9B102B36D0D0
:100FD0000F9B022B3ED01F2C0ED84FF0300C05F883
:100FE00004C001341F2C07D8B8F1000F3AD04FF0DD
:100FF0002D0C05F804C00134039602970194009566
:101000004B46FFF767FF05B0BDE8F083B4F1010C74
:1010100013D00F9B102B0ED064460F9B102BD7D1F3
:1010200016F0200FD4D01F2CD2D84FF0580C05F852
:1010300004C00134CFE7023CC7E76446C5E716F0B9
:10104000200FEAD11F2CE8D84FF0780C05F804C027
:101050000134C0E71F2CCFD84FF0620C05F804C054
:101060000134B8E716F0040F05D04FF02B0C05F84B
:1010700004C00134C0E716F0080FBDD04FF0200CBB
:1010800005F804C00134B7E7F0B591B0169C189D7F
:101090001B9E0CB926F0100616F4806E16D064B3B1
:1010A0004FF0000E12E00CF1300C5FFA8CFC0EF1E8
:1010B00001070EF1400EEE440EF820CCB4FBF5FC17
:1010C000AC421BD31F2F19D8BE466446B4FBF5FCB7
:1010D00005FB1C4C5FFA8CFCBCF1090FE3D916F040
:1010E000200F08D04127BC445FFA8CFCACF10A0CFD
:1010F0005FFA8CFCDBE76127F5E7274606961A9C2A
:101100000594199C049403959DF85C400294019702
:1011100008AC0094FFF71DFF11B0F0BD2DE9F04FB2
:1011200095B009900A910B929846DDF878B0DDF8F9
:101130007C90229D239F269E5BEA090201D126F026
:10114000100616F480641ED05BEA09022FD000243A
:1011500019E03032D3B204F1010A04F150020DEB70
:10116000020404F8203C2A463B4658464946FFF70D
:10117000C3FDAB4579EB07091BD3BAF11F0F18D894
:101180005446834689462A463B4658464946FFF719
:10119000B3FDD2B2092ADCD916F0200F05D04123C5
:1011A0001344DBB20A3BDBB2D5E76123F8E74FF02B
:1011B000000A0696259B0593249B049303959DF8AE
:1011C00080300293CDF804A00CAB009343460B9AF9
:1011D0000A990998FFF7BDFE15B0BDE8F08F000031
:1011E0002DE9F04F2DED028B93B082460C469346CD
:1011F0001D4657EC106B8DED080B32463B463046D2
:101200003946FFF7F1FB002800F009814FF0FF326B
:10121000B14B30463946FFF70FFC002840F0FF8005
:101220004FF0FF326FF4801330463946FFF7E6FB8C
:10123000002840F0F48000220023DDE908673046F2
:101240003946FFF7DBFB002840F0FC809DED087B72
:101250008DED067B209B13F48063119301D106234F
:101260001E93DDE906010246C1F30A50C1F31303E0
:10127000904643F07F5949F44019A0F2FF30FFF740
:10128000E1F883A3D3E90023FFF746F982A3D3E96A
:101290000023FEF78BFF06460F4600228F4B404689
:1012A0004946FEF781FF7EA3D3E90023FFF734F917
:1012B00002460B4630463946FEF778FFFFF7C6FB7D
:1012C0000646FFF7BFF88046894677A3D3E9002397
:1012D000FFF722F90022824BFEF768FFFFF7B6FB0B
:1012E000074673A3D3E9002340464946FFF714F9A4
:1012F000804689463846FFF7A5F86FA3D3E9002357
:10130000FFF70AF902460B4640464946FEF74CFFF6
:101310008046894602460B46FFF7FEF8CDE90C01F0
:1013200007F2FF3700210022CDE90A123B050B939B
:1013300000230A9342464B4640464946FEF736FF95
:10134000CDE90E0142464B4600204FF08041FEF7AA
:101350002BFF804689460022624BDDE90C01FFF736
:1013600005FA0022604BFEF721FF02460B46DDE93D
:101370000C01FFF7FBF900225C4BFEF717FF02465A
:101380000B46DDE90C01FFF7F1F902460B4640463A
:101390004946FEF70BFF02460B46DDE90E01FFF75B
:1013A000E5F90022524BFEF701FFDDE90A23FFF7C2
:1013B000B3F88046894649EC188BDDE90623FFF730
:1013C0003BFB40B1013E0022474B40464946FFF7F8
:1013D000CDF941EC180B06F16303C62B3BD804276B
:1013E000209B13F4006F40D035A3D3E90023DDE93F
:1013F000068940464946FFF715FB00283BD032A33B
:10140000D3E9002340464946FFF7F8FA002832D0D6
:101410001E9BB34221DD9E1B731E1E931FE0209B6B
:1014200002931F9B01931E9B00939DED080B2B467F
:101430005A462146504600F0CBF813B0BDEC028B63
:10144000BDE8F08F9FED227B8DED067B069607F1C0
:1014500000430793FEE60527C2E700231E93209B67
:1014600043F48063209300273E461F9B9F4241D256
:10147000A3EB070840E01E9B002BF6D0119B002B2E
:10148000F3D01E9B013B1E93EFE700BFAFF300803C
:10149000FB799F501344D33FB3C8608B288AC63F63
:1014A00061436F63A787D23F71A379094F930A40C5
:1014B0001655B5BBB16B0240EF39FAFE422EE63F3E
:1014C0002D431CEBE2361A3F0000000080842E41C1
:1014D0000000000000000000FFFFEF7F0000F83F69
:1014E0000000E03F00002C400000244000001840B5
:1014F0000000F03F4FF00008209B13F0020902D0DB
:101500000FB14FF000083EB153EC182BDDE9060196
:10151000FFF72CF9CDE9060100220023DDE90801DF
:10152000FFF76CFA00283BD1209B23F40063029361
:10153000CDF804801E9B00939DED060B2B465A466A
:101540002146504600F044F8002F3FF476AF209B30
:1015500013F0200F2CD04FF0450C00F101082B4662
:10156000024621466046D04786EAE672A2EBE67262
:1015700005230593013F0497002303930A23029355
:10158000F30F019300922B46424621465046FFF747
:101590007BFDB9F1000F3FF450AF02461F9F10E0F2
:1015A000DDE90601024601F10043CDE90623BBE770
:1015B0004FF0650CD1E7561C2B4621462020D04722
:1015C0003246A2EB0B03BB42F5D3104635E700BF12
:1015D0002DE9F04F2DED028B93B0059008919246C6
:1015E0009B4659EC108B1E9D42464B464046494651
:1015F000FFF7FAF9002840D04FF0FF326FF4801364
:1016000040464946FFF7FAF9002845D14FF0FF322E
:10161000AD4B40464946FFF70FFA00284BD1A6A331
:10162000D3E9002340464946FFF706FA00285AD17D
:10163000A3A3D3E9002340464946FFF7DFF900287A
:1016400051D10022002340464946FFF7D7F9002830
:1016500057D100230993209B13F4806F5CD00024A2
:101660001F2C5BD8092D59D904F148036B44302253
:1016700003F8202C013D0134F2E7209B03931F9BCC
:10168000029303230193914B00935B4652460899C2
:101690000598FFF71FFC07E1209B03931F9B029314
:1016A000042301938A4B00935B46524608990598A0
:1016B000FFF710FCF8E0209B13F004030FD0854ADD
:1016C0007BB10423209903911F9902910193009209
:1016D0005B46524608990598FFF7FCFBE4E07E4A1A
:1016E000EEE70323EEE7209B02931F9B01930095F7
:1016F00049EC108B5B46524608990598FFF770FD40
:10170000D2E042464B4600200021FEF74DFD8046C8
:101710008946012309939EE70625A0E740464946EE
:10172000FFF794F90646FEF78DFE02460B4640464B
:101730004946FEF739FD694B03EBC50393ED008B7A
:1017400053EC182BFEF7E8FE02460B46CDE90623C4
:10175000FFF7A4F90746FEF765FE02460B46DDE9F2
:101760000601FEF721FD02460B46CDE906230022C5
:101770005B4BFFF761F908B301373846FEF752FEBD
:1017800002460B4651EC180BFFF742F908B101363F
:1017900000270DBB3046FEF755FE02460B4640467D
:1017A0004946FEF701FD00224D4BFFF727F90028BF
:1017B00042D116F0010F3FD001363DE00022484BE8
:1017C000DDE90601FFF71AF90028E2D117B117F099
:1017D000010FDED00137DCE71F2C17D8013D414B4C
:1017E000A3FB0723DB08194603EB8303A7EB4303A3
:1017F000621C303304F148000DEB000404F8203C77
:10180000092F02D90F461446E6E714461F2C0AD8C2
:101810006B1E45B104F148026A44302102F8201CD5
:101820001D460134F2E71F2C06D804F148036B442F
:101830002E2203F8202C01341F2C17D82A4A82FBB1
:101840000632F317C3EBA2031A4603EB8303A6EB9E
:101850004303611C303304F148000DEB000404F82D
:10186000203C16460AB10C46E6E70C46209B03F0E6
:101870000303012B3AD01F2C09D8099B002B52D00F
:1018800004F148036B442D2203F8202C0134209BE3
:1018900003931F9B029301940AAB00935B4652464D
:1018A00008990598FFF716FB13B0BDEC028BBDE855
:1018B000F08F00BFAFF300800000000065CDCD4188
:1018C0000000000065CDCDC1FFFFEF7F405600084E
:1018D00044560008345600083C5600086856000874
:1018E0000000E03FCDCCCCCC676666661F9BB3B1F1
:1018F000099B1BB9209B13F00C0F12D01F9B013BBF
:101900001F93194606E004F148036B44302203F8A4
:10191000202C01348C42AED21F2CF4D9ABE71F9996
:10192000F8E71F99F6E7209B13F0040F07D004F1A6
:1019300048036B442B2203F8202C0134A7E7209B9B
:1019400013F0080FA3D004F148036B44202203F8DE
:10195000202C01349BE700BF2DE9F04F91B0804669
:1019600017460F938946002900F0478300260F9BF6
:101970001878002800F04483252809D0741C3B46C1
:1019800032464946C0470F9B01330F932646EEE788
:1019900001330F9300251FE045F0010501320F923E
:1019A000012318E045F0020501320F92012312E0F5
:1019B00045F0040501320F9201230CE045F00805C3
:1019C00001320F92012306E045F0100501320F921B
:1019D000012300E000234BB30F9A1378203B102B18
:1019E000F8D801A151F823F0BD190008D519000855
:1019F000D5190008C9190008D5190008D51900081B
:101A0000D5190008D5190008D5190008D5190008FE
:101A1000D5190008B1190008D5190008A519000842
:101A2000D5190008D5190008991900080B930F9BC8
:101A30001A78A2F13003DBB2092B18D92A2A1BD05D
:101A4000DDF82CB00F9B1A782E2A25D00F9A137828
:101A5000683B122B5CD8DFE803F0495BAC5B3B5B77
:101A60005B5B5B5B5B5B575B5B5B5B5BB1000FA8CE
:101A7000FFF71DFA8346E5E71A9B1A1D1A921B68A9
:101A8000002B04DB9B460F9B01330F93DAE745F0F5
:101A90000205C3F1000BF6E745F480655A1C0F926E
:101AA0005A78A2F13003DBB2092B0CD92A2ACDD106
:101AB0001A9B1A1D1A921C6824EAE4730B930F9B5D
:101AC00001330F93C2E70FA8FFF7F1F90B90BDE7C1
:101AD00045F48071531C0F9353786C2B01D00D4645
:101AE00016E045F4407502320F9211E045F0800196
:101AF000531C0F935378682B01D00D4608E045F036
:101B0000C00502320F9203E045F4807501320F9256
:101B10000F9B1878672856D82528C0F06482A0F15A
:101B20002503422B00F25F82DFE813F052025D02D0
:101B30005D025D025D025D025D025D025D025D02AD
:101B40005D025D025D025D025D025D025D025D029D
:101B50005D025D025D025D025D025D025D025D028D
:101B60005D025D025D025D025D025D02860168014B
:101B700086015D025D025D025D025D025D025D0245
:101B80005D025D025D025D025D025D025D025D025D
:101B90005D0271005D025D025D025D025D025D023B
:101BA0005D025D025D027100AB017100860168019A
:101BB000860145F4007501320F92A9E745F480755E
:101BC00001320F92A4E7782800F20D826928C0F054
:101BD0000A82A0F16902D2B20123934049F2410284
:101BE000134214D113F0800F40F0D78113F4806FAB
:101BF00000F0F9811A9B1A1D1A92D3F800A00B9BD2
:101C0000002B40F08C814FF0FF3253466DE16F287E
:101C10000CD005D858283CD0622803D1022306E016
:101C2000782838D025F010050A2300E0082358282A
:101C300033D0692803D0642801D025F00C0515F4B1
:101C4000806F01D025F00105692829D0642827D0AC
:101C500015F4007F40F0948015F4807F40F0AC8054
:101C600015F0400F00F0BD801A9A111D1A911278DC
:101C70000595CDF810B00B990391029300230193C1
:101C800000923B46324649464046FFF7FDF906467C
:101C900027E01023CBE71023C9E745F02005C8E76C
:101CA00015F4007F21D115F4807F42D115F0400F4B
:101CB00058D01A9A111D1A91127882EAE271A1EB9A
:101CC000E2710595CDF810B00B9803900293D20FF6
:101CD000019200913B46324649464046FFF7D4F90F
:101CE00006460F9B01330F9341E61A9A073222F002
:101CF000070202F108011A9151681268084600298A
:101D000013DB0895CDF81CB00B9C069404930023BC
:101D10000593C90F0291009201903B463246494615
:101D20004046FFF7FBF90646DBE7524261EB410014
:101D3000E7E71A9A111D1A91126882EAE271A1EB83
:101D4000E2710595CDF810B00B9803900293D20F75
:101D5000019200913B46324649464046FFF794F9CE
:101D60000646BEE715F0800F05D01A9A111D1A918C
:101D7000B2F90020A1E71A9A111D1A9112689CE786
:101D80001A9A073222F0070202F108011A91089507
:101D9000CDF81CB00B990691002104930591029196
:101DA000D2E90023CDE900233B463246494640466E
:101DB000FFF7B4F9064694E71A9A111D1A91059592
:101DC000CDF810B00B99039102930023019313688F
:101DD00000933B46324649464046FFF755F90646D2
:101DE0007FE715F0800F04D01A9A111D1A911288FE
:101DF0003EE71A9A111D1A91126839E7462818D041
:101E00001A9B073323F0070303F108021A9293ED9C
:101E1000000B0295CDF804B00B9B00933B46324675
:101E200049464046FFF7D4FB06460F9B01330F930C
:101E30009DE545F02005E3E7672801D0472801D15B
:101E400045F40065452801D0472801D145F020051B
:101E50001A9B073323F0070303F108021A9293ED4C
:101E6000000B0295CDF804B00B9B00933B46324625
:101E700049464046FFF7B4F906460F9B01330F93DE
:101E800075E515F002051DD001241A98031D1A935B
:101E900006F1010A3B46324649460078C047A5B9DB
:101EA0000F9B01330F93564661E502F1010A3B4651
:101EB00049462020C047234652465C1C9B45F4D827
:101EC0001646E2E701233246F7E7524606E0561C83
:101ED0003B4649462020C0472C463246651CA34558
:101EE000F5D89246DCE701330A46197811B1511E44
:101EF000002AF8D1A3EB0A0315F480620C9203D0F8
:101F00000B9A934228BF134615F0020409D00D9492
:101F1000CDF838B00B9D32460C9E9B461FE00B9AC5
:101F200073E63246264606E0541C3B4649462020CE
:101F3000C0472B4622465D1C9B45F5D834462B46B0
:101F40000D94CDF838B00B9D0C9E9B4607E01D46C6
:101F50000AF1010A541C3B464946C04722469AF8FA
:101F6000000020B1002EF3D06B1E002DEFD10D9C90
:101F700016465B46DDF838B054B90F9B01330F931A
:101F8000F5E4551C3B4649462020C04723462A46D7
:101F90005C1C9B45F5D81646EFE745F021051A9BDA
:101FA0001A1D1A921B680595082204920B9A039237
:101FB000102202920022019200933B46324649468B
:101FC0004046FFF761F806460F9B01330F93CEE4BE
:101FD000741C3B46324649462520C0470F9B0133BF
:101FE0000F932646C3E4741C3B4632464946C0471D
:101FF0000F9B01330F932646B9E4DFF82080B5E448
:10200000BE4208D37A1E3B4649460020C0473046B0
:1020100011B0BDE8F08F3246F5E700BFAD0E000805
:102020000EB400B584B0014605AA52F8043B0392F1
:1020300000924FF0FF320448FFF78EFC04B05DF8C9
:1020400004EB03B0704700BFA50E000882B000216A
:1020500000910B4B5A6C42F480425A645A6C02F461
:1020600080420092009A01911A6C42F080521A64E8
:102070001B6C03F080530193019B02B0704700BFBB
:1020800000380240FEE7FEE7FEE7FEE7FEE77047A6
:10209000034AD2F8883043F47003C2F8883070479E
:1020A00000ED00E010B504460E4B1A784FF47A7339
:1020B000B3FBF2F30C4A1068B0FBF3F000F0A0F8A9
:1020C00068B90F2C01D901200AE0002221464FF007
:1020D000FF3000F081F8054B1C60002000E001207B
:1020E00010BD00BF040000200000002008000020F8
:1020F00008B50B4B1A6842F400721A601A6842F471
:1021000080621A601A6842F480721A60032000F03C
:1021100051F80F20FFF7C6FFFFF798FF002008BD1A
:10212000003C0240014B1868704700BF440000208B
:10213000002807DB00F01F02400901239340024AF8
:1021400042F82030704700BF00E100E0002808DBC3
:102150000901C9B200F1604000F5614080F8001348
:10216000704700F00F000901C9B2014B19547047C4
:1021700014ED00E000B500F00700C0F1070CBCF161
:10218000040F28BF4FF0040C031D062B0FD9C31EEC
:102190004FF0FF3E0EFA0CF021EA000199400EFAD2
:1021A00003FE22EA0E0241EA02005DF804FB00236E
:1021B000EEE70000074AD36823F4E0631B041B0C1E
:1021C000000200F4E060034343F0BF6343F40033D4
:1021D000D360704700ED00E010B50446054BD868A9
:1021E000C0F30220FFF7C6FF01462046FFF7AEFF0F
:1021F00010BD00BF00ED00E008B5FFF799FF08BD76
:102200000138B0F1807F0BD24FF0E0235861054ACE
:10221000F02182F823100020986107221A6170478C
:102220000120704700ED00E070B50446866DFFF7B1
:1022300079FF94F83530DBB2022B06D0802363653A
:10224000002384F83430012070BD054622681368ED
:1022500023F0160313602268536923F0800353614F
:10226000236CE3B12268136823F00803136022682B
:10227000136823F00103136023681B6813F0010F38
:1022800011D0FFF74FFF431B052BF5D920236365C2
:10229000032084F83500002384F83430D4E7A36C9D
:1022A000002BDFD1E3E7E26D3F239340B3600123CE
:1022B00084F83530002084F83400C5E790F83530D4
:1022C000DBB2022B03D08023436501207047052336
:1022D00080F835300268136823F001031360002092
:1022E0007047000000230F2B00F2E98070B582B028
:1022F00065E085684FEA430E032404FA0EF425EAEC
:102300000405CC6804FA0EF42C438460446824EA83
:1023100002044A68C2F300129A40224342605CE021
:10232000DC08083450F8242003F00705AD004FF016
:102330000F0E0EFA05FE22EA0E0E0A69AA4042EAC4
:102340000E0240F824205CE0072200E0002202FA9E
:102350000EF22A4302345A4D45F82420594A946813
:102360006FEA0C0224EA0C054E6816F4801F01D0B7
:102370004CEA0405534CA560E46802EA04054E6883
:1023800016F4001F01D04CEA04054E4CE560646869
:1023900002EA04054E6816F4003F01D04CEA040539
:1023A000484C6560246822404D6815F4803F01D098
:1023B0004CEA0402434C226001330F2B7DD80122EA
:1023C0009A400C6804EA020C32EA0404F4D14C6826
:1023D00004F00304013C012C8BD94A6802F003028B
:1023E000032A09D0C4685D000322AA4024EA02043B
:1023F0008A68AA402243C2604A6802F00302022AA5
:102400008ED004684FEA430E032202FA0EF224EA49
:1024100002044A6802F0030202FA0EF2224302604A
:102420004A6812F4403FC7D000220192264A546CF9
:1024300044F480445464526C02F480420192019A44
:102440009C08A51C1E4A52F8255003F0030E4FEAC3
:102450008E0E0F2202FA0EF225EA02051B4A904266
:102460003FF474AF02F5806290421AD002F58062A8
:10247000904218D002F58062904216D002F5806238
:10248000904214D002F58062904212D002F5806230
:10249000904210D002F5806290423FF455AF08227E
:1024A00055E7012253E7022251E703224FE70422B6
:1024B0004DE705224BE7062249E702B070BD7047A1
:1024C00000380140003C014000380240000002405A
:1024D000002800F0E08170B582B00446036813F074
:1024E000010F3BD09F4B9B6803F00C03042B2CD0B7
:1024F0009C4B9B6803F00C03082B21D06368B3F559
:10250000803F4FD0B3F5A02F52D0964B1A6822F4DB
:1025100080321A601A6822F480221A606368002BE5
:1025200050D0FFF7FFFD05468E4B1B6813F4003FAC
:1025300014D1FFF7F7FD401B6428F5D90320B1E162
:10254000884B5B6813F4800FD8D0864B1B6813F45C
:10255000003F03D06368002B00F09F81236813F0D5
:10256000020F54D07F4B9B6813F00C0F3ED07D4B75
:102570009B6803F00C03082B33D0E368002B68D072
:10258000794B01221A60FFF7CDFD0546754B1B689C
:1025900013F0020F54D1FFF7C5FD401B0228F5D9F7
:1025A00003207FE16F4A136843F480331360B5E77B
:1025B0006C4B1A6842F480221A601A6842F4803226
:1025C0001A60ABE7FFF7AEFD0546664B1B6813F4D8
:1025D000003FC3D0FFF7A6FD401B6428F5D90320B8
:1025E00060E1604B5B6813F4800FC6D15D4B1B68E4
:1025F00013F0020F03D0E368012B40F05081594AD9
:10260000136823F0F803216943EAC10313602368C8
:1026100013F0080F42D063696BB3534B0122C3F828
:10262000802EFFF77FFD05464E4B5B6F13F0020FC8
:1026300034D1FFF777FD401B0228F5D9032031E1A3
:10264000484A136823F0F803216943EAC103136081
:10265000DDE7454B00221A60FFF764FD0546414B5C
:102660001B6813F0020FD2D0FFF75CFD401B02285D
:10267000F5D9032016E13C4B0022C3F8802EFFF76A
:1026800051FD0546374B5B6F13F0020F06D0FFF785
:1026900049FD401B0228F5D9032003E1236813F00C
:1026A000040F77D02F4B1B6C13F0805F33D10023C6
:1026B00001932C4B1A6C42F080521A641B6C03F08D
:1026C00080530193019B0125284B1B6813F4807FE5
:1026D00023D0A368012B34D0052B38D0214B1A6F9F
:1026E00022F001021A671A6F22F004021A67A36827
:1026F000002B3DD0FFF716FD06461A4B1B6F13F05B
:10270000020F46D1FFF70EFD801B41F2883398423D
:10271000F3D90320C6E00025D6E7144A136843F432
:1027200080731360FFF7FEFC0646104B1B6813F422
:10273000807FCED1FFF7F6FC801B0228F5D903205D
:10274000B0E0084A136F43F001031367CFE7054B6E
:102750001A6F42F004021A671A6F42F001021A67F8
:10276000C5E700BF0038024000004742007000404B
:10277000FFF7D8FC0646524B1B6F13F0020F08D030
:10278000FFF7D0FC801B41F288339842F3D9032035
:1027900088E0EDB9A369002B00F08380484A926875
:1027A00002F00C02082A51D0022B17D0454B002210
:1027B0001A66FFF7B7FC0446414B1B6813F0007F15
:1027C00042D0FFF7AFFC001B0228F5D9032069E0D7
:1027D0003B4A136C23F080531364DBE7394B002230
:1027E0001A66FFF79FFC0546354B1B6813F0007F08
:1027F00006D0FFF797FC401B0228F5D9032051E0D3
:10280000E369226A1343626A43EA8213A26A5208A6
:10281000013A43EA0243E26A43EA0263284A536008
:10282000284B01221A66FFF77DFC0446244B1B68E7
:1028300013F0007F06D1FFF775FC001B0228F5D9C5
:1028400003202FE000202DE000202BE0012B2BD0D7
:102850001B4B5B6803F48001E269914226D103F0CF
:102860003F02216A8A4223D1616A47F6C0721A4048
:10287000B2EB811F1ED103F44031A26A5208013A23
:10288000B1EB024F18D103F07063E26AB3EB026F51
:1028900014D1002006E001207047012002E0012051
:1028A00000E0002002B070BD0120FBE70120F9E745
:1028B0000120F7E70120F5E70120F3E70120F1E728
:1028C000003802400000474208B5334B9B6803F0D4
:1028D0000C03042B5BD0082B5BD12F4B5A6802F002
:1028E0003F025B6813F4800F2CD02B4B5868C0F369
:1028F00088104FEA401CBCEB000C6EEB0E0E4FEA4A
:102900008E1343EA9C634FEA8C11B1EB0C0163EB2D
:102910000E03DB0043EA5173C90011EB000C43F1D5
:102920000003590200234FEA4C2041EADC51FEF734
:10293000E3F9194B5B68C3F3014301335B00B0FB60
:10294000F3F008BD144B5868C0F388104FEA401CE0
:10295000BCEB000C6EEB0E0E4FEA8E1343EA9C6349
:102960004FEA8C11B1EB0C0163EB0E03DB0043EA81
:102970005173C90011EB000C43F1000399020023CD
:102980004FEA8C2041EA9C51FEF7B6F9D1E70348A3
:10299000D7E70348D5E700BF0038024000127A00AD
:1029A0000024F400002800F09B8070B50D4604461A
:1029B0004F4B1B6803F007038B4208D2CBB24C4A43
:1029C0001370136803F007038B4240F08B80236879
:1029D00013F0020F17D013F0040F04D0454A936888
:1029E00043F4E0539360236813F0080F04D0414A86
:1029F000936843F4604393603E4A936823F0F00386
:102A0000A1680B439360236813F0010F32D0636811
:102A1000012B21D09A1E012A25D9364A126812F0BC
:102A2000020F61D033498A6822F0030213438B609E
:102A3000FFF778FB06462F4B9B6803F00C03626898
:102A4000B3EB820F16D0FFF76DFB801B41F288338A
:102A50009842F0D9032042E0264A126812F4003F5F
:102A6000E0D101203BE0234A126812F0007FD9D167
:102A7000012034E01E4B1B6803F00703AB4207D96B
:102A8000EAB21B4B1A701B6803F00703AB422DD14F
:102A9000236813F0040F06D0164A936823F4E0531A
:102AA000E1680B439360236813F0080F07D0114AC5
:102AB000936823F46043216943EAC1039360FFF7FD
:102AC00003FF0C4B9B68C3F303130B4AD35CD84042
:102AD0000A4B18600A4B1868FFF7E4FA002070BD33
:102AE000012070470120FAE70120F8E70120F6E70E
:102AF000003C024000380240C056000800000020A0
:102B000008000020014B1868704700BF000000203B
:102B100008B5FFF7F7FF044B9B68C3F38223034A12
:102B2000D35CD84008BD00BF00380240B85600084A
:102B300008B5FFF7E7FF044B9B68C3F34233034A32
:102B4000D35CD84008BD00BF00380240B85600082A
:102B5000704770477047704770B504460368DE6879
:102B60001D6915F0020F10D016F0020F0DD06FF096
:102B700002021A610123037703689B6913F0030FB4
:102B80005ED000F0E7FD0023237715F0040F12D08C
:102B900016F0040F0FD023686FF004021A610223AD
:102BA000237723689B6913F4407F4FD0204600F0C1
:102BB000D1FD0023237715F0080F12D016F0080F6F
:102BC0000FD023686FF008021A610423237723686B
:102BD000DB6913F0030F40D0204600F0BBFD00235B
:102BE000237715F0100F12D016F0100F0FD02368B6
:102BF0006FF010021A61082323772368DB6913F44E
:102C0000407F31D0204600F0A5FD0023237715F04A
:102C1000010F02D016F0010F2DD115F0800F02D058
:102C200016F0800F2FD115F0400F02D016F0400F94
:102C300031D115F0200F02D016F0200F33D170BD26
:102C4000FFF787FF2046FFF785FF9CE72046FFF749
:102C500080FF2046FFF77EFFABE72046FFF779FFB6
:102C60002046FFF777FFBAE72046FFF772FF2046BE
:102C7000FFF770FFC9E723686FF001021A61204671
:102C8000FFF766FFC9E723686FF080021A612046EC
:102C900000F0A7F9C7E723686FF040021A612046E9
:102CA000FFF759FFC5E723686FF020021A6120463D
:102CB00000F096F9C3E700000368344A904212D04E
:102CC000B0F1804F0FD0A2F57C4290420BD002F5BC
:102CD0008062904207D002F58062904203D002F5F4
:102CE0007842904203D123F070034A681343274A85
:102CF00090422AD0B0F1804F27D0A2F57C4290427A
:102D000023D002F5806290421FD002F5806290428B
:102D10001BD002F57842904217D002F570529042D3
:102D200013D002F5806290420FD002F5806290428B
:102D30000BD0A2F59832904207D002F58062904203
:102D400003D002F58062904203D123F44073CA6835
:102D5000134323F080034A69134303608B68C36203
:102D60000B688362094B984203D003F58063984255
:102D700001D10B69036301234361036913F0010F60
:102D800003D0036923F00103036170470000014091
:102D9000002853D0F8B50D46044690F83D30002B7E
:102DA00047D0022384F83D302268936823F480439F
:102DB00023F007039360214651F8040BFFF77CFFD3
:102DC00021688B688A690E6A2868184322F4407269
:102DD00022F00302AB68AF6943EA0723134323F4ED
:102DE0007C4323F0FC03EA68EF6942EA07221A43B6
:102DF0002B6A1B032F6943EA0713134326F0AA0625
:102E00006A686D6942EA05123243886021688B6105
:102E100023681A62012384F8463084F83E3084F82F
:102E20003F3084F8423084F8433084F83D3000204D
:102E3000F8BD80F83C3000F0BFFCB2E701207047DD
:102E400001F01F014FF0010C0CFA01FC036A23EAA8
:102E50000C030362036A8A4013430362704738B568
:102E6000044690F83E00C0B294F83F3094F84220F7
:102E7000D2B294F843C00D4609BB01285ED1012AA5
:102E80005DD1022384F83E3084F84230002D39D0E1
:102E9000042D48D0012200212068FFF7D1FF012234
:102EA00004212068FFF7CCFF2268D36843F00203B7
:102EB000D3602268D36843F00403D3602CE0DBB214
:102EC0005FFA8CFC042912D001283DD1012B36D1A8
:102ED000012A3BD1BCF1010F3AD1022384F83E30E4
:102EE00084F83F3084F8423084F84330CEE7012B39
:102EF00026D1BCF1010F25D1022384F83F3084F89C
:102F00004330C3E7012200212068FFF799FF2268C0
:102F1000D36843F00203D3602268136843F00103CF
:102F2000136000200BE0012204212068FFF788FFD6
:102F30002268D36843F00403D360EDE7012038BD75
:102F40000120FCE71846FAE70120F8E71846F6E703
:102F50001046F4E790F83C20012A3DD010B4034617
:102F6000012280F83C20022280F83D20026850684F
:102F7000946820F0700C086840EA0C0050601A68F1
:102F8000164882421AD0B2F1804F17D0A0F57C408B
:102F9000824213D000F5806082420FD000F580603D
:102FA00082420BD000F57840824207D000F5705085
:102FB000824203D0A0F59430824204D124F08004F0
:102FC000496821439160012283F83D20002083F865
:102FD0003C005DF8044B7047022070470000014040
:102FE00070477047026802F10C0353E8003F23F476
:102FF00090730C3242E800310029F3D1026802F1EB
:10300000140353E8003F23F00103143242E8003177
:103010000029F3D1036B012B05D0202380F8423027
:10302000002303637047026802F10C0353E8003F7A
:1030300023F010030C3242E800310029F3D1ECE711
:1030400090F84130DBB2212B01D002207047836819
:10305000B3F5805F17D0036A5A1C02621A780368BE
:103060005A60C38C9BB2013B9BB2C3844BB90268CC
:10307000D36823F08003D3600268D36843F0400331
:10308000D360002070470369002BE4D1036A1B88DA
:103090000268C3F308035360036A02330362E0E784
:1030A00010B504460268136923F44053C1680B430A
:1030B0001361836802691A4343691A43C3691A4357
:1030C0000168CB6823F4164323F00C031343CB6051
:1030D0000268536923F4407381690B4353610368A9
:1030E000314A934206D002F58062934202D0FFF744
:1030F0000FFD01E0FFF71CFDE369B3F5004F29D098
:103100000021031849411B1841F10001C90041EA9F
:103110005371DB00181863684FEA83024FEA937318
:1031200041F10001FDF7E8FD204AA2FB0031490909
:10313000642303FB11031B013233A2FB03235B094E
:1031400003F0F00202EB011203F00F0321681344B5
:103150008B6010BD0023021843EB0301121841F1EC
:103160000001C90041EA5271D200101841F100017A
:10317000626892185B41FDF7BFFD0C4AA2FB00316B
:103180004909642303FB1103DB003233A2FB032351
:103190005B095A0002F4F87202EB011203F0070314
:1031A000216813448B60D4E7001001401F85EB5168
:1031B00060B310B5044690F8413013B3242384F86B
:1031C00041302268D36823F40053D3602046FFF7D0
:1031D00067FF2268136923F49043136122685369DF
:1031E00023F02A0353612268D36843F40053D36069
:1031F00000206064202384F8413084F8423060630A
:1032000010BD80F8403000F003FCD7E70120704784
:1032100090F84130DBB2202B10D189B192B101621C
:103220008284C28400234364212280F84120016803
:10323000CA6842F08002CA60184670470220704790
:103240000120704701207047704708B50168CA68BF
:1032500022F04002CA60202280F84120FFF7F4FFEC
:10326000002008BD7047704708B5806B0023C385F8
:10327000C384FFF7F8FF08BD704790F84230DBB217
:10328000222B69D18368B3F5805F4FD0826AB3F592
:10329000805F04D0002B56D10369002B53D1036803
:1032A0005B681370836A01338362C38D9BB2013BF9
:1032B0009BB2C385002B51D100B583B00268D3689F
:1032C00023F02003D3600268D36823F48073D360B3
:1032D0000268536923F001035361202380F84230D0
:1032E00000234363036B012B33D100230363026884
:1032F00002F10C0353E8003F23F010030C3242E8C4
:1033000000310029F3D103681A6812F0100F06D0BB
:10331000002201921A6801925B680193019B818DE2
:10332000FFF7AAFF002003B05DF804FB0269002A42
:10333000ACD1826A03685B68C3F308031380836AB5
:1033400002338362B1E703685B6803F07F031370A5
:10335000A8E7FFF787FFE5E70220704700207047E6
:1033600010B582B0044602681368D068516913F042
:103370000F0F09D113F0200F0CD010F0200F09D03F
:103380002046FFF77AFF16E011F0010115D110F485
:10339000907F12D1216B012979D013F0800F03D0D7
:1033A00010F0800F40F0148113F0400F03D010F0A4
:1033B000400F40F0118102B010BD13F0010F06D094
:1033C00010F4807F03D0626C42F00102626413F05B
:1033D000040F04D019B1626C42F00202626413F06F
:1033E000020F04D019B1626C42F00402626413F05F
:1033F000080F07D010F0200F00D119B1626C42F015
:1034000008026264626C002AD5D013F0200F02D04B
:1034100010F0200F29D123685B6903F04003626C30
:1034200012F0080F00D163B32046FFF7DBFD2368DD
:103430005B6913F0400F20D0226802F1140353E8B7
:10344000003F23F04003143242E800310029F3D159
:10345000E36B73B1624A1A65E06BFEF72FFF002839
:10346000A9D0E06B036D9847A5E72046FFF705FF5D
:10347000D1E72046FFF7F7FE9DE72046FFF7F3FE72
:1034800099E72046FFF7EFFE0023636493E713F00C
:10349000100F82D010F0100F3FF47FAF0023019384
:1034A0001368019353680193019B536913F0400F14
:1034B00052D0E26B13685B689BB2002B3FF47BAF8A
:1034C000A18D99427FF677AFE385D369B3F5807F0D
:1034D00037D0226802F10C0353E8003F23F48073D5
:1034E0000C3242E800310029F3D1226802F11403C2
:1034F00053E8003F23F00103143242E80031002971
:10350000F3D1226802F1140353E8003F23F0400393
:10351000143242E800310029F3D1202384F84230EC
:1035200000232363226802F10C0353E8003F23F0D9
:1035300010030C3242E800310029F3D1E06BFEF7B2
:1035400073FE02236363A18DE38D9BB2C91A89B216
:103550002046FFF791FE2EE7A18DE38D9BB2C91A9D
:1035600089B2E38D9BB2002B3FF425AF00293FF4D5
:1035700022AF226802F10C0353E8003F23F490735A
:103580000C3242E800300028F3D1226802F1140323
:1035900053E8003F23F00103143242E800300028D2
:1035A000F3D1202384F8423000232363226802F100
:1035B0000C0353E8003F23F010030C3242E80030C4
:1035C0000028F3D1022363632046FFF755FEF2E69D
:1035D0002046FFF735FDEEE62046FFF736FEEAE629
:1035E0006932000838B530EE600ADFED296A60EE16
:1035F000266ADFED287A60EE277A67EE817A264B1D
:1036000093ED007A9FED256A27EE067A27EE017A80
:1036100077EE877A224B93ED007A77EE877AC3EDC7
:10362000007A204B93ED007A30EE477A9FED1E6AC8
:1036300027EE067A87EE016A83ED000A77EEA67A16
:1036400077EE867A17EE900A01F050FE03460A469E
:1036500040F28534A04271F1000414DA10F5617F64
:1036600071F1FF340BDB04460D46E01A65EB0201F5
:10367000FDF704FB084B18602046294638BD0B4C6B
:103680004FF0FF35F1E74FF461740025EDE700BF1F
:10369000890C8F44C706114650000020E6BFA541A3
:1036A0004C0000204800002044FAAC417CFCFFFFA5
:1036B00030B58DB02422002103A801F0DCFD0025E7
:1036C000019502950D4C4FF0804323606560A56025
:1036D0004FF0FF33E3602561A561032303930123CA
:1036E0000593099303A92046FFF752FB0195029524
:1036F00001A92046FFF72EFC0DB030BDAC00002024
:1037000030B58DB02422002103A801F0B4FD0025BE
:10371000019502950D4C0E4B23606560A5604FF638
:10372000FF73E3602561A5610323039301230593E0
:10373000099303A92046FFF72BFB0195029501A9E8
:103740002046FFF707FC0DB030BD00BF640000202D
:10375000000400400368B3F1804F03D0084A93424D
:1037600009D070475B6A074A1360074A12689B1AC0
:10377000064A136070475A6A054B1A80F1E700BF8A
:10378000000400405C00002058000020540000208D
:103790006000002008B5FFF78BFFFFF7B1FF3C2169
:1037A0000348FFF75CFB3C210248FFF758FB08BDCC
:1037B000AC0000206400002010B58AB000230593FF
:1037C00006930793089309930368B3F1804F04D0DD
:1037D0002C4A93422BD00AB010BD0024019403F56B
:1037E0000E331A6C42F001021A641A6C02F00102E4
:1037F0000192019A02941A6B42F001021A631B6B48
:1038000003F001030293029B032305930223069313
:103810000123099305A91C48FEF764FD22460721F0
:103820001C20FEF7D9FC1C20FEF7E6FCD3E70024A1
:103830000394164B1A6C42F002021A641A6C02F0DE
:1038400002020392039A04941A6B42F001021A6373
:103850001B6B03F001030493049BC0230593022315
:10386000069301220792099305A90748FEF73AFD3E
:10387000224607211D20FEF7AFFC1D20FEF7BCFCF1
:10388000A9E700BF000400400000024000380240E9
:1038900008B50248FFF760F908BD00BFAC00002082
:1038A00008B50248FFF758F908BD00BF64000020C2
:1038B00082B0002100910B4B1A6B42F080021A6318
:1038C0001A6B02F080020092009A01911A6B42F08A
:1038D00001021A631B6B03F001030193019B02B009
:1038E000704700BF0038024072B6FEE700B595B0E1
:1038F0003022002108A801F0BEFC002303930493AA
:103900000593069307930193204A116C41F080516F
:103910001164126C02F080520192019A02931C4BC6
:103920001A6842F480421A601B6803F480430293D1
:10393000029B012308934FF48033099302220E92D5
:103940004FF480030F9304231093A8211191129236
:10395000139308A8FEF7BCFD98B90F230393022325
:103960000493002305934FF4A05306934FF4805320
:103970000793052103A8FFF715F820B915B05DF8E6
:1039800004FBFFF7B1FFFFF7AFFF00BF00380240B5
:103990000070004008B50368104A934203D0104AF3
:1039A00093420ED008BD4FF4E1334360002383609F
:1039B000C36003610C2242618361C361FFF7F8FBBE
:1039C000F0E7084B436000238360C36003610C226F
:1039D00042618361C361FFF7EBFBE3E70044004012
:1039E0000048004000CA080010B50648064B0360B6
:1039F000064C03F580632360FFF7CCFF2046FFF7FA
:103A0000C9FF10BD3C01002000440040F40000202C
:103A100010B58AB000230593069307930893099382
:103A200003682F4A934204D02E4A93422CD00AB006
:103A300010BD002401942C4B1A6C42F400321A641D
:103A40001A6C02F400320192019A02941A6B42F04D
:103A500001021A631B6B03F001030293029B0C2308
:103A6000059302230693032308930723099305A9CB
:103A70001E48FEF737FC224609212620FEF7ACFB44
:103A80002620FEF7B9FBD2E700240394164B1A6CEC
:103A900042F480221A641A6C02F480220392039A80
:103AA00004941A6B42F002021A631B6B03F00203C8
:103AB0000493049B4FF4406305930223069303236E
:103AC00008930723099305A90948FEF70BFC224632
:103AD0000A212720FEF780FB2720FEF78DFBA6E7B3
:103AE000004400400048004000380240000002400E
:103AF0000004024008B50248FFF732FC08BD00BFD1
:103B00003C01002008B50248FFF72AFC08BD00BFB1
:103B1000F400002038B505460C460846FCF738FB93
:103B200082B221462846FFF773FB38BD00F1080337
:103B300043604FF0FF328260C36003610023036083
:103B4000704700230361704730B40D68B5F1FF3F43
:103B500011D000F108031C465B681A68AA42FAD922
:103B600063684B6099608C60616008610368013331
:103B7000036030BC70470469F2E7036941688268FA
:103B80008A60416851605A68824206D00022026110
:103B90001A68013A1A601868704782685A60F5E737
:103BA00010B5044601F006F9A36B23B9012401F016
:103BB00023F9204610BD0024F9E70346026C6AB1E0
:103BC00010B50846D9681144D9609C68A14201D358
:103BD0001968D960D96801F07BFB10BD704738B512
:103BE000054601F0E7F895F8454064B201E0013C74
:103BF00064B2002C0ADD6B6A43B105F1240000F0C9
:103C0000EBFD0028F3D000F0AFFEF0E7FF2385F8CE
:103C1000453001F0F1F801F0CDF895F8444064B278
:103C200001E0013C64B2002C0ADD2B6943B105F1CF
:103C3000100000F0D1FD0028F3D000F095FEF0E771
:103C4000FF2385F8443001F0D7F838BD38B590B17E
:103C50000D460446C36B2BB1026C0021A2FB03236B
:103C600093B999B14FF0500383F31188BFF36F8F6D
:103C7000BFF34F8FFEE74FF0500383F31188BFF37C
:103C80006F8FBFF34F8FFEE70121EAE701F092F853
:103C90002368E26B216C01FB0230A0600020A0636E
:103CA0006360013A02FB0133E360FF2384F8443090
:103CB00084F84530B5B923691BB901F09DF801209E
:103CC00038BD04F1100000F087FD0028F5D04FF05A
:103CD000E0234FF08052C3F8042DBFF34F8FBFF3A2
:103CE0006F8FEAE704F11000FFF720FF04F12400D2
:103CF000FFF71CFFE1E738B51D46049C0B4649B9A8
:103D00002460E063236401212046FFF79FFF84F8CD
:103D10004C5038BD2260F4E7F0B583B060B10C467A
:103D2000174605460023A4FB001272B923B904FB11
:103D300005F010F1510F0AD94FF0500383F31188A9
:103D4000BFF36F8FBFF34F8FFEE70123EEE75030D5
:103D500001F0B4F9064638B100903B4600F150023C
:103D600021462846FFF7C7FF304603B0F0BDF0B547
:103D700085B0019290B10F460446C1B100F0FAFD42
:103D8000064600BB019B002B5ED04FF0500383F32F
:103D90001188BFF36F8FBFF34F8FFEE74FF05003D3
:103DA00083F31188BFF36F8FBFF34F8FFEE7036C70
:103DB000002BE3D04FF0500383F31188BFF36F8FD4
:103DC000BFF34F8FFEE700263EE039462046FFF75F
:103DD000F4FE013DA563236923B901F00DF801202C
:103DE00005B0F0BD04F1100000F0F6FC0028F4D09E
:103DF0004FF0E0234FF08052C3F8042DBFF34F8FF4
:103E0000BFF36F8FE9E700F0F7FF0020E8E702A8B3
:103E100000F05AFD012621E0002384F8443029E017
:103E2000002384F845302BE02046FFF7D8FE00F051
:103E300079FB09E02046FFF7D2FE00F073FB204635
:103E4000FFF7AEFE00283FD100F0B4FFA56B002DB8
:103E5000BBD1019B002BD6D0002ED8D000F0CCFFD8
:103E600000F096FA00F0A6FF94F844305BB2B3F18C
:103E7000FF3FD1D094F845305BB2B3F1FF3FCFD0D4
:103E800000F0BAFF01A902A800F02AFD0028D1D154
:103E90002046FFF785FE0028C6D0019904F12400D2
:103EA00000F058FC2046FFF79AFE00F03BFB00288C
:103EB000CAD14FF0E0234FF08052C3F8042DBFF376
:103EC0004F8FBFF36F8FBFE7002089E728B110B491
:103ED000044631B3002003460DE04FF0500383F356
:103EE0001188BFF36F8FBFF34F8FFEE70E4800EBD3
:103EF000C30014E00133072B10D80B4A02EBC302B6
:103F00005268A242F2D00028F4D1074A52F8332076
:103F1000002AEFD1044800EBC300EBE708B10160D1
:103F200044605DF8044B70478401002070B504467E
:103F30000D46164600F03EFF94F844305BB2B3F1F4
:103F4000FF3F0DD094F845305BB2B3F1FF3F0BD08B
:103F500000F052FFA36B5BB12046FFF740FE70BD3F
:103F6000002384F84430EDE7002384F84530EFE780
:103F70003246294604F1240000F004FCECE700007E
:103F8000074B1B681B6823B9064B4FF0FF321A60C2
:103F90007047034B1B68DB681A68024B1A60704756
:103FA00034020020CC01002010B50446006B01F063
:103FB000FFF8204601F0FCF810BD2DE9F8438046DB
:103FC0000D4616469946089F0A9C9200A521206B33
:103FD00001F051F9226B06F18043013B02EB8302B1
:103FE00022F0070665B10022092A06D8AB5CA118A9
:103FF00081F834300BB10132F6E7002384F83D300C
:10400000042F08D94FF0500383F31188BFF36F8F4B
:10401000BFF34F8FFEE7E762A764201DFFF791FD16
:1040200004F11800FFF78DFD2461C7F10507A761B2
:1040300064624A464146304600F094FE2060099B87
:1040400003B11C60BDE8F88338B5002407E004EB39
:10405000840293000E481844FFF768FD0134042CD5
:10406000F5D90C4D2846FFF761FD0B4C2046FFF7B4
:104070005DFD0A48FFF75AFD0948FFF757FD09485B
:10408000FFF754FD084B1D60084B1C6038BD00BF96
:10409000600200204C020020380200201C02002098
:1040A00008020020F001002034020020300200202D
:1040B00010B5044600F07EFE294A136801331360F0
:1040C000284B1B685BB1284B1B686BB9254B1B68E1
:1040D000DA6AE36A9A4207D8224B1C6004E0214B5B
:1040E0001C601368012B37D0204A1368013313601A
:1040F0002364E36A01229A401D49086802430A606A
:104100001C4A03EB830302EB83035B68A36098689C
:10411000E060211D41609960E36A03EB8301880040
:1041200002EB8101616111580131115000F064FE10
:104130000D4B1B687BB10B4B1B68DA6AE36A9A4232
:1041400009D24FF0E0234FF08052C3F8042DBFF3A3
:104150004F8FBFF36F8F10BDFFF776FFC4E700BF2F
:10416000EC010020C4020020E0010020D00100206A
:10417000E4010020600200200F4B1B68D3B110B592
:1041800000F018FE0D4BDB68DC68201DFFF7F5FC26
:104190000B4A1368013B1360074A1368013B136025
:1041A00000F02AFE2046FFF7FFFE034B1B68002BA2
:1041B000E6D110BD704700BF0402002008020020B5
:1041C000EC01002008B5FFF7D7FF074B1B68012B58
:1041D000F9D94FF0E0234FF08052C3F8042DBFF31C
:1041E0004F8FBFF36F8FEEE76002002070B504467B
:1041F0000D46234B1E68234B18680430FFF7BDFCA7
:1042000048B9204B1B68DB6A01229A401E490B68A3
:1042100023EA02030B60B4F1FF3F0DD03444194B85
:104220001B685C60A6421DD9184B1868154B1968AD
:104230000431FFF789FC70BD002DEFD0144A51689E
:10424000104B1868816018688C68C4601868043066
:1042500060601868043088601B685A611368013315
:104260001360E8E70B4B1868064B19680431FFF739
:104270006BFC094B1B68A342DDD9074B1C60DAE7D6
:10428000E8010020C4020020E401002030020020E8
:10429000F001002034020020CC0100202DE9F04381
:1042A00085B00746884614461E46900000F006FF7B
:1042B00018B38146582000F001FF0546B8B15822D6
:1042C000002100F0D8FFC5F8309000230393029539
:1042D0000D9B01930C9B0093334622464146384682
:1042E000FFF76BFE2846FFF7E3FE012007E0484694
:1042F00000F05EFF4FF0FF3001E04FF0FF3005B0FF
:10430000BDE8F08300B583B01A4B019300230093FE
:10431000822219491948FFF7C1FF012807D0B0F1DF
:10432000FF3F1DD0164B1B6803B05DF804FB00F087
:10433000B3FC0128F3D14FF0500383F31188BFF38E
:104340006F8FBFF34F8F0F4B4FF0FF321A600E4B42
:1043500001221A600D4B00221A6000F0C5FDE1E752
:104360004FF0500383F31188BFF36F8FBFF34F8F6C
:10437000FEE700BFC80100204C560008C5410008F8
:10438000D0560008CC010020E0010020E801002008
:10439000024A136801331360704700BFC401002054
:1043A000014B1868704700BFE8010020F8B5524B78
:1043B0001B68002B40F09980504B1C6801341C6036
:1043C000C4B94F4B1B681B6843B14FF0500383F3D4
:1043D0001188BFF36F8FBFF34F8FFEE7484A116814
:1043E000484B186810601960474A1368013313601E
:1043F000FFF7C6FD454B1B68A34211D90020444B73
:104400001B68DB6A03EB83039A00424B9B58012B2A
:1044100000D90120404B1B68002B6BD0012069E0C4
:10442000002037E0394B4FF0FF321A60E7E7374B97
:104430001A60E4E7D968516042E00021996211688E
:1044400001391160DA6A01219140344E37683943ED
:104450003160304902EB82024FEA820C8C44DCF876
:1044600004209A609668DE6075609560DA6A02EBF7
:10447000820C4FEA8C056E185E614D5901354FEA8A
:104480008C0C41F80C50DA6A214B1B68DB6A9A42AB
:1044900000D901201A4B1B681B68002BC2D0184B97
:1044A0001B68DB68DB685A689442C0D35A699D6810
:1044B000D968A9609D684D6051681D1DA942B9D099
:1044C000002159611168013911609A6A002AB9D036
:1044D000DE69196AB160DE694E60566803F1180141
:1044E0008E42AAD1196A5160A7E70D4A13680133B9
:1044F00013600020F8BD00BFC4010020E8010020C7
:104500003402002030020020D4010020CC01002021
:10451000C402002060020020D8010020E401002035
:10452000DC01002038B54A4B1B6843B94FF05003FB
:1045300083F31188BFF36F8FBFF34F8FFEE700F057
:1045400039FC434B1A68013A1A601B68002B7AD178
:10455000404B1B683BB9002476E0196A516015E0B6
:10456000D968516021E000233B4A1268002A47D0F5
:10457000394BDB68DB689A6AD869196A8160D86947
:104580004860506803F118018842E6D00021996222
:104590001168013911605A699868D9688160986812
:1045A00048605168181D8142DAD0002159611168B4
:1045B00001391160DA6A01219140284C25682943AC
:1045C0002160274902EB820201EB820252689A6065
:1045D0009468DC6060609060DA6A02EB82008400BC
:1045E00001EB80005861085901300851D96A1D4A11
:1045F0001268D26A9142B7D31B4A01211160B3E716
:104600000BB1FFF7BDFC194B1C6884B9164B1C6835
:10461000D4B14FF0E0234FF08052C3F8042DBFF324
:104620004F8FBFF36F8F01240EE0013C07D0FFF7DF
:10463000BDFE0028F9D00C4B01221A60F5E70B4BA8
:1046400000221A60E2E7002400F0D6FB204638BDC5
:10465000C4010020EC0100201C020020E401002025
:1046600060020020C4020020D8010020DC010020EC
:1046700010B5A8B10446104B1B6843B14FF050036E
:1046800083F31188BFF36F8FBFF34F8FFEE7FFF700
:104690007FFE00212046FFF7A9FDFFF743FF48B941
:1046A0004FF0E0234FF08052C3F8042DBFF34F8F3B
:1046B000BFF36F8F10BD00BFC4010020204B1B68EB
:1046C0001BB1204B01221A6070471E4B00221A605A
:1046D0001D4B1B68B3FA83F3DBB2C3F11F0303EB7B
:1046E00083018A0019498A5842B94FF0500383F375
:1046F0001188BFF36F8FBFF34F8FFEE7134803EBB3
:1047000083018A00024451684968516003EB830CBD
:104710004FEA8C0208320244914209D003EB830332
:104720009A000A4B13445B68DA68094B1A607047B9
:10473000486862469100054A0A445060EEE700BFAF
:10474000C4010020D8010020E40100206002002004
:10475000C402002058B110B50C46094A116818313E
:10476000FFF7F2F901212046FFF740FD10BD4FF0A1
:10477000500383F31188BFF36F8FBFF34F8FFEE7B2
:10478000C402002038B5D8B18C46114605464268AF
:10479000104B1868C2611868946804621868183071
:1047A00060601868183090601B689D622B68013348
:1047B0002B6009B14FF0FF3C6046FFF717FD38BD95
:1047C0004FF0500383F31188BFF36F8FBFF34F8F08
:1047D000FEE700BFC4020020C368DB68002B4AD09C
:1047E00030B49A6AD869196A8160D869486051689A
:1047F00003F11800814247D0002199621168013904
:1048000011602B4A1268002A44D15A699868D96805
:104810008160986848605168181D814237D0002136
:104820005961116801391160DA6A01219140214C06
:10483000256829432160204902EB820201EB8202B4
:1048400052689A609468DC6060609060DA6A02EB9B
:104850008200840001EB8000586108590130085142
:10486000DA6A164B1B68DB6A9A421FD90120144B87
:10487000186030BC70474FF0500383F31188BFF3CA
:104880006F8FBFF34F8FFEE7196A5160B4E7D968A5
:104890005160C4E70B4A5168D9618C681C62606042
:1048A00088609A62116801311160D9E70020E0E761
:1048B000C4010020E401002060020020C4020020A6
:1048C000D80100201C020020034B1B680360034B2F
:1048D0001B684360704700BFD4010020E80100203E
:1048E000F8B5B8B10C460546E9B100F063FA1C4BC7
:1048F00019686B68C81A2268B2F1FF3F2AD0194EB6
:1049000036682F68B74217D08B4215D80023236032
:10491000012420E04FF0500383F31188BFF36F8F21
:10492000BFF34F8FFEE74FF0500383F31188BFF3BF
:104930006F8FBFF34F8FFEE7824203D800232360BF
:10494000012408E05B1A134423602846FFF7BCFFEC
:10495000002400E0002400F04FFA2046F8BD00BF1C
:10496000E8010020D4010020014B01221A607047A9
:10497000D8010020054B1B6833B1054B1B680BB1F8
:10498000002070470220704701207047E00100209E
:10499000C4010020064B1A6813682BB90123036079
:1049A00023B9D368186870470023F8E700207047E0
:1049B000D802002008B54160006191420CD8D21A9B
:1049C00083699A4201D3012008BD011D094B186873
:1049D000FFF7BAF80020F7E79A4201D2994206D2CF
:1049E000011D054B1868FFF7AFF80020ECE7012028
:1049F000EAE700BFD4020020D802002070B50446C8
:104A00000D46164604E0A3691D44236A20469847D4
:104A1000A1692B46324629442046FFF7CBFF0028E8
:104A2000F1D170BD70B505460E460D4B1B68DB68B5
:104A3000DC68201DFFF7A1F894F8283013F0040F6C
:104A400007D123F0010384F82830236A20469847D1
:104A500070BD324629462046FFF7D0FFF5E700BF7C
:104A6000D802002008B505E0DB684FF0FF31186878
:104A7000FFF7D8FF054B1B681A68002AF4D1044AD7
:104A8000106802490860136008BD00BFD80200200A
:104A9000D402002038B50546FFF782FC0446074BD8
:104AA0001B68834205D800232B60044B1C60204602
:104AB00038BDFFF7D7FF01232B60F6E7C8020020BF
:104AC00070B582B006460C46FFF762FC01A8FFF7FE
:104AD000E1FF019B33BB0546E4B9B04213D2224645
:104AE000711B124B1868FFF721FAFFF71BFDD8B9AD
:104AF0004FF0E0234FF08052C3F8042DBFF34F8FE7
:104B0000BFF36F8F10E0FFF70DFD29463046FFF72A
:104B100089FF09E0064A126812680AB90124DEE733
:104B20001C46DCE7FFF7FEFC02B070BDD00200209F
:104B3000D402002030B585B0002201A9384B186896
:104B4000FFF715F9002869D0019B002BF4DB039CCB
:104B5000636913B1201DFFF710F86846FFF79AFF4D
:104B60000546019B013B082BE6D8DFE803F005056D
:104B7000293049050529300094F8283043F0010315
:104B800084F82830029BA169024619442046FFF7A9
:104B900011FF0028D0D094F8283013F0040F07D16B
:104BA00023F0010384F82830236A20469847C3E79E
:104BB000A3692A46029919442046FFF71FFFF3E72D
:104BC00094F8283023F0010384F82830B4E794F8EF
:104BD000283043F0010384F828300299A16131B1F3
:104BE0000346024601442046FFF7E4FEA4E74FF0E7
:104BF000500383F31188BFF36F8FBFF34F8FFEE72E
:104C000094F8283013F0020F04D023F0010384F845
:104C1000283091E7204600F0CBFA8DE705B030BD93
:104C2000D002002000B583B001A8FFF7B3FE0199C0
:104C3000FFF746FFFFF77EFFF6E7000038B500F00C
:104C4000B9F80F4B1B6813B100F0D6F838BD0D4D05
:104C50002846FEF76BFF0C4C2046FEF767FF0B4B18
:104C60001D600B4B1C6000220C210A20FFF754F83A
:104C7000034B18600028E7D00649FFF727F9E3E760
:104C8000D0020020F0020020DC020020D802002028
:104C9000D40200205456000800B583B0FFF7CEFFC1
:104CA0000D4B1B685BB10D4B019302230093002356
:104CB0004FF482720A490B48FFF7F0FA40B94FF0FF
:104CC000500383F31188BFF36F8FBFF34F8FFEE75D
:104CD00003B05DF804FB00BFD0020020CC0200202E
:104CE0005C560008254C000882B0002301930D4B50
:104CF0001B68B3F1FF3F08D04FF0500383F31188D6
:104D0000BFF36F8FBFF34F8FFEE74FF0500383F376
:104D10001188BFF36F8FBFF34F8F019B002BFCD027
:104D200002B070470C00002008480068006880F35B
:104D300008884FF0000080F3148862B661B6BFF3B4
:104D40004F8FBFF36F8F00DF00BF000008ED00E062
:104D5000DFF80C00016841F4700101607047000049
:104D600088ED00E04FF0807340F8043C21F0010131
:104D700040F8081C054B40F80C3C40F8202C6FF024
:104D8000020340F8243C4438704700BFE94C000857
:104D9000074B19680868B0E8F04F80F30988BFF343
:104DA0006F8F4FF0000080F311887047AFF30080E1
:104DB000C40200204FF0500383F31188BFF36F8FBC
:104DC000BFF34F8F0B4A136801331360012B00D0E0
:104DD00070474FF0E023D3F8043D13F0FF0FF7D0F6
:104DE0004FF0500383F31188BFF36F8FBFF34F8FE2
:104DF000FEE700BF0C000020094B1B6843B94FF0D1
:104E0000500383F31188BFF36F8FBFF34F8FFEE71B
:104E1000013B034A13600BB983F31188704700BF4D
:104E20000C00002000000000000000000000000056
:104E3000EFF30980BFF36F8F154B1A681EF0100F48
:104E400008BF20ED108A20E9F04F10602DE909001D
:104E50004FF0500080F31188BFF34F8FBFF36F8F77
:104E6000FFF72CFC4FF0000080F3118809BC196893
:104E70000868B0E8F04F1EF0100F08BFB0EC108AC1
:104E800080F30988BFF36F8F704700BFAFF30080D6
:104E9000C402002008B54FF0500383F31188BFF31C
:104EA0006F8FBFF34F8FFFF781FA28B14FF0E023E8
:104EB0004FF08052C3F8042D002383F3118808BDFE
:104EC0004FF0E022002313619361054B1B680549F5
:104ED000A1FB03139B09013B536107231361704737
:104EE00000000020D34D62104FF0E023D3F8002DD6
:104EF0003D4B9A421CD04FF0E023D3F8002D3B4BA2
:104F00009A421ED030B583B0394B1A78D2B2019292
:104F1000FF221A701B78DBB28DF803309DF8033046
:104F200003F05003334A1370334B07221A601BE01F
:104F30004FF0500383F31188BFF36F8FBFF34F8F90
:104F4000FEE74FF0500383F31188BFF36F8FBFF379
:104F50004F8FFEE7284A1368013B13609DF803302A
:104F60005B00DBB28DF803309DF8033013F0800F47
:104F7000F0D1214B1B68032B08D04FF0500383F373
:104F80001188BFF36F8FBFF34F8FFEE71B021A4AE2
:104F9000136003F4E0631360019BDBB2144A1370E7
:104FA0004FF0E024D4F8203D43F47003C4F8203DD2
:104FB000D4F8203D43F07043C4F8203DFFF780FF54
:104FC00000250E4B1D60FFF7C3FED4F8343F43F0BD
:104FD0004043C4F8343FFFF7A7FEFFF76FFBFFF72E
:104FE00083FE284603B030BD71C20F4170C20F412D
:104FF00000E400E008030020040300200C0000206F
:10500000104A12F0070F1AD0D11D21F00701C1F587
:10501000963313440A460C48026000214160134451
:10502000083B23F007030948036059601960991A87
:1050300051601360064B1960064B196070474FF4BE
:105040009633E8E728030020200300201C030020FB
:105050001403002018030020164B1A461B688342D5
:10506000FBD3516802EB010C844509D0416800EB89
:10507000010C634509D00360904219D0106070475D
:105080004068014451601046F0E710B40A4C2468AF
:10509000A3420BD05B681944416013681B6803602E
:1050A000904200D010605DF8044B70470460F7E751
:1050B000704700BF200300201C03002070B5054688
:1050C000FFF766F9354B1B685BB175B105F0070357
:1050D000C3F11002113BAB4206D3AD1805D5002633
:1050E00047E0FFF78DFFF0E70025002D40D02C4B67
:1050F0001B68AB424BD32B4A146801E022461C4686
:105100006368AB4202D22368002BF7D1234B1B68A4
:10511000A3423ED0166808362368136063685B1BA1
:10512000102B10D9601910F0070F08D04FF0500362
:1051300083F31188BFF36F8FBFF34F8FFEE7436098
:105140006560FFF789FF626815490B689B1A0B6061
:10515000154909688B4201D213490B6042F00042A5
:10516000626000232360114A13680133136000E07A
:105170000026FFF7D7F916F0070F0CD04FF05003B9
:1051800083F31188BFF36F8FBFF34F8FFEE70026C5
:10519000EFE70026EDE7304670BD00BF1C0300209E
:1051A0001803002020030020140300201003002017
:1051B00090B338B50446A0F1080550F8043C002B24
:1051C00008DB4FF0500383F31188BFF36F8FBFF3F9
:1051D0004F8FFEE750F8082C42B14FF0500383F395
:1051E0001188BFF36F8FBFF34F8FFEE723F00043AB
:1051F00040F8043CFFF7CCF854F8041C074A136845
:105200000B4413602846FFF727FF054A1368013354
:105210001360FFF787F938BD704700BF18030020FF
:105220000C030020DFF834D0FCF732FF0C480D49A6
:105230000D4A002302E0D458C4500433C4188C42F1
:10524000F9D30A4A0A4C002301E013600432A24257
:10525000FBD300F019F8FBF70BFE704700000220AB
:105260000000002010000020E4560008100000207C
:10527000282F0120FEE702440346934200D17047E5
:1052800003F8011BF9E7000070B50D4D0D4C641BD0
:10529000A4100026A64209D10B4D0C4C00F0B8F921
:1052A000641BA4100026A64205D170BD55F8043B2E
:1052B00098470136EEE755F8043B98470136F2E788
:1052C000DC560008DC560008DC560008E0560008F2
:1052D0000A44914200F1FF3300D1704710B511F834
:1052E000014B03F8014F9142F9D110BD07EE900A2E
:1052F000F5EEC07AF1EE10FA01D400F00BB8F1EE41
:10530000677A08B517EE900A00F004F8404261EBA6
:10531000410108BDD0B5FBF7A7F80C4B00220646AB
:105320000F46FBF7F9F8FBF7B9FB0446FBF77AF8F1
:10533000074B0022FBF7F0F802460B463046394691
:10534000FAF732FFFBF7AAFB2146D0BD0000F03D83
:105350000000F0412DE9F047089D0E4604460F4637
:10536000002B4AD194468C45B2FA82F260D942B100
:10537000C2F12003974020FA03F30CFA02FC1F430A
:1053800094404FEA1C4E1FFA8CF6B7FBFEF1230C3B
:105390000EFB117743EA074301FB06F098420AD956
:1053A0001CEB030301F1FF3780F01581984240F2B6
:1053B0001281023963441B1AA4B2B3FBFEF00EFB48
:1053C000103344EA034400FB06F6A6420AD91CEB5C
:1053D000040400F1FF3380F00081A64240F2FD801A
:1053E0006444023840EA0140A41B00211DB1D440AE
:1053F0000023C5E90043BDE8F0878B4205D90DB114
:10540000C5E9000100210846F5E7B3FA83F1002958
:1054100046D1B34202D3824200F2F580841A66EB91
:10542000030201201746002DE5D0C5E90047E2E759
:10543000002A40F09380A1EB0C034FEA1C471FFAAF
:105440008CFE0121B3FBF7F607FB1630230C43EA71
:1054500000430EFB06F0984208D91CEB030306F14B
:10546000FF3802D2984200F2D08046461B1AA4B2FE
:10547000B3FBF7F007FB103344EA03440EFB00FED6
:10548000A64508D91CEB040400F1FF3302D2A6455F
:1054900000F2B6801846A4EB0E0440EA0640A5E7E9
:1054A000C1F120078B4022FA07FC4CEA030C06FAF4
:1054B00001FE20FA07F426FA07F344EA0E0400FA84
:1054C00001F84FEA1C404FEA1449B3FBF0FE1FFA03
:1054D0008CF600FB1E3349EA03430EFB06F999459F
:1054E00002FA01F20BD91CEB03030EF1FF3A80F034
:1054F0008580994540F28280AEF1020E6344A3EBB1
:105500000909A4B2B9FBF0F300FB139944EA09447A
:1055100003FB06F6A64208D91CEB040403F1FF3096
:1055200068D2A64266D9023B644443EA0E40A41BFB
:10553000A0FB02E6B4427346B14652D34FD05DB1F0
:10554000B8EB030264EB090404FA07F722FA01F34B
:105550001F43CC40C5E9007400214CE7C2F1200193
:1055600020FA01F30CFA02FC26FA01F196403343CB
:105570004FEA1C471FFA8CFEB1FBF7F007FB101631
:10558000190C41EA064100FB0EF68E4204FA02F4C1
:1055900008D91CEB010100F1FF382DD28E422BD926
:1055A00002386144891B9BB2B1FBF7F607FB161169
:1055B00043EA014306FB0EF1994208D91CEB0303B1
:1055C00006F1FF3814D2994212D9023E63445B1AA5
:1055D00046EA004136E73946EDE6184602E7F0456F
:1055E000ADD2BEEB020366EB0C060138B146A6E76E
:1055F0004646ECE7034698E74046D3E7D6467EE7C3
:105600006444023847E708460DE7023E63442DE74D
:10561000F8B500BFF8BC08BC9E467047F8B500BF9F
:08562000F8BC08BC9E4670476F
:105628004E31204F206425640A000000666E692B05
:1056380000000000666E69006E616E00666E692D7E
:105648000000000049444C4500000000546D7251B0
:1056580000000000546D72205376630000000000C3
:10566800000000000000F03F00000000000024409F
:1056780000000000000059400000000000408F407A
:10568800000000000088C34000000000006AF840E5
:105698000000000080842E4100000000D012634109
:1056A8000000000084D797410000000065CDCD417F
:1056B80000000000010203040000000000000000D8
:0C56C800010203040607080904000000AA
:0856D400BCAAFF7F01000000E9
:0456DC00950D000820
:0456E0006D0D000844
:1056E4000024F4000100000010000000AAAAAAAAE5
:040000050800522578
:00000001FF
