:020000040800F2
:1000000000000220A1620008051E0008071E00086B
:10001000091E00080B1E00080D1E0008000000004D
:10002000000000000000000000000000B15D0008BA
:100030000F1E000800000000515E0008B55E0008B9
:10004000F1620008F1620008F1620008F162000844
:10005000F1620008F1620008F1620008ED21000879
:10006000F1620008F1620008F1620008F162000824
:10007000F1620008F1620008F1620008F162000814
:10008000F1620008F1620008F1620008F162000804
:10009000F1620008F1620008F1620008F1620008F4
:1000A000F1620008F1620008F1620008F1620008E4
:1000B0006523000875230008F1620008F16200085A
:1000C000F1620008F1620008F1620008F1620008C4
:1000D000F1620008F162000891260008A1260008DC
:1000E000F1620008F1620008F1620008F1620008A4
:1000F000F1620008F1620008F1620008F162000894
:10010000F1620008F1620008F1620008F162000883
:10011000F1620008F1620008F1620008852300081E
:10012000F1620008F1620008F1620008F162000863
:10013000F1620008F1620008F1620008F162000853
:10014000F1620008F1620008F1620008F162000843
:10015000F1620008F1620008F1620008F162000833
:10016000F1620008F1620008F1620008F162000823
:10017000F1620008F1620008F1620008000000006E
:08018000F1620008F1620008C1
:10019000034613F8012B002AFBD1181A01387047C7
:1001A00081F0004102E000BF83F0004330B54FEA28
:1001B00041044FEA430594EA050F08BF90EA020F95
:1001C0001FBF54EA000C55EA020C7FEA645C7FEA28
:1001D000655C00F0E2804FEA5454D4EB5555B8BF4B
:1001E0006D420CDD2C4480EA020281EA030382EABC
:1001F000000083EA010180EA020281EA0303362D4E
:1002000088BF30BD11F0004F4FEA01314FF4801C20
:100210004CEA113102D0404261EB410113F0004F32
:100220004FEA03334CEA133302D0524263EB4303E9
:1002300094EA050F00F0A780A4F10104D5F1200E87
:100240000DDB02FA0EFC22FA05F2801841F10001E2
:1002500003FA0EF2801843FA05F359410EE0A5F1B6
:1002600020050EF1200E012A03FA0EFC28BF4CF0E7
:10027000020C43FA05F3C01851EBE37101F000459D
:1002800007D54FF0000EDCF1000C7EEB00006EEBAA
:100290000101B1F5801F1BD3B1F5001F0CD3490834
:1002A0005FEA30004FEA3C0C04F101044FEA44528B
:1002B00012F5800F80F09A80BCF1004F08BF5FEA12
:1002C000500C50F1000041EB045141EA050130BDF2
:1002D0005FEA4C0C404141EB0101013C28BFB1F504
:1002E000801FE9D291F0000F04BF01460020B1FA4F
:1002F00081F308BF2033A3F10B03B3F120020CDA22
:100300000C3208DD02F1140CC2F10C0201FA0CF0FF
:1003100021FA02F10CE002F11402D8BFC2F1200C64
:1003200001FA02F120FA0CFCDCBF41EA0C0190401A
:10033000E41AA2BF01EB0451294330BD6FEA040463
:100340001F3C1CDA0C340EDC04F11404C4F120024E
:1003500020FA04F001FA02F340EA030021FA04F360
:1003600045EA030130BDC4F10C04C4F1200220FAB7
:1003700002F001FA04F340EA0300294630BD21FAF5
:1003800004F0294630BD94F0000F83F4801306BFBB
:1003900081F480110134013D4EE77FEA645C18BFAF
:1003A0007FEA655C29D094EA050F08BF90EA020F46
:1003B00005D054EA000C04BF1946104630BD91EA3E
:1003C000030F1EBF0021002030BD5FEA545C05D141
:1003D0004000494128BF41F0004130BD14F5800480
:1003E0003CBF01F5801130BD01F0004545F0FE41F4
:1003F00041F470014FF0000030BD7FEA645C1ABF29
:10040000194610467FEA655C1CBF0B46024650EA5F
:10041000013406BF52EA033591EA030F41F400218B
:1004200030BD00BF90F0000F04BF0021704730B511
:100430004FF4806404F132044FF000054FF00001E6
:1004400050E700BF90F0000F04BF0021704730B5A7
:100450004FF4806404F1320410F0004548BF40427C
:100460004FF000013EE700BF42004FEAE2014FEAD1
:1004700031014FEA02701FBF12F07F4393F07F4FAC
:1004800081F06051704732F07F4208BF704793F0AF
:100490007F4F04BF41F40021704730B54FF46074C2
:1004A00001F0004521F000411CE700BF50EA0102C5
:1004B00008BF704730B54FF000050AE050EA01026E
:1004C00008BF704730B511F0004502D5404261EBDE
:1004D00041014FF4806404F132045FEA915C3FF41F
:1004E000D8AE4FF003025FEADC0C18BF03325FEABC
:1004F000DC0C18BF033202EBDC02C2F1200300FA6D
:1005000003FC20FA02F001FA03FE40EA0E0021FA91
:1005100002F11444BDE600BF70B54FF0FF0C4CF47F
:10052000E06C1CEA11541DBF1CEA135594EA0C0F31
:1005300095EA0C0F00F0DEF82C4481EA030621EA6C
:100540004C5123EA4C5350EA013518BF52EA0335A7
:1005500041F4801143F4801338D0A0FB02CE4FF059
:100560000005E1FB02E506F00042E0FB03E54FF089
:100570000006E1FB03569CF0000F18BF4EF0010E81
:10058000A4F1FF04B6F5007F64F5407404D25FEA7D
:100590004E0E6D4146EB060642EAC62141EA555130
:1005A0004FEAC52040EA5E504FEACE2EB4F1FD0C72
:1005B00088BFBCF5E06F1ED8BEF1004F08BF5FEAF0
:1005C000500E50F1000041EB045170BD06F00046A2
:1005D00046EA010140EA020081EA0301B4EB5C044F
:1005E000C2BFD4EB0C0541EA045170BD41F4801147
:1005F0004FF0000E013C00F3AB8014F1360FDEBF6C
:10060000002001F0004170BDC4F10004203C35DA47
:100610000C341BDC04F11404C4F1200500FA05F3CA
:1006200020FA04F001FA05F240EA020001F000426B
:1006300021F0004110EBD37021FA04F642EB0601E1
:100640005EEA430E08BF20EAD37070BDC4F10C040B
:10065000C4F1200500FA04F320FA05F001FA04F2CF
:1006600040EA020001F0004110EBD37041F10001BB
:100670005EEA430E08BF20EAD37070BDC4F12005C6
:1006800000FA05F24EEA020E20FA04F301FA05F22E
:1006900043EA020321FA04F001F0004121FA04F2D6
:1006A00020EA020000EBD3705EEA430E08BF20EAA6
:1006B000D37070BD94F0000F0FD101F000464000E0
:1006C00041EB010111F4801F08BF013CF7D041EA62
:1006D000060195F0000F18BF704703F00046520066
:1006E00043EB030313F4801F08BF013DF7D043EA37
:1006F0000603704794EA0C0F0CEA135518BF95EAED
:100700000C0F0CD050EA410618BF52EA4306D1D173
:1007100081EA030101F000414FF0000070BD50EA92
:10072000410606BF1046194652EA430619D094EA1C
:100730000C0F02D150EA013613D195EA0C0F05D106
:1007400052EA03361CBF104619460AD181EA03015A
:1007500001F0004141F0FE4141F470014FF0000012
:1007600070BD41F0FE4141F4780170BD70B54FF0AD
:10077000FF0C4CF4E06C1CEA11541DBF1CEA13552D
:1007800094EA0C0F95EA0C0F00F0A7F8A4EB05040F
:1007900081EA030E52EA03354FEA013100F0888006
:1007A0004FEA03334FF0805545EA131343EA1263CF
:1007B0004FEA022245EA111545EA10654FEA002684
:1007C0000EF000419D4208BF964244F1FD0404F53D
:1007D000407402D25B084FEA3202B61A65EB030599
:1007E0005B084FEA32024FF480104FF4002CB6EB56
:1007F000020E75EB030E22BFB61A754640EA0C00D6
:100800005B084FEA3202B6EB020E75EB030E22BF15
:10081000B61A754640EA5C005B084FEA3202B6EB56
:10082000020E75EB030E22BFB61A754640EA9C0015
:100830005B084FEA3202B6EB020E75EB030E22BFE5
:10084000B61A754640EADC0055EA060E18D04FEAA3
:10085000051545EA16754FEA06164FEAC30343EA43
:1008600052734FEAC2025FEA1C1CC0D111F4801F10
:100870000BD141EA00014FF000004FF0004CB6E709
:1008800011F4801F04BF01430020B4F1FD0C88BFA8
:10089000BCF5E06F3FF6AFAEB5EB030C04BFB6EBB3
:1008A000020C5FEA500C50F1000041EB045170BDA6
:1008B0000EF0004E4EEA113114EB5C04C2BFD4EBD3
:1008C0000C0541EA045170BD41F480114FF0000E57
:1008D000013C90E645EA060E8DE60CEA135594EAD3
:1008E0000C0F08BF95EA0C0F3FF43BAF94EA0C0FD6
:1008F0000AD150EA01347FF434AF95EA0C0F7FF44B
:1009000025AF104619462CE795EA0C0F06D152EA9E
:1009100003353FF4FDAE1046194622E750EA410682
:1009200018BF52EA43067FF4C5AE50EA41047FF493
:100930000DAF52EA43057FF4EBAE12E74FF0FF3CF8
:1009400006E000BF4FF0010C02E000BF4FF0010CC9
:100950004DF804CD4FEA410C7FEA6C5C4FEA430C42
:1009600018BF7FEA6C5C1BD001B050EA410C0CBF91
:1009700052EA430C91EA030F02BF90EA020F0020F3
:10098000704710F1000F91EA030F58BF994208BF5A
:1009900090422CBFD8176FEAE37040F00100704717
:1009A0004FEA410C7FEA6C5C02D150EA013C07D16E
:1009B0004FEA430C7FEA6C5CD6D152EA033CD3D0B9
:1009C0005DF8040B704700BF8446104662468C46B3
:1009D0001946634600E000BF01B5FFF7B7FF0028E6
:1009E00048BF10F1000F01BD4DF808EDFFF7F4FF0F
:1009F0000CBF012000205DF808FB00BF4DF808ED9A
:100A0000FFF7EAFF34BF012000205DF808FB00BFBC
:100A10004DF808EDFFF7E0FF94BF012000205DF8DE
:100A200008FB00BF4DF808EDFFF7CEFF94BF012093
:100A300000205DF808FB00BF4DF808EDFFF7C4FF8C
:100A400034BF012000205DF808FB00BF4FEA4102DF
:100A500012F5001215D211D56FF47873B3EB625210
:100A600012D94FEAC12343F0004343EA505311F037
:100A7000004F23FA02F018BF404270474FF00000C9
:100A8000704750EA013005D111F0004008BF6FF007
:100A9000004070474FF00000704700BF4A0011D27D
:100AA00012F5001211D20DD56FF47873B3EB6252C8
:100AB0000ED44FEAC12343F0004343EA505323FAD4
:100AC00002F070474FF00000704750EA013002D149
:100AD0004FF0FF3070474FF00000704753B94AB9EC
:100AE000002908BF00281CBF4FF0FF314FF0FF3036
:100AF00000F00CB8ADF1080C6DE904CE05F034FC43
:100B0000DDF804E0DDE9022304B07047704700BF60
:100B10000348044B834202D0034B03B1184770478C
:100B20003800002038000020000000000548064B77
:100B30001B1AD90F01EBA301491002D0034B03B1DB
:100B400018477047380000203800002000000000DF
:100B500010B5064C237843B9FFF7DAFF044B13B105
:100B60000448AFF300800123237010BD380000203B
:100B7000000000002466000808B5054B1BB10549BC
:100B80000548AFF30080BDE80840FFF7CFBF00BFC6
:100B9000000000003C0000202466000838B501F089
:100BA0007BFF01F0A3F901F03DF901F0EBFC01F04E
:100BB00023FB154B1B68154C20469847D4F8BC50B6
:100BC0004FF47A730F2201212046A847104B1B686F
:100BD000104C20469847D4F8BC5040F6B833142245
:100BE00002212046A8470C4B1B680C4C2046984716
:100BF000D4F8BC504FF4FA630F2203212046A847D3
:100C000004F09EF8002038BD306700082002002064
:100C100038670008380100203C67000854000020B5
:100C20009A4200D28854704770470146002008E07D
:100C300000EB8000531C0B60137803EB4003A3F11F
:100C400030000A681378303BDBB2092BF0D97047CB
:100C50002DE9F04F83B005460E4693461F46DDF85A
:100C600030A00D9CDDF838900F9B13F0030F19D1C5
:100C7000A0460192C84509D202F1010B3B4631461C
:100C80002020A84708F101085A46F3E7DDF804B030
:100C900008E0013C02F101083B4631461AF8040025
:100CA000A8474246002CF4D10F9B13F0020F03D14A
:100CB000104603B0BDE8F08FA2EB0B034B45F7D213
:100CC000541C3B4631462020A8472246F4E72DE934
:100CD000F04385B099460C9D0D9C9DF83880DDF859
:100CE00040E0119F129E16F0020F21D17FB116F045
:100CF000010F0CD0B8F1000F02D116F00C0F06D086
:100D0000013F04E04FF0300C05F804C00134744595
:100D100001D21F2CF6D916F0010F09D0BC4207D220
:100D20001F2C05D84FF0300C05F804C00134F2E751
:100D300016F0100F14D016F4806F04D11CB1744556
:100D400022D0BC4220D00F9B102B36D00F9B022B01
:100D50003ED01F2C0ED84FF0300C05F804C00134E3
:100D60001F2C07D8B8F1000F3AD04FF02D0C05F822
:100D700004C0013403960297019400954B46FFF797
:100D800067FF05B0BDE8F083B4F1010C13D00F9BF1
:100D9000102B0ED064460F9B102BD7D116F0200FCE
:100DA000D4D01F2CD2D84FF0580C05F804C0013411
:100DB000CFE7023CC7E76446C5E716F0200FEAD14B
:100DC0001F2CE8D84FF0780C05F804C00134C0E7B8
:100DD0001F2CCFD84FF0620C05F804C00134B8E7DF
:100DE00016F0040F05D04FF02B0C05F804C00134A9
:100DF000C0E716F0080FBDD04FF0200C05F804C076
:100E00000134B7E7F0B591B0169C189D1B9E0CB944
:100E100026F0100616F4806E16D064B34FF0000E64
:100E200012E00CF1300C5FFA8CFC0EF101070EF1B0
:100E3000400EEE440EF820CCB4FBF5FCAC421BD3C4
:100E40001F2F19D8BE466446B4FBF5FC05FB1C4CAD
:100E50005FFA8CFCBCF1090FE3D916F0200F08D023
:100E60004127BC445FFA8CFCACF10A0C5FFA8CFCA5
:100E7000DBE76127F5E7274606961A9C0594199C3F
:100E8000049403959DF85C400294019708AC00948B
:100E9000FFF71DFF11B0F0BD2DE9F04F95B009909F
:100EA0000A910B929846DDF878B0DDF87C90229D8F
:100EB000239F269E5BEA090201D126F0100616F454
:100EC00080641ED05BEA09022FD0002419E0303282
:100ED000D3B204F1010A04F150020DEB020404F84C
:100EE000203C2A463B4658464946FFF7F7FDAB45AE
:100EF00079EB07091BD3BAF11F0F18D85446834664
:100F000089462A463B4658464946FFF7E7FDD2B296
:100F1000092ADCD916F0200F05D041231344DBB297
:100F20000A3BDBB2D5E76123F8E74FF0000A0696EB
:100F3000259B0593249B049303959DF88030029391
:100F4000CDF804A00CAB009343460B9A0A9909987C
:100F5000FFF7BDFE15B0BDE8F08F000000000000F7
:100F60002DE9F04F2DED028B93B082460C4693464F
:100F70001D4657EC106B8DED080B32463B46304654
:100F80003946FFF731FD002800F009814FF0FF32AC
:100F9000B14B30463946FFF74FFD002840F0FF8047
:100FA0004FF0FF326FF4801330463946FFF726FDCD
:100FB000002840F0F48000220023DDE90867304675
:100FC0003946FFF71BFD002840F0FC809DED087BB3
:100FD0008DED067B209B13F48063119301D10623D2
:100FE0001E93DDE906010246C1F30A50C1F3130363
:100FF000904643F07F5949F44019A0F2FF30FFF7C3
:1010000021FA83A3D3E90023FFF786FA82A3D3E969
:101010000023FFF7CBF806460F4600228F4B4046D1
:101020004946FFF7C1F87EA3D3E90023FFF774FA1E
:1010300002460B4630463946FFF7B8F8FFF706FD83
:101040000646FFF7FFF98046894677A3D3E90023D8
:10105000FFF762FA0022824BFFF7A8F8FFF7F6FCD1
:10106000074673A3D3E9002340464946FFF754FAE5
:10107000804689463846FFF7E5F96FA3D3E9002398
:10108000FFF74AFA02460B4640464946FFF78CF8FE
:101090008046894602460B46FFF73EFACDE90C0131
:1010A00007F2FF3700210022CDE90A123B050B931E
:1010B00000230A9342464B4640464946FFF776F8DE
:1010C000CDE90E0142464B4600204FF08041FFF72C
:1010D0006BF8804689460022624BDDE90C01FFF780
:1010E00045FB0022604BFFF761F802460B46DDE945
:1010F0000C01FFF73BFB00225C4BFFF757F8024661
:101100000B46DDE90C01FFF731FB02460B4640467A
:101110004946FFF74BF802460B46DDE90E01FFF7A3
:1011200025FB0022524BFFF741F8DDE90A23FFF7C8
:10113000F3F98046894649EC188BDDE90623FFF771
:101140007BFC40B1013E0022474B40464946FFF739
:101150000DFB41EC180B06F16303C62B3BD80427AB
:10116000209B13F4006F40D035A3D3E90023DDE9C1
:10117000068940464946FFF755FC00283BD032A37C
:10118000D3E9002340464946FFF738FC002832D017
:101190001E9BB34221DD9E1B731E1E931FE0209BEE
:1011A00002931F9B01931E9B00939DED080B2B4602
:1011B0005A462146504600F0CBF813B0BDEC028BE6
:1011C000BDE8F08F9FED227B8DED067B069607F143
:1011D00000430793FEE60527C2E700231E93209BEA
:1011E00043F48063209300273E461F9B9F4241D2D9
:1011F000A3EB070840E01E9B002BF6D0119B002BB1
:10120000F3D01E9B013B1E93EFE700BFAFF30080BE
:10121000FB799F501344D33FB3C8608B288AC63FE5
:1012200061436F63A787D23F71A379094F930A4047
:101230001655B5BBB16B0240EF39FAFE422EE63FC0
:101240002D431CEBE2361A3F0000000080842E4143
:101250000000000000000000FFFFEF7F0000F83FEB
:101260000000E03F00002C40000024400000184037
:101270000000F03F4FF00008209B13F0020902D05D
:101280000FB14FF000083EB153EC182BDDE9060119
:10129000FFF76CFACDE9060100220023DDE9080121
:1012A000FFF7ACFB00283BD1209B23F400630293A3
:1012B000CDF804801E9B00939DED060B2B465A46ED
:1012C0002146504600F044F8002F3FF476AF209BB3
:1012D00013F0200F2CD04FF0450C00F101082B46E5
:1012E000024621466046D04786EAE672A2EBE672E5
:1012F00005230593013F0497002303930A230293D8
:10130000F30F019300922B46424621465046FFF7C9
:1013100079FDB9F1000F3FF450AF02461F9F10E076
:10132000DDE90601024601F10043CDE90623BBE7F2
:101330004FF0650CD1E7561C2B4621462020D047A4
:101340003246A2EB0B03BB42F5D3104635E700BF94
:101350002DE9F04F2DED028B93B005900891924648
:101360009B4659EC108B1E9D42464B4640464946D3
:10137000FFF73AFB002840D04FF0FF326FF48013A4
:1013800040464946FFF73AFB002845D14FF0FF326F
:10139000AD4B40464946FFF74FFB00284BD1A6A373
:1013A000D3E9002340464946FFF746FB00285AD1BF
:1013B000A3A3D3E9002340464946FFF71FFB0028BB
:1013C00051D10022002340464946FFF717FB002871
:1013D00057D100230993209B13F4806F5CD0002425
:1013E0001F2C5BD8092D59D904F148036B443022D6
:1013F00003F8202C013D0134F2E7209B03931F9B4F
:10140000029303230193914B00935B465246089944
:101410000598FFF71DFC07E1209B03931F9B029398
:10142000042301938A4B00935B4652460899059822
:10143000FFF70EFCF8E0209B13F004030FD0854A61
:101440007BB10423209903911F990291019300928B
:101450005B46524608990598FFF7FAFBE4E07E4A9E
:10146000EEE70323EEE7209B02931F9B0193009579
:1014700049EC108B5B46524608990598FFF770FDC2
:10148000D2E042464B4600200021FEF78DFE80460A
:101490008946012309939EE70625A0E74046494671
:1014A000FFF7D4FA0646FEF7CDFF02460B4640464C
:1014B0004946FEF779FE694B03EBC50393ED008BBC
:1014C00053EC182BFFF728F802460B46CDE906230C
:1014D000FFF7E4FA0746FEF7A5FF02460B46DDE9F3
:1014E0000601FEF761FE02460B46CDE90623002207
:1014F0005B4BFFF7A1FA08B301373846FEF792FFBE
:1015000002460B4651EC180BFFF782FA08B1013680
:1015100000270DBB3046FEF795FF02460B464046BE
:101520004946FEF741FE00224D4BFFF767FA0028BF
:1015300042D116F0010F3FD001363DE00022484B6A
:10154000DDE90601FFF75AFA0028E2D117B117F0DA
:10155000010FDED00137DCE71F2C17D8013D414BCE
:10156000A3FB0723DB08194603EB8303A7EB430325
:10157000621C303304F148000DEB000404F8203CF9
:10158000092F02D90F461446E6E714461F2C0AD845
:101590006B1E45B104F148026A44302102F8201C58
:1015A0001D460134F2E71F2C06D804F148036B44B2
:1015B0002E2203F8202C01341F2C17D82A4A82FB34
:1015C0000632F317C3EBA2031A4603EB8303A6EB21
:1015D0004303611C303304F148000DEB000404F8B0
:1015E000203C16460AB10C46E6E70C46209B03F069
:1015F0000303012B3AD01F2C09D8099B002B52D092
:1016000004F148036B442D2203F8202C0134209B65
:1016100003931F9B029301940AAB00935B465246CF
:1016200008990598FFF714FB13B0BDEC028BBDE8D9
:10163000F08F00BFAFF300800000000065CDCD410A
:101640000000000065CDCDC1FFFFEF7F4C660008B4
:10165000506600084066000848660008A866000852
:101660000000E03FCDCCCCCC676666661F9BB3B173
:10167000099B1BB9209B13F00C0F12D01F9B013B41
:101680001F93194606E004F148036B44302203F827
:10169000202C01348C42AED21F2CF4D9ABE71F9919
:1016A000F8E71F99F6E7209B13F0040F07D004F129
:1016B00048036B442B2203F8202C0134A7E7209B1E
:1016C00013F0080FA3D004F148036B44202203F861
:1016D000202C01349BE700BF2DE9F04F91B08046EC
:1016E00017460F938946002900F0478300260F9B79
:1016F0001878002800F04483252809D0741C3B4644
:1017000032464946C0470F9B01330F932646EEE70A
:1017100001330F9300251FE045F0010501320F92C0
:10172000012318E045F0020501320F92012312E077
:1017300045F0040501320F9201230CE045F0080545
:1017400001320F92012306E045F0100501320F929D
:10175000012300E000234BB30F9A1378203B102B9A
:10176000F8D801A151F823F03D17000855170008DB
:1017700055170008491700085517000855170008A5
:101780005517000855170008551700085517000889
:1017900055170008311700085517000825170008CD
:1017A0005517000855170008191700080B930F9BD1
:1017B0001A78A2F13003DBB2092B18D92A2A1BD0E0
:1017C000DDF82CB00F9B1A782E2A25D00F9A1378AB
:1017D000683B122B5CD8DFE803F0495BAC5B3B5BFA
:1017E0005B5B5B5B5B5B575B5B5B5B5BB1000FA851
:1017F000FFF71BFA8346E5E71A9B1A1D1A921B682E
:10180000002B04DB9B460F9B01330F93DAE745F077
:101810000205C3F1000BF6E745F480655A1C0F92F0
:101820005A78A2F13003DBB2092B0CD92A2ACDD188
:101830001A9B1A1D1A921C6824EAE4730B930F9BDF
:1018400001330F93C2E70FA8FFF7EFF90B90BDE745
:1018500045F48071531C0F9353786C2B01D00D46C7
:1018600016E045F4407502320F9211E045F0800118
:10187000531C0F935378682B01D00D4608E045F0B8
:10188000C00502320F9203E045F4807501320F92D9
:101890000F9B1878672856D82528C0F06482A0F1DD
:1018A0002503422B00F25F82DFE813F052025D0253
:1018B0005D025D025D025D025D025D025D025D0230
:1018C0005D025D025D025D025D025D025D025D0220
:1018D0005D025D025D025D025D025D025D025D0210
:1018E0005D025D025D025D025D025D0286016801CE
:1018F00086015D025D025D025D025D025D025D02C8
:101900005D025D025D025D025D025D025D025D02DF
:101910005D0271005D025D025D025D025D025D02BD
:101920005D025D025D027100AB017100860168011C
:10193000860145F4007501320F92A9E745F48075E0
:1019400001320F92A4E7782800F20D826928C0F0D6
:101950000A82A0F16902D2B20123934049F2410206
:10196000134214D113F0800F40F0D78113F4806F2D
:1019700000F0F9811A9B1A1D1A92D3F800A00B9B54
:10198000002B40F08C814FF0FF3253466DE16F2801
:101990000CD005D858283CD0622803D1022306E099
:1019A000782838D025F010050A2300E008235828AD
:1019B00033D0692803D0642801D025F00C0515F434
:1019C000806F01D025F00105692829D0642827D02F
:1019D00015F4007F40F0948015F4807F40F0AC80D7
:1019E00015F0400F00F0BD801A9A111D1A9112785F
:1019F0000595CDF810B00B99039102930023019344
:101A000000923B46324649464046FFF7FBF9064600
:101A100027E01023CBE71023C9E745F02005C8E7EE
:101A200015F4007F21D115F4807F42D115F0400FCD
:101A300058D01A9A111D1A91127882EAE271A1EB1C
:101A4000E2710595CDF810B00B9803900293D20F78
:101A5000019200913B46324649464046FFF7D2F993
:101A600006460F9B01330F9341E61A9A073222F084
:101A7000070202F108011A9151681268084600290C
:101A800013DB0895CDF81CB00B9C0694049300233F
:101A90000593C90F0291009201903B463246494698
:101AA0004046FFF7F9F90646DBE7524261EB410099
:101AB000E7E71A9A111D1A91126882EAE271A1EB06
:101AC000E2710595CDF810B00B9803900293D20FF8
:101AD000019200913B46324649464046FFF792F953
:101AE0000646BEE715F0800F05D01A9A111D1A910F
:101AF000B2F90020A1E71A9A111D1A9112689CE709
:101B00001A9A073222F0070202F108011A91089589
:101B1000CDF81CB00B990691002104930591029118
:101B2000D2E90023CDE900233B46324649464046F0
:101B3000FFF7B2F9064694E71A9A111D1A91059516
:101B4000CDF810B00B990391029300230193136811
:101B500000933B46324649464046FFF753F9064656
:101B60007FE715F0800F04D01A9A111D1A91128880
:101B70003EE71A9A111D1A91126839E7462818D0C3
:101B80001A9B073323F0070303F108021A9293ED1F
:101B9000000B0295CDF804B00B9B00933B463246F8
:101BA00049464046FFF7D4FB06460F9B01330F938F
:101BB0009DE545F02005E3E7672801D0472801D1DE
:101BC00045F40065452801D0472801D145F020059E
:101BD0001A9B073323F0070303F108021A9293EDCF
:101BE000000B0295CDF804B00B9B00933B463246A8
:101BF00049464046FFF7B4F906460F9B01330F9361
:101C000075E515F002051DD001241A98031D1A93DD
:101C100006F1010A3B46324649460078C047A5B95D
:101C20000F9B01330F93564661E502F1010A3B46D3
:101C300049462020C047234652465C1C9B45F4D8A9
:101C40001646E2E701233246F7E7524606E0561C05
:101C50003B4649462020C0472C463246651CA345DA
:101C6000F5D89246DCE701330A46197811B1511EC6
:101C7000002AF8D1A3EB0A0315F480620C9203D07A
:101C80000B9A934228BF134615F0020409D00D9415
:101C9000CDF838B00B9D32460C9E9B461FE00B9A48
:101CA00073E63246264606E0541C3B464946202051
:101CB000C0472B4622465D1C9B45F5D834462B4633
:101CC0000D94CDF838B00B9D0C9E9B4607E01D4649
:101CD0000AF1010A541C3B464946C04722469AF87D
:101CE000000020B1002EF3D06B1E002DEFD10D9C13
:101CF00016465B46DDF838B054B90F9B01330F939D
:101D0000F5E4551C3B4649462020C04723462A4659
:101D10005C1C9B45F5D81646EFE745F021051A9B5C
:101D20001A1D1A921B680595082204920B9A0392B9
:101D3000102202920022019200933B46324649460D
:101D40004046FFF75FF806460F9B01330F93CEE442
:101D5000741C3B46324649462520C0470F9B013341
:101D60000F932646C3E4741C3B4632464946C0479F
:101D70000F9B01330F932646B9E4DFF82080B5E4CA
:101D8000BE4208D37A1E3B4649460020C047304633
:101D900011B0BDE8F08F3246F5E700BF290C00080E
:101DA0000EB400B584B0014605AA52F8043B039274
:101DB00000924FF0FF320448FFF78EFC04B05DF84C
:101DC00004EB03B0704700BF210C000882B0002173
:101DD00000910B4B5A6C42F480425A645A6C02F4E4
:101DE00080420092009A01911A6C42F080521A646B
:101DF0001B6C03F080530193019B02B0704700BF3E
:101E000000380240FEE7FEE7FEE7FEE7FEE7704728
:101E1000034AD2F8883043F47003C2F88830704720
:101E200000ED00E0F0B58BB0002401942B4B1A6B51
:101E300042F080021A631A6B02F080020192019A4A
:101E400002941A6B42F001021A631A6B02F001024B
:101E50000292029A03941A6B42F002021A631A6BFE
:101E600002F002020392039A04941A6B42F00802F1
:101E70001A631B6B03F008030493049B05940694F8
:101E8000079408940994022605964FF48813069344
:101E90000127079705A9124800F0F8FE22460621FF
:101EA000072000F06DFE072000F07AFE05940694EE
:101EB0000794089409940B4D22464FF4805128460C
:101EC00000F0DAFF06974FF48053059307940896C5
:101ED00005A9284600F0DAFE0BB0F0BD003802403C
:101EE00000040240000C024072B6FEE700B595B057
:101EF0003022002108A804F0FCF900230393049386
:101F00000593069307930193204A116C41F0805189
:101F10001164126C02F080520192019A02931C4BE0
:101F20001A6842F480421A601B6803F480430293EB
:101F3000029B012308934FF48033099302220E92EF
:101F40004FF480030F9304231093A8211191129250
:101F5000139308A800F0AEFF98B90F230393022350
:101F60000493002305934FF4A05306934FF480533A
:101F70000793052103A801F007FA20B915B05DF811
:101F800004FBFFF7B1FFFFF7AFFF00BF00380240CF
:101F90000070004030B58DB02422002103A804F069
:101FA000A8F90025019502950E4C4FF0804323605F
:101FB0006560A5604FF0FF33E36025618023A36176
:101FC0000323039301230593099303A9204601F0FA
:101FD0003FFC0195029501A9204601F01BFD0DB0C3
:101FE00030BD00BFE803002030B58DB024220021B1
:101FF00003A804F07EF90025019502950D4C0E4BC7
:1020000023606560A5604FF6FF73E3602561802360
:10201000A3610323039301230593099303A9204696
:1020200001F016FC0195029501A9204601F0F2FC91
:102030000DB030BDA00300200004004030B583B0D7
:102040000025009501950B4C0B4B236053236360D7
:10205000A56042F20F73E3608023A361074801F09B
:10206000CBFB009501956946204601F0D3FC03B0F7
:1020700030BD00BF580300200010004010030020B6
:1020800030B583B00025009501950B4C0B4B2360B8
:1020900053236360A56040F2E733E3608023A361CC
:1020A000204601F0A9FB009501956946204601F004
:1020B000B1FC03B030BD00BF10030020001400408D
:1020C00010B582B0002301930368B3F1804F10D0A4
:1020D0001A4A934219D0019B4BB14FF0E0234FF0C5
:1020E0008052C3F8042DBFF34F8FBFF36F8F02B040
:1020F00010BD5B6A12494B60124B1B68D3F8E44079
:1021000001AAD3F8D000A047E5E75B6A0C4A138028
:1021100003F69F739BB241F63E72934203D90A4B7A
:102120001B6800225A62074B1B68D3F8E44001AADF
:102130000349D3F8D000A047CDE700BF000400401A
:1021400008030020C0050020A003002000B583B0D4
:102150000023019302680D4B9A420ED0019B4BB1B4
:102160004FF0E0234FF08052C3F8042DBFF34F8FA0
:10217000BFF36F8F03B05DF804FB054B1868D0F810
:10218000C83001AA03499847E8E700BF001400409F
:10219000C405002010670008022800D0704708B569
:1021A0000D4BB3F90020531E9BB240F2E6318B4237
:1021B0000AD80A4B1B684FF4A4725A624FF480513C
:1021C000074800F05FFE08BD064B9A42F6DA034B63
:1021D0001B68054A5A62F1E708030020A0030020AB
:1021E000000C024048F4FFFFA8F1FFFF08B50220F1
:1021F00000F052FE08BD000008B5FFF7CBFEFFF768
:10220000F3FEFFF71BFFFFF73BFF024B00221A8094
:102210005A6008BD0803002010B58AB0002305935A
:1022200006930793089309930368B3F1804F04D092
:102230002C4A93422BD00AB010BD0024019403F520
:102240000E331A6C42F001021A641A6C02F0010299
:102250000192019A02941A6B42F001021A631B6BFD
:1022600003F001030293029B0323059302230693C9
:102270000123099305A91C4800F008FD2246072107
:102280001C2000F07DFC1C2000F08AFCD3E7002419
:102290000394164B1A6C42F002021A641A6C02F094
:1022A00002020392039A04941A6B42F001021A6329
:1022B0001B6B03F001030493049BC02305930223CB
:1022C000069301220792099305A9074800F0DEFC56
:1022D000224607211D2000F053FC1D2000F060FC69
:1022E000A9E700BF0004004000000240003802409F
:1022F00000B583B00368184A934205D0174A934249
:1023000016D003B05DF804FB00220092144B196C48
:1023100041F0100119641B6C03F010030093009B43
:102320000821362000F02CFC362000F039FCE8E7CC
:10233000002201920A4B196C41F0200119641B6CB8
:1023400003F020030193019B0921372000F018FCC2
:10235000372000F025FCD4E70010004000140040B6
:102360000038024008B5024801F02BF908BD00BF53
:10237000E803002008B5024801F023F908BD00BFBA
:10238000A003002008B5024801F01BF908BD00BFFA
:102390001003002030B590F807E000220125114617
:1023A00002E04FF0FF350132964510DD835C2D2BA6
:1023B000F7D0303BDBB20EF1FF3CACEB020C064C2D
:1023C00054F82C4013FB04F3194409B2EBE711FB5A
:1023D00005F000B230BD00BF2067000808B50368F3
:1023E000114A934203D0114A93420ED008BD4FF4D4
:1023F000E133436000238360C36003610C224261C8
:102400008361C36101F034FCF0E74FF46123436062
:1024100000238360C36003610C2242618361C36156
:1024200001F026FCE2E700BF004400400048004005
:1024300000B583B0002301930368124A934211D080
:10244000114A934216D0019B4BB14FF0E0234FF05D
:102450008052C3F8042DBFF34F8FBFF36F8F03B0CB
:102460005DF804FB094B1868D0F8C83001AA084988
:102470009847E8E7074B1868D0F8C83001AA064922
:102480009847E0E70044004000480040D0050020A5
:102490001C670008600500201867000830B583B08D
:1024A0000023019302682D4B9A420DD0019B4BB142
:1024B0004FF0E0234FF08052C3F8042DBFF34F8F4D
:1024C000BFF36F8F03B030BD0446254B1B78254A00
:1024D0001370254A1278012A07D0532B34D00122D9
:1024E0001F49204601F0F7FDE0E7532B0ED00A2BE1
:1024F0000CD01E49CA798B54531CDBB2CB71042B10
:10250000EDD90023CB71184A1370E8E70A2BE6D106
:10251000164D2846FFF73EFF154B188015490880D9
:10252000154B1868022301AAD0F8CC0002F015F868
:10253000124B1868D0F8C83001AA114998470023F7
:10254000EB71094A1370CAE7084BDB7913B1074BEB
:102550000022DA71044B01221A70C0E700480040E3
:10256000240500203D0400203C0400203404002009
:102570003204002030040020CC050020D0050020CB
:102580001467000810B50648064B0360064C03F5B7
:1025900080632360FFF722FF2046FFF71FFF10BD77
:1025A00088040020004400404004002010B58AB098
:1025B00000230593069307930893099303682F4A12
:1025C000934204D02E4A93422CD00AB010BD00246E
:1025D00001942C4B1A6C42F400321A641A6C02F407
:1025E00000320192019A02941A6B42F001021A63BE
:1025F0001B6B03F001030293029B0C230593022340
:102600000693032308930723099305A91E4800F0A6
:102610003DFB22460921262000F0B2FA262000F0D8
:10262000BFFAD2E700240394164B1A6C42F48022BE
:102630001A641A6C02F480220392039A04941A6BAF
:1026400042F002021A631B6B03F002030493049B23
:102650004FF4406305930223069303230893072353
:10266000099305A9094800F011FB22460A212720F9
:1026700000F086FA272000F093FAA6E70044004015
:1026800000480040003802400000024000040240C0
:1026900008B5024801F0C2FB08BD00BF8804002055
:1026A00008B5024801F0BAFB08BD00BF4004002095
:1026B00038B505460C460846FDF76AFD82B221464C
:1026C000284601F005FB38BDD0F8D8300360002063
:1026D00070470B88022B06D9042B0AD1D0F8D830CA
:1026E0000360002070471BB20BB10120704702202D
:1026F000704702207047000010B504461149C0F829
:10270000D410114BC0F8DC30104BC0F8D830104B4F
:10271000C0F8E0300F4BC0F8E43003F093F90E4BF3
:102720001C600E4B1C600E4B1B68D3F8D430C4F8F1
:10273000CC3000220821012001F020FEC4F8D00096
:1027400010BD00BFC9260008D32600087D27000859
:102750006F27000865270008600500205C05002041
:10276000C005002008B5022301F0F7FE08BD08B53A
:102770000223002201F02DFE08BD00000B88022B71
:1027800046D02DE9F04786B00446052B0AD0012B30
:1027900040D101222049214801F09DFC012006B0D2
:1027A000BDE8F0871E4B1B6800221E49D3F8D400F9
:1027B00001F0FBFF08B90120F1E71A4BD3F82080A4
:1027C000D3F83890D3F83CA0D869FDF74DFE064603
:1027D0000F46154D5046FDF747FECDE9040148462A
:1027E000FDF742FECDE902014046FDF73DFECDE991
:1027F000000132463B460D492846FFF7D1FA2946EB
:102800000648FFF755FFD4F8DC3023600020C6E708
:10281000012070470220C2E7240500204004002068
:10282000C0050020D00400202805002058660008BC
:10283000D0F8DC30036000207047000010B50B8832
:10284000012B04D00446032B0ED002200BE01548C8
:1028500000F070FE3C21144801F061F83C2113485F
:1028600001F05DF8012010BD00221149D0F8D00020
:1028700001F09BFF30B1D4F8CC00D0F8A4300D4A61
:102880000B499847D4F8E0300A49D4F8D400984767
:10289000094B1B68D3F8C4300849094A10689847A7
:1028A0000120E0E710030020A0030020E80300203F
:1028B000B805002064050020C40500203467000826
:1028C0005C05002010B504461349C0F8D810134B1E
:1028D000C0F8DC30124BC0F8E030124BC0F8E430E6
:1028E00003F0B0F8A82003F027FCC4F8CC0003F0F4
:1028F00095F90D4B1C600D4B1C6000220821012036
:1029000001F03CFDC4F8D00000225421012001F068
:1029100035FDC4F8D40010BD312800083D2800085A
:102920003B29000831290008C4050020C00500200B
:1029300008B5022301F011FE08BD08B502230022EC
:1029400001F047FD08BDD0F8D43003600020704787
:102950000B88022B06D9042B0AD1D0F8D43003609F
:10296000002070471BB20BB1012070470220704756
:102970000220704710B504460E49C0F8D0100E4B27
:10298000C0F8D4300D4BC0F8D8300D4BC0F8DC3057
:102990000C4BC0F8E03003F055F80B4B1C600B4BB0
:1029A0001C6000220221012001F0E8FCC4F8CC00E8
:1029B00010BD00BF47290008E92900085129000877
:1029C000DB290008D1290008D0050020CC05002013
:1029D00008B5022301F0C1FD08BD08B5022300229D
:1029E00001F0F7FC08BD000038B50B88022B0BD9AD
:1029F0000446032B1FD100221049D0F8CC0001F06F
:102A0000D4FE28B9012002E01BB293B1012038BDE9
:102A10000B4D0A4BB3F900200A492846FFF7C0F9CD
:102A200029460948FFF744FED4F8D8302360002037
:102A3000EDE70220EBE70220E9E700BFC805002030
:102A4000D4050020746600088804002010B50446F0
:102A50000E4B1A784FF47A73B3FBF2F30C4A1068FA
:102A6000B0FBF3F000F0A0F868B90F2C01D90120F9
:102A70000AE0002221464FF0FF3000F081F8054BBC
:102A80001C60002000E0012010BD00BF04000020F9
:102A9000000000200800002008B50B4B1A6842F423
:102AA00000721A601A6842F480621A601A6842F46E
:102AB00080721A60032000F051F80F20FFF7C6FF64
:102AC000FFF784F9002008BD003C0240014B186864
:102AD000704700BFE4050020002807DB00F01F025C
:102AE000400901239340024A42F82030704700BF5A
:102AF00000E100E0002808DB0901C9B200F16040F4
:102B000000F5614080F80013704700F00F000901E4
:102B1000C9B2014B1954704714ED00E000B500F044
:102B20000700C0F1070CBCF1040F28BF4FF0040CE4
:102B3000031D062B0FD9C31E4FF0FF3E0EFA0CF0FB
:102B400021EA000199400EFA03FE22EA0E0241EA50
:102B500002005DF804FB0023EEE70000074AD3689B
:102B600023F4E0631B041B0C000200F4E060034349
:102B700043F0BF6343F40033D360704700ED00E0DF
:102B800010B50446054BD868C0F30220FFF7C6FF16
:102B900001462046FFF7AEFF10BD00BF00ED00E08C
:102BA00008B5FFF799FF08BD0138B0F1807F0BD25F
:102BB0004FF0E0235861054AF02182F823100020ED
:102BC000986107221A6170470120704700ED00E00C
:102BD00070B50446866DFFF779FF94F83530DBB2A7
:102BE000022B06D080236365002384F83430012053
:102BF00070BD05462268136823F01603136022682F
:102C0000536923F080035361236CE3B12268136896
:102C100023F0080313602268136823F00103136094
:102C200023681B6813F0010F11D0FFF74FFF431B00
:102C3000052BF5D920236365032084F83500002394
:102C400084F83430D4E7A36C002BDFD1E3E7E26DE6
:102C50003F239340B360012384F83530002084F88B
:102C60003400C5E790F83530DBB2022B03D0802367
:102C7000436501207047052380F8353002681368EA
:102C800023F00103136000207047000000230F2B86
:102C900000F2E98070B582B065E085684FEA430EC6
:102CA000032404FA0EF425EA0405CC6804FA0EF4B1
:102CB0002C438460446824EA02044A68C2F3001288
:102CC0009A40224342605CE0DC08083450F824203B
:102CD00003F00705AD004FF00F0E0EFA05FE22EAD5
:102CE0000E0E0A69AA4042EA0E0240F824205CE077
:102CF000072200E0002202FA0EF22A4302345A4D63
:102D000045F82420594A94686FEA0C0224EA0C051D
:102D10004E6816F4801F01D04CEA0405534CA560A0
:102D2000E46802EA04054E6816F4001F01D04CEA7C
:102D300004054E4CE560646802EA04054E6816F42A
:102D4000003F01D04CEA0405484C656024682240ED
:102D50004D6815F4803F01D04CEA0402434C2260D8
:102D600001330F2B7DD801229A400C6804EA020C33
:102D700032EA0404F4D14C6804F00304013C012C51
:102D80008BD94A6802F00302032A09D0C4685D00A7
:102D90000322AA4024EA02048A68AA402243C260AD
:102DA0004A6802F00302022A8ED004684FEA430EFA
:102DB000032202FA0EF224EA02044A6802F0030235
:102DC00002FA0EF2224302604A6812F4403FC7D072
:102DD00000220192264A546C44F480445464526C9C
:102DE00002F480420192019A9C08A51C1E4A52F8E6
:102DF000255003F0030E4FEA8E0E0F2202FA0EF258
:102E000025EA02051B4A90423FF474AF02F5806246
:102E100090421AD002F58062904218D002F580628A
:102E2000904216D002F58062904214D002F5806282
:102E3000904212D002F58062904210D002F580627A
:102E400090423FF455AF082255E7012253E7022292
:102E500051E703224FE704224DE705224BE7062204
:102E600049E702B070BD704700380140003C0140A6
:102E700000380240000002400AB181617047090435
:102E800081617047436901EA030221EA030141EAD3
:102E9000024181617047000008B5054B5B69034240
:102EA00000D108BD024B5861FFF776F9F9E700BF82
:102EB000003C0140002800F0E08170B582B004467B
:102EC000036813F0010F3BD09F4B9B6803F00C038A
:102ED000042B2CD09C4B9B6803F00C03082B21D0B7
:102EE0006368B3F5803F4FD0B3F5A02F52D0964B17
:102EF0001A6822F480321A601A6822F480221A605A
:102F00006368002B50D0FFF7E1FD05468E4B1B6830
:102F100013F4003F14D1FFF7D9FD401B6428F5D905
:102F20000320B1E1884B5B6813F4800FD8D0864B47
:102F30001B6813F4003F03D06368002B00F09F81EF
:102F4000236813F0020F54D07F4B9B6813F00C0FD3
:102F50003ED07D4B9B6803F00C03082B33D0E36815
:102F6000002B68D0794B01221A60FFF7AFFD0546B0
:102F7000754B1B6813F0020F54D1FFF7A7FD401BE0
:102F80000228F5D903207FE16F4A136843F48033A8
:102F90001360B5E76C4B1A6842F480221A601A6815
:102FA00042F480321A60ABE7FFF790FD0546664BAE
:102FB0001B6813F4003FC3D0FFF788FD401B642853
:102FC000F5D9032060E1604B5B6813F4800FC6D134
:102FD0005D4B1B6813F0020F03D0E368012B40F038
:102FE0005081594A136823F0F803216943EAC10369
:102FF0001360236813F0080F42D063696BB3534B1F
:103000000122C3F8802EFFF761FD05464E4B5B6F32
:1030100013F0020F34D1FFF759FD401B0228F5D9F8
:10302000032031E1484A136823F0F803216943EA99
:10303000C1031360DDE7454B00221A60FFF746FD30
:103040000546414B1B6813F0020FD2D0FFF73EFD3F
:10305000401B0228F5D9032016E13C4B0022C3F89F
:10306000802EFFF733FD0546374B5B6F13F0020FE1
:1030700006D0FFF72BFD401B0228F5D9032003E102
:10308000236813F0040F77D02F4B1B6C13F0805F75
:1030900033D1002301932C4B1A6C42F080521A64F6
:1030A0001B6C03F080530193019B0125284B1B6887
:1030B00013F4807F23D0A368012B34D0052B38D0A4
:1030C000214B1A6F22F001021A671A6F22F00402D4
:1030D0001A67A368002B3DD0FFF7F8FC06461A4B91
:1030E0001B6F13F0020F46D1FFF7F0FC801B41F27B
:1030F00088339842F3D90320C6E00025D6E7144A66
:10310000136843F480731360FFF7E0FC0646104B2E
:103110001B6813F4807FCED1FFF7D8FC801B0228F8
:10312000F5D90320B0E0084A136F43F00103136799
:10313000CFE7054B1A6F42F004021A671A6F42F08C
:1031400001021A67C5E700BF00380240000047428D
:1031500000700040FFF7BAFC0646524B1B6F13F09D
:10316000020F08D0FFF7B2FC801B41F2883398426F
:10317000F3D9032088E0EDB9A369002B00F0838028
:10318000484A926802F00C02082A51D0022B17D04C
:10319000454B00221A66FFF799FC0446414B1B6819
:1031A00013F0007F42D0FFF791FC001B0228F5D9F5
:1031B000032069E03B4A136C23F080531364DBE780
:1031C000394B00221A66FFF781FC0546354B1B6818
:1031D00013F0007F06D0FFF779FC401B0228F5D9D9
:1031E000032051E0E369226A1343626A43EA8213CF
:1031F000A26A5208013A43EA0243E26A43EA0263DE
:10320000284A5360284B01221A66FFF75FFC0446E8
:10321000244B1B6813F0007F06D1FFF757FC001BFF
:103220000228F5D903202FE000202DE000202BE01C
:10323000012B2BD01B4B5B6803F48001E2699142A8
:1032400026D103F03F02216A8A4223D1616A47F600
:10325000C0721A40B2EB811F1ED103F44031A26A42
:103260005208013AB1EB024F18D103F07063E26AE1
:10327000B3EB026F14D1002006E00120704701205B
:1032800002E0012000E0002002B070BD0120FBE759
:103290000120F9E70120F7E70120F5E70120F3E736
:1032A0000120F1E7003802400000474208B5334BE7
:1032B0009B6803F00C03042B5BD0082B5BD12F4BD6
:1032C0005A6802F03F025B6813F4800F2CD02B4B3E
:1032D0005868C0F388104FEA401CBCEB000C6EEB42
:1032E0000E0E4FEA8E1343EA9C634FEA8C11B1EB4A
:1032F0000C0163EB0E03DB0043EA5173C90011EBD1
:10330000000C43F10003590200234FEA4C2041EA2C
:10331000DC51FDF7E3FB194B5B68C3F30143013359
:103320005B00B0FBF3F008BD144B5868C0F3881085
:103330004FEA401CBCEB000C6EEB0E0E4FEA8E13F6
:1033400043EA9C634FEA8C11B1EB0C0163EB0E0373
:10335000DB0043EA5173C90011EB000C43F1000399
:10336000990200234FEA8C2041EA9C51FDF7B6FBFD
:10337000D1E70348D7E70348D5E700BF003802404C
:1033800000127A000024F400002800F09B8070B541
:103390000D4604464F4B1B6803F007038B4208D2CF
:1033A000CBB24C4A1370136803F007038B4240F012
:1033B0008B80236813F0020F17D013F0040F04D092
:1033C000454A936843F4E0539360236813F0080F71
:1033D00004D0414A936843F4604393603E4A936843
:1033E00023F0F003A1680B439360236813F0010FEF
:1033F00032D06368012B21D09A1E012A25D9364A82
:10340000126812F0020F61D033498A6822F0030279
:1034100013438B60FFF75AFB06462F4B9B6803F064
:103420000C036268B3EB820F16D0FFF74FFB801BD3
:1034300041F288339842F0D9032042E0264A1268CC
:1034400012F4003FE0D101203BE0234A126812F061
:10345000007FD9D1012034E01E4B1B6803F0070325
:10346000AB4207D9EAB21B4B1A701B6803F0070383
:10347000AB422DD1236813F0040F06D0164A93688F
:1034800023F4E053E1680B439360236813F0080FC3
:1034900007D0114A936823F46043216943EAC103CA
:1034A0009360FFF703FF0C4B9B68C3F303130B4AB6
:1034B000D35CD8400A4B18600A4B1868FFF7C6FA6D
:1034C000002070BD012070470120FAE70120F8E7D5
:1034D0000120F6E7003C0240003802400067000887
:1034E0000000002008000020014B1868704700BF52
:1034F0000000002008B5FFF7F7FF044B9B68C3F3FB
:103500008223034AD35CD84008BD00BF0038024084
:10351000F866000808B5FFF7E7FF044B9B68C3F3A4
:103520004233034AD35CD84008BD00BF0038024094
:10353000F866000890F83D30DBB2012B37D102234A
:1035400080F83D300268D36843F00103D36003681C
:10355000194A934220D0B3F1804F1DD0A2F57C428E
:10356000934219D002F58062934215D002F5806231
:10357000934211D002F5784293420DD002F5705279
:10358000934209D0A2F59432934205D01A6842F0D2
:1035900001021A60002070479A6802F00702062AAA
:1035A00007D01A6842F001021A600020704701201B
:1035B00070470020704700BF00000140704770470F
:1035C000704770B504460368DE681D6915F0020F88
:1035D00010D016F0020F0DD06FF002021A61012315
:1035E000037703689B6913F0030F5ED0FEF768FD55
:1035F0000023237715F0040F12D016F0040F0FD01C
:1036000023686FF004021A610223237723689B6901
:1036100013F4407F4FD02046FEF752FD002323775E
:1036200015F0080F12D016F0080F0FD023686FF0B6
:1036300008021A61042323772368DB6913F0030F60
:1036400040D02046FEF73CFD0023237715F0100FF5
:1036500012D016F0100F0FD023686FF010021A610D
:10366000082323772368DB6913F4407F31D0204699
:10367000FEF726FD0023237715F0010F02D016F088
:10368000010F2DD115F0800F02D016F0800F2FD131
:1036900015F0400F02D016F0400F31D115F0200F79
:1036A00002D016F0200F33D170BDFFF787FF204600
:1036B000FFF785FF9CE72046FFF780FF2046FFF7D6
:1036C0007EFFABE72046FFF779FF2046FFF777FF45
:1036D000BAE72046FFF772FF2046FFF770FFC9E701
:1036E00023686FF001021A612046FEF72FFDC9E73B
:1036F00023686FF080021A61204600F0D2F9C7E714
:1037000023686FF040021A612046FFF759FFC5E7B2
:1037100023686FF020021A61204600F0C1F9C3E768
:103720000368344A904212D0B0F1804F0FD0A2F516
:103730007C4290420BD002F58062904207D002F5A5
:103740008062904203D002F57842904203D123F088
:1037500070034A681343274A90422AD0B0F1804F41
:1037600027D0A2F57C42904223D002F5806290429D
:103770001FD002F5806290421BD002F57842904241
:1037800017D002F57052904213D002F58062904239
:103790000FD002F5806290420BD0A2F59832904291
:1037A00007D002F58062904203D002F58062904219
:1037B00003D123F44073CA68134323F080034A699A
:1037C000134303608B68C3620B688362094B9842A2
:1037D00003D003F58063984201D10B690363012391
:1037E0004361036913F0010F03D0036923F0010360
:1037F000036170470000014040B310B5044690F8E3
:103800003D30F3B1022384F83D30214651F8040BDA
:10381000FFF786FF012384F8463084F83E3084F8B1
:103820003F3084F8403084F8413084F8423084F8E6
:10383000433084F8443084F8453084F83D3000202B
:1038400010BD80F83C30FEF753FDDBE701207047E8
:10385000002853D0F8B50D46044690F83D30002BB3
:1038600047D0022384F83D302268936823F48043D4
:1038700023F007039360214651F8040BFFF750FF34
:1038800021688B688A690E6A2868184322F440729E
:1038900022F00302AB68AF6943EA0723134323F422
:1038A0007C4323F0FC03EA68EF6942EA07221A43EB
:1038B0002B6A1B032F6943EA0713134326F0AA065A
:1038C0006A686D6942EA05123243886021688B613B
:1038D00023681A62012384F8463084F83E3084F865
:1038E0003F3084F8423084F8433084F83D30002083
:1038F000F8BD80F83C30FEF78FFCB2E7012070473E
:1039000001F01F014FF0010C0CFA01FC036A23EADD
:103910000C030362036A8A4013430362704738B59D
:10392000044690F83E00C0B294F83F3094F842202C
:10393000D2B294F843C00D4609BB01285ED1012ADA
:103940005DD1022384F83E3084F84230002D39D016
:10395000042D48D0012200212068FFF7D1FF012269
:1039600004212068FFF7CCFF2268D36843F00203EC
:10397000D3602268D36843F00403D3602CE0DBB249
:103980005FFA8CFC042912D001283DD1012B36D1DD
:10399000012A3BD1BCF1010F3AD1022384F83E3019
:1039A00084F83F3084F8423084F84330CEE7012B6E
:1039B00026D1BCF1010F25D1022384F83F3084F8D1
:1039C0004330C3E7012200212068FFF799FF2268F6
:1039D000D36843F00203D3602268136843F0010305
:1039E000136000200BE0012204212068FFF788FF0C
:1039F0002268D36843F00403D360EDE7012038BDAB
:103A00000120FCE71846FAE70120F8E71846F6E738
:103A10001046F4E790F83C20012A3DD010B403464C
:103A2000012280F83C20022280F83D200268506884
:103A3000946820F0700C086840EA0C0050601A6826
:103A4000164882421AD0B2F1804F17D0A0F57C40C0
:103A5000824213D000F5806082420FD000F5806072
:103A600082420BD000F57840824207D000F57050BA
:103A7000824203D0A0F59430824204D124F0800425
:103A8000496821439160012283F83D20002083F89A
:103A90003C005DF8044B7047022070470000014075
:103AA00070477047026802F10C0353E8003F23F4AB
:103AB00090730C3242E800310029F3D1026802F120
:103AC000140353E8003F23F00103143242E80031AD
:103AD0000029F3D1036B012B05D0202380F842305D
:103AE000002303637047026802F10C0353E8003FB0
:103AF00023F010030C3242E800310029F3D1ECE747
:103B000090F84130DBB2212B01D00220704783684E
:103B1000B3F5805F17D0036A5A1C02621A780368F3
:103B20005A60C38C9BB2013B9BB2C3844BB9026801
:103B3000D36823F08003D3600268D36843F0400366
:103B4000D360002070470369002BE4D1036A1B880F
:103B50000268C3F308035360036A02330362E0E7B9
:103B600010B504460268136923F44053C1680B433F
:103B70001361836802691A4343691A43C3691A438C
:103B80000168CB6823F4164323F00C031343CB6086
:103B90000268536923F4407381690B4353610368DE
:103BA000314A934206D002F58062934202D0FFF779
:103BB000A1FC01E0FFF7AEFCE369B3F5004F29D0AB
:103BC0000021031849411B1841F10001C90041EAD5
:103BD0005371DB00181863684FEA83024FEA93734E
:103BE00041F10001FCF77AFF204AA2FB00314909AC
:103BF000642303FB11031B013233A2FB03235B0984
:103C000003F0F00202EB011203F00F0321681344EA
:103C10008B6010BD0023021843EB0301121841F121
:103C20000001C90041EA5271D200101841F10001AF
:103C3000626892185B41FCF751FF0C4AA2FB00310D
:103C40004909642303FB1103DB003233A2FB032386
:103C50005B095A0002F4F87202EB011203F0070349
:103C6000216813448B60D4E7001001401F85EB519D
:103C700060B310B5044690F8413013B3242384F8A0
:103C800041302268D36823F40053D3602046FFF705
:103C900067FF2268136923F4904313612268536914
:103CA00023F02A0353612268D36843F40053D3609E
:103CB00000206064202384F8413084F8423060633F
:103CC00010BD80F84030FEF771FCD7E70120704747
:103CD00090F84130DBB2202B10D189B192B1016252
:103CE0008284C28400234364212280F84120016839
:103CF000CA6842F08002CA601846704702207047C6
:103D0000012070470120704708B50168CA6822F099
:103D10004002CA60202280F84120FEF789FB002083
:103D200008BD704708B5806B0023C385C384FFF7C7
:103D3000F8FF08BD704790F84230DBB2222B69D102
:103D40008368B3F5805F4FD0826AB3F5805F04D09B
:103D5000002B56D10369002B53D103685B681370A5
:103D6000836A01338362C38D9BB2013B9BB2C385DF
:103D7000002B51D100B583B00268D36823F0200333
:103D8000D3600268D36823F48073D36002685369F8
:103D900023F001035361202380F842300023436362
:103DA000036B012B33D100230363026802F10C0380
:103DB00053E8003F23F010030C3242E800310029A1
:103DC000F3D103681A6812F0100F06D00022019296
:103DD0001A6801925B680193019B818DFFF7AAFF2E
:103DE000002003B05DF804FB0269002AACD1826AAE
:103DF00003685B68C3F308031380836A023383623A
:103E0000B1E703685B6803F07F031370A8E7FEF770
:103E100045FBE5E7022070470020704710B582B0EF
:103E2000044602681368D068516913F00F0F09D176
:103E300013F0200F0CD010F0200F09D02046FFF710
:103E40007AFF16E011F0010115D110F4907F12D124
:103E5000216B012979D013F0800F03D010F0800F6F
:103E600040F0148113F0400F03D010F0400F40F0E9
:103E7000118102B010BD13F0010F06D010F4807F45
:103E800003D0626C42F00102626413F0040F04D0AC
:103E900019B1626C42F00202626413F0020F04D0A6
:103EA00019B1626C42F00402626413F0080F07D08B
:103EB00010F0200F00D119B1626C42F00802626468
:103EC000626C002AD5D013F0200F02D010F0200F22
:103ED00029D123685B6903F04003626C12F0080F7C
:103EE00000D163B32046FFF7DDFD23685B6913F063
:103EF000400F20D0226802F1140353E8003F23F062
:103F00004003143242E800310029F3D1E36B73B16E
:103F1000624A1A65E06BFEF7A5FE0028A9D0E06BA7
:103F2000036D9847A5E72046FFF705FFD1E7204638
:103F3000FFF7F7FE9DE72046FFF7F3FE99E72046DF
:103F4000FFF7EFFE0023636493E713F0100F82D0B6
:103F500010F0100F3FF47FAF00230193136801931B
:103F600053680193019B536913F0400F52D0E26BE9
:103F700013685B689BB2002B3FF47BAFA18D994225
:103F80007FF677AFE385D369B3F5807F37D02268BA
:103F900002F10C0353E8003F23F480730C3242E833
:103FA00000310029F3D1226802F1140353E8003FE5
:103FB00023F00103143242E800310029F3D12268D2
:103FC00002F1140353E8003F23F04003143242E8A7
:103FD00000310029F3D1202384F8423000232363E9
:103FE000226802F10C0353E8003F23F010030C3267
:103FF00042E800310029F3D1E06BFEF7E9FD02232E
:104000006363A18DE38D9BB2C91A89B22046FFF785
:1040100091FE2EE7A18DE38D9BB2C91A89B2E38D83
:104020009BB2002B3FF425AF00293FF422AF22685A
:1040300002F10C0353E8003F23F490730C3242E882
:1040400000300028F3D1226802F1140353E8003F46
:1040500023F00103143242E800300028F3D120237A
:1040600084F8423000232363226802F10C0353E8F2
:10407000003F23F010030C3242E800300028F3D157
:10408000022363632046FFF755FEF2E62046FFF762
:1040900037FDEEE62046FFF737FEEAE6253D00084D
:1040A00081628285C28500234364222380F84230E6
:1040B000036923B10268D36843F48073D360026854
:1040C000536943F0010353610268D36843F020034E
:1040D000D3600020704708B590F84230DBB2202B47
:1040E00008D149B10AB9012008BD00230363FFF7D5
:1040F000D7FFF9E70220F7E70120F5E700F1080311
:1041000043604FF0FF328260C360036100230360AD
:10411000704700230361704730B40D68B5F1FF3F6D
:1041200011D000F108031C465B681A68AA42FAD94C
:1041300063684B6099608C6061600861036801335B
:10414000036030BC70470469F2E703694168826824
:104150008A60416851605A68824206D0002202613A
:104160001A68013A1A601868704782685A60F5E761
:1041700010B5044601F02EFEA26BE36B9A4204D008
:10418000002401F049FE204610BD0124F9E710B5D6
:10419000044601F01FFEA36B23B9012401F03CFE8D
:1041A000204610BD0024F9E770B504461546866B1D
:1041B000026C5AB903681BB100200136A66370BDBA
:1041C000806801F0E5F80023A360F6E76DB9406868
:1041D00002F0BCF86368226C13446360A2689342E7
:1041E00019D3236863602846E7E7C06802F0AEF899
:1041F000E368226C51429B1AE3602268934202D228
:10420000A3680B44E360022D01D00020D5E726B15E
:10421000013E0020D1E72846CFE70020CDE7034646
:10422000026C6AB110B50846D9681144D9609C681F
:10423000A14201D31968D960D96802F087F810BD8E
:10424000704738B5054601F0C5FD95F8454064B2A4
:1042500001E0013C64B2002C0ADD6B6A43B105F158
:10426000240000F0B7FF0028F3D001F07BF8F0E75E
:10427000FF2385F8453001F0CFFD01F0ABFD95F847
:10428000444064B201E0013C64B2002C0ADD2B69B9
:1042900043B105F1100000F09DFF0028F3D001F0BC
:1042A00061F8F0E7FF2385F8443001F0B5FD38BD33
:1042B00038B590B10D460446C36B2BB1026C00219A
:1042C000A2FB032393B999B14FF0500383F31188F4
:1042D000BFF36F8FBFF34F8FFEE74FF0500383F3B1
:1042E0001188BFF36F8FBFF34F8FFEE70121EAE71D
:1042F00001F070FD2368E26B216C01FB0230A060CD
:104300000020A0636360013A02FB0133E360FF23F6
:1043100084F8443084F84530B5B923691BB901F0FD
:104320007BFD012038BD04F1100000F053FF002890
:10433000F5D04FF0E0234FF08052C3F8042DBFF3C7
:104340004F8FBFF36F8FEAE704F11000FFF7D6FE3F
:1043500004F12400FFF7D2FEE1E738B51D46049CC6
:104360000B4649B92460E063236401212046FFF72E
:104370009FFF84F84C5038BD2260F4E7F0B583B05D
:1043800060B10C46174605460023A4FB001272B923
:1043900023B904FB05F010F1510F0AD94FF0500377
:1043A00083F31188BFF36F8FBFF34F8FFEE70123B5
:1043B000EEE7503001F0C0FE064638B100903B46B3
:1043C00000F1500221462846FFF7C7FF304603B0F0
:1043D000F0BDF0B585B0019288B10F461D46044688
:1043E000B1B1022D20D1E36B012B1DD04FF0500352
:1043F00083F31188BFF36F8FBFF34F8FFEE74FF04A
:10440000500383F31188BFF36F8FBFF34F8FFEE725
:10441000036C002BE5D04FF0500383F31188BFF3FA
:104420006F8FBFF34F8FFEE700F0A2FF064658B92B
:10443000019B002B48D04FF0500383F31188BFF34A
:104440006F8FBFF34F8FFEE700263DE02A463946C7
:104450002046FFF7A9FE636A7BB948B14FF0E0231D
:104460004FF08052C3F8042DBFF34F8FBFF36F8F0F
:1044700001F0D2FC012005B0F0BD04F1240000F0F1
:10448000A9FE0028F4D04FF0E0234FF08052C3F88B
:10449000042DBFF34F8FBFF36F8FE9E701F0BCFC32
:1044A0000020E8E702A800F00DFF012619E0002334
:1044B00084F8443021E0002384F8453023E020468E
:1044C000FFF7BFFE00F052FD01F084FCA26BE36B2E
:1044D0009A42BBD3022DB9D0019B002BDED0002E17
:1044E000E0D001F099FC00F071FC01F073FC94F84D
:1044F000442052B2B2F1FF3FD9D094F8452052B2D5
:10450000B2F1FF3FD7D001F087FC01A902A800F06B
:10451000E5FED8B92046FFF72BFE0028CFD0019941
:1045200004F1100000F014FE2046FFF78AFE00F0B0
:104530001DFD0028C8D14FF0E0234FF08052C3F892
:10454000042DBFF34F8FBFF36F8FBDE72046FFF7FA
:1045500078FE00F00BFD00208DE72DE9F84390B1C7
:104560000F4616461C460546B1B1022C20D1EB6B16
:10457000012B1DD04FF0500383F31188BFF36F8FD1
:10458000BFF34F8FFEE74FF0500383F31188BFF363
:104590006F8FBFF34F8FFEE7036C002BE5D04FF01A
:1045A000500383F31188BFF36F8FBFF34F8FFEE784
:1045B00001F036FDEFF311884FF0500383F31188BB
:1045C000BFF36F8FBFF34F8FAA6BEB6B9A4206D38B
:1045D000022C04D0002088F31188BDE8F88395F8F8
:1045E00045904FFA89F9AB6B224639462846FFF7CA
:1045F000DBFDB9F1FF3F0CD16B6A0BB90120EAE793
:1046000005F1240000F0E6FDD0B1DEB101203060FC
:10461000E1E700F0E9FB814516D2B9F17F0F06D042
:1046200009F101035BB285F845300120D3E74FF073
:10463000500383F31188BFF36F8FBFF34F8FFEE7F3
:104640000120C8E70120C6E70120C4E7F0B585B026
:10465000019290B10F460446C1B100F089FE0646B2
:1046600000BB019B002B5ED04FF0500383F31188F9
:10467000BFF36F8FBFF34F8FFEE74FF0500383F30D
:104680001188BFF36F8FBFF34F8FFEE7036C002BD2
:10469000E3D04FF0500383F31188BFF36F8FBFF364
:1046A0004F8FFEE700263EE039462046FFF7B7FD74
:1046B000013DA563236923B901F0AEFB012005B0DC
:1046C000F0BD04F1100000F085FD0028F4D04FF09B
:1046D000E0234FF08052C3F8042DBFF34F8FBFF398
:1046E0006F8FE9E701F098FB0020E8E702A800F0EF
:1046F000E9FD012621E0002384F8443029E000236D
:1047000084F845302BE02046FFF79BFD00F02EFC9F
:1047100009E02046FFF795FD00F028FC2046FFF752
:1047200036FD00283FD101F055FBA56B002DBBD114
:10473000019B002BD6D0002ED8D001F06DFB00F0ED
:1047400045FB01F047FB94F844305BB2B3F1FF3F07
:10475000D1D094F845305BB2B3F1FF3FCFD001F038
:104760005BFB01A902A800F0B9FD0028D1D12046C9
:10477000FFF70DFD0028C6D0019904F1240000F0D8
:10478000E7FC2046FFF75DFD00F0F0FB0028CAD1F2
:104790004FF0E0234FF08052C3F8042DBFF34F8F4A
:1047A000BFF36F8FBFE7002089E770B584B0019237
:1047B00090B10E460446C1B100F0DAFD054600BBDB
:1047C000019B002B5ED04FF0500383F31188BFF3A1
:1047D0006F8FBFF34F8FFEE74FF0500383F31188C5
:1047E000BFF36F8FBFF34F8FFEE7036C002BE3D057
:1047F0004FF0500383F31188BFF36F8FBFF34F8FD8
:10480000FEE700253EE0E56831462046FFF707FD5C
:10481000E560636A23B901F0FFFA012004B070BDBE
:1048200004F1240000F0D6FC0028F4D04FF0E0237F
:104830004FF08052C3F8042DBFF34F8FBFF36F8F3B
:10484000E9E701F0E9FA0020E8E702A800F03AFD04
:10485000012521E0002384F8443029E0002384F876
:1048600045302BE02046FFF7ECFC00F07FFB09E031
:104870002046FFF7E6FC00F079FB2046FFF787FCB7
:1048800000283FD101F0A6FAA36B002BBBD1019BFE
:10489000002BD6D0002DD8D001F0BEFA00F096FA49
:1048A00001F098FA94F844305BB2B3F1FF3FD1D0F5
:1048B00094F845305BB2B3F1FF3FCFD001F0ACFAD2
:1048C00001A902A800F00AFD0028D1D12046FFF777
:1048D0005EFC0028C6D0019904F1240000F038FCE9
:1048E0002046FFF7AEFC00F041FB0028CAD14FF094
:1048F000E0234FF08052C3F8042DBFF34F8FBFF376
:104900006F8FBFE7002089E728B110B4044631B3A8
:10491000002003460DE04FF0500383F31188BFF3EE
:104920006F8FBFF34F8FFEE70E4800EBC30014E01C
:104930000133072B10D80B4A02EBC3025268A24284
:10494000F2D00028F4D1074A52F83320002AEFD1E0
:10495000044800EBC300EBE708B1016044605DF878
:10496000044B7047E805002070B504460D46164616
:1049700001F030FA94F844305BB2B3F1FF3F0DD050
:1049800094F845305BB2B3F1FF3F0BD001F044FA2D
:10499000A36B5BB12046FFF754FC70BD002384F885
:1049A0004430EDE7002384F84530EFE732462946EE
:1049B00004F1240000F0E4FBECE70000074B1B6867
:1049C0001B6823B9064B4FF0FF321A607047034B48
:1049D0001B68DB681A68024B1A6070479806002053
:1049E0003006002010B50446006B01F01FFC204685
:1049F00001F01CFC10BD2DE9F84380460D4616461B
:104A00009946089F0A9C9200A521206B01F071FC39
:104A1000226B06F18043013B02EB830222F0070682
:104A200065B10022092A06D8AB5CA11881F83430A0
:104A30000BB10132F6E7002384F83D30042F08D98A
:104A40004FF0500383F31188BFF36F8FBFF34F8F85
:104A5000FEE7E762A764201DFFF75BFB04F1180087
:104A6000FFF757FB2461C7F10507A76164624A4657
:104A70004146304601F080F92060099B03B11C607B
:104A8000BDE8F88338B5002407E004EB8402930006
:104A90000E481844FFF732FB0134042CF5D90C4DB5
:104AA0002846FFF72BFB0B4C2046FFF727FB0A4855
:104AB000FFF724FB0948FFF721FB0948FFF71EFB1E
:104AC000084B1D60084B1C6038BD00BFC4060020A9
:104AD000B00600209C060020800600206C06002006
:104AE00054060020980600209406002010B50446C5
:104AF00001F070F9294A136801331360284B1B68D1
:104B00005BB1284B1B686BB9254B1B68DA6AE36AFB
:104B10009A4207D8224B1C6004E0214B1C601368AA
:104B2000012B37D0204A1368013313602364E36AF2
:104B300001229A401D49086802430A601C4A03EB9F
:104B4000830302EB83035B68A3609868E060211D28
:104B500041609960E36A03EB8301880002EB810105
:104B6000616111580131115001F056F90D4B1B686C
:104B70007BB10B4B1B68DA6AE36A9A4209D24FF0A9
:104B8000E0234FF08052C3F8042DBFF34F8FBFF3E3
:104B90006F8F10BDFFF776FFC4E700BF50060020FF
:104BA0002807002044060020340600204806002084
:104BB000C40600200F4B1B68D3B110B501F00AF9F1
:104BC0000D4BDB68DC68201DFFF7BFFA0B4A13684A
:104BD000013B1360074A1368013B136001F01CF9A5
:104BE0002046FFF7FFFE034B1B68002BE6D110BDEC
:104BF000704700BF680600206C06002050060020A9
:104C000008B5FFF7D7FF074B1B68012BF9D94FF009
:104C1000E0234FF08052C3F8042DBFF34F8FBFF352
:104C20006F8FEEE7C406002070B504460D46234B97
:104C30001E68234B18680430FFF787FA48B9204BE9
:104C40001B68DB6A01229A401E490B6823EA0203B3
:104C50000B60B4F1FF3F0DD03444194B1B685C600E
:104C6000A6421DD9184B1868154B19680431FFF777
:104C700053FA70BD002DEFD0144A5168104B1868DC
:104C8000816018688C68C4601868043060601868B7
:104C9000043088601B685A61136801331360E8E7C9
:104CA0000B4B1868064B19680431FFF735FA094BAE
:104CB0001B68A342DDD9074B1C60DAE74C060020D5
:104CC00028070020480600209406002054060020F3
:104CD00098060020300600202DE9F04385B00746F5
:104CE000884614461E46900001F026FA18B3814605
:104CF000582001F021FA0546B8B15822002101F0F0
:104D0000F8FAC5F830900023039302950D9B0193A8
:104D10000C9B00933346224641463846FFF76BFE14
:104D20002846FFF7E3FE012007E0484601F07EFA3F
:104D30004FF0FF3001E04FF0FF3005B0BDE8F083E9
:104D400000B583B01A4B01930023009382221949C6
:104D50001948FFF7C1FF012807D0B0F1FF3F1DD070
:104D6000164B1B6803B05DF804FB00F0F1FC012852
:104D7000F3D14FF0500383F31188BFF36F8FBFF36C
:104D80004F8F0F4B4FF0FF321A600E4B01221A600B
:104D90000D4B00221A6001F0B7F8E1E74FF0500325
:104DA00083F31188BFF36F8FBFF34F8FFEE700BF10
:104DB0002C06002080660008014C000840670008AF
:104DC00030060020440600204C060020024A1368EA
:104DD00001331360704700BF28060020014B18689C
:104DE000704700BF4C060020014B1868704700BF99
:104DF00050060020F8B5524B1B68002B40F09980FC
:104E0000504B1C6801341C60C4B94F4B1B681B68B5
:104E100043B14FF0500383F31188BFF36F8FBFF39B
:104E20004F8FFEE7484A1168484B186810601960B8
:104E3000474A136801331360FFF7C0FD454B1B68F9
:104E4000A34211D90020444B1B68DB6A03EB8303A8
:104E50009A00424B9B58012B00D90120404B1B6804
:104E6000002B6BD0012069E0002037E0394B4FF078
:104E7000FF321A60E7E7374B1A60E4E7D968516000
:104E800042E000219962116801391160DA6A01215A
:104E90009140344E376839433160304902EB820229
:104EA0004FEA820C8C44DCF804209A609668DE603D
:104EB00075609560DA6A02EB820C4FEA8C056E1819
:104EC0005E614D5901354FEA8C0C41F80C50DA6A9D
:104ED000214B1B68DB6A9A4200D901201A4B1B68E0
:104EE0001B68002BC2D0184B1B68DB68DB685A6854
:104EF0009442C0D35A699D68D968A9609D684D6085
:104F000051681D1DA942B9D00021596111680139AC
:104F100011609A6A002AB9D0DE69196AB160DE6947
:104F20004E60566803F118018E42AAD1196A516089
:104F3000A7E70D4A1368013313600020F8BD00BFD6
:104F4000280600204C060020980600209406002029
:104F5000380600203006002028070020C406002064
:104F60003C060020480600204006002038B54A4B89
:104F70001B6843B94FF0500383F31188BFF36F8F61
:104F8000BFF34F8FFEE700F025FF434B1A68013A4D
:104F90001A601B68002B7AD1404B1B683BB9002478
:104FA00076E0196A516015E0D968516021E000236C
:104FB0003B4A1268002A47D0394BDB68DB689A6AA3
:104FC000D869196A8160D8694860506803F118018E
:104FD0008842E6D0002199621168013911605A694E
:104FE0009868D9688160986848605168181D814246
:104FF000DAD000215961116801391160DA6A0121A2
:105000009140284C256829432160274902EB820200
:1050100001EB820252689A609468DC606060906084
:10502000DA6A02EB8200840001EB800058610859C3
:1050300001300851D96A1D4A1268D26A9142B7D329
:105040001B4A01211160B3E70BB1FFF7B7FC194B05
:105050001C6884B9164B1C68D4B14FF0E0234FF0A4
:105060008052C3F8042DBFF34F8FBFF36F8F01241D
:105070000EE0013C07D0FFF7BDFE0028F9D00C4B35
:1050800001221A60F5E70B4B00221A60E2E70024C8
:1050900000F0C2FE204638BD280600205006002041
:1050A0008006002048060020C406002028070020B3
:1050B0003C06002040060020204B1B681BB1204B03
:1050C00001221A6070471E4B00221A601D4B1B689C
:1050D000B3FA83F3DBB2C3F11F0303EB83018A004E
:1050E00019498A5842B94FF0500383F31188BFF32E
:1050F0006F8FBFF34F8FFEE7134803EB83018A00E6
:10510000024451684968516003EB830C4FEA8C02FA
:1051100008320244914209D003EB83039A000A4B00
:1051200013445B68DA68094B1A6070474868624646
:105130009100054A0A445060EEE700BF28060020AF
:105140003C06002048060020C40600202807002056
:1051500058B110B50C46094A11681831FEF7DCFF4A
:1051600001212046FFF760FD10BD4FF0500383F38F
:105170001188BFF36F8FBFF34F8FFEE72807002022
:1051800038B5D8B18C46114605464268104B1868B0
:10519000C261186894680462186818306060186802
:1051A000183090601B689D622B6801332B6009B139
:1051B0004FF0FF3C6046FFF737FD38BD4FF050031E
:1051C00083F31188BFF36F8FBFF34F8FFEE700BFEC
:1051D00028070020C368DB68002B4AD030B49A6AE5
:1051E000D869196A8160D8694860516803F118006C
:1051F000814247D0002199621168013911602B4A20
:105200001268002A44D15A699868D9688160986800
:1052100048605168181D814237D0002159611168DA
:1052200001391160DA6A01219140214C2568294336
:105230002160204902EB820201EB820252689A60EF
:105240009468DC6060609060DA6A02EB820084003F
:1052500001EB80005861085901300851DA6A164B99
:105260001B68DB6A9A421FD90120144B186030BCBE
:1052700070474FF0500383F31188BFF36F8FBFF374
:105280004F8FFEE7196A5160B4E7D9685160C4E7EF
:105290000B4A5168D9618C681C62606088609A62B0
:1052A000116801311160D9E70020E0E728060020ED
:1052B00048060020C4060020280700203C060020E5
:1052C00080060020034B1B680360034B1B68436090
:1052D000704700BF380600204C060020F8B5B8B172
:1052E0000C460546E9B100F075FD1C4B19686B686A
:1052F000C81A2268B2F1FF3F2AD0194E36682F68CB
:10530000B74217D08B4215D800232360012420E038
:105310004FF0500383F31188BFF36F8FBFF34F8FAC
:10532000FEE74FF0500383F31188BFF36F8FBFF395
:105330004F8FFEE7824203D800232360012408E058
:105340005B1A134423602846FFF7BCFF002400E0EB
:10535000002400F061FD2046F8BD00BF4C0600208F
:1053600038060020014B01221A6070473C060020DD
:10537000054B1B6833B1054B1B680BB10020704710
:1053800002207047012070474406002028060020B4
:10539000002851D070B50446294B1B68834208D0C1
:1053A0004FF0500383F31188BFF36F8FBFF34F8F1C
:1053B000FEE7C36C43B94FF0500383F31188BFF38A
:1053C0006F8FBFF34F8FFEE7013BC364C16A826CEE
:1053D000914233D00BB1002070BD051D2846FEF769
:1053E000B4FE38B9E36A01229A4016490B6823EAF1
:1053F00002030B60A36CE362C3F10502A26101200A
:1054000000FA03F20F490E6832430A600E4A03EBBA
:10541000830302EB83035B68A3609968E1604D60DE
:105420009D60E36A03EB83018D0002EB8101616102
:10543000515901445151CFE7002070470020CBE77C
:105440002807002048060020C4060020064B1A68E2
:1054500013682BB90123036023B9D3681868704718
:105460000023F8E7002070473C07002008B54160A2
:10547000006191420CD8D21A83699A4201D301206B
:1054800008BD011D094B1868FEF746FE0020F7E72E
:105490009A4201D2994206D2011D054B1868FEF7C7
:1054A0003BFE0020ECE70120EAE700BF38070020C0
:1054B0003C07002070B504460D46164604E0A3697B
:1054C0001D44236A20469847A1692B463246294449
:1054D0002046FFF7CBFF0028F1D170BD70B505461F
:1054E0000E460D4B1B68DB68DC68201DFEF72DFEA9
:1054F00094F8283013F0040F07D123F0010384F847
:105500002830236A2046984770BD324629462046F7
:10551000FFF7D0FFF5E700BF3C07002008B505E026
:10552000DB684FF0FF311868FFF7D8FF054B1B68A9
:105530001A68002AF4D1044A10680249086013600E
:1055400008BD00BF3C0700203807002038B50546DD
:10555000FFF744FC0446074B1B68834205D8002331
:105560002B60044B1C60204638BDFFF7D7FF01239A
:105570002B60F6E72C07002070B582B006460C467B
:10558000FFF724FC01A8FFF7E1FF019B33BB0546B1
:10559000E4B9B04213D22246711B124B1868FFF7D0
:1055A000E3F9FFF7E3FCD8B94FF0E0234FF0805266
:1055B000C3F8042DBFF34F8FBFF36F8F10E0FFF7D9
:1055C000D5FC29463046FFF789FF09E0064A1268F4
:1055D00012680AB90124DEE71C46DCE7FFF7C6FCC7
:1055E00002B070BD340700203807002030B585B008
:1055F000002201A9384B1868FFF728F8002869D065
:10560000019B002BF4DB039C636913B1201DFEF7A3
:105610009CFD6846FFF79AFF0546019B013B082B5E
:10562000E6D8DFE803F005052930490505293000F3
:1056300094F8283043F0010384F82830029BA169D4
:10564000024619442046FFF711FF0028D0D094F8F5
:10565000283013F0040F07D123F0010384F8283019
:10566000236A20469847C3E7A3692A46029919444A
:105670002046FFF71FFFF3E794F8283023F00103DB
:1056800084F82830B4E794F8283043F0010384F814
:1056900028300299A16131B10346024601442046F7
:1056A000FFF7E4FEA4E74FF0500383F31188BFF344
:1056B0006F8FBFF34F8FFEE794F8283013F0020F7F
:1056C00004D023F0010384F8283091E7204600F04D
:1056D000ADFD8DE705B030BD3407002000B583B0C7
:1056E00001A8FFF7B3FE0199FFF746FFFFF77EFF22
:1056F000F6E7000038B500F06DFB0F4B1B6813B1E7
:1057000000F08AFB38BD0D4D2846FEF7F7FC0C4C27
:105710002046FEF7F3FC0B4B1D600B4B1C60002278
:105720000C210A20FEF72AFE034B18600028E7D060
:105730000649FFF7E9F8E3E73407002054070020A3
:10574000400700203C07002038070020886600083A
:1057500000B583B0FFF7CEFF0D4B1B685BB10D4B5F
:1057600001930223009300234FF482720A490B48ED
:10577000FFF7B2FA40B94FF0500383F31188BFF33B
:105780006F8FBFF34F8FFEE703B05DF804FB00BFE0
:10579000340700203007002090660008DD5600081E
:1057A0002DE9F04F164604789F08826802F1140E26
:1057B000426808324FEA071B06EB071A03F003089A
:1057C0004FEA880900E031465EED054A1EED044AC5
:1057D0005EED033A1EED023A5EED012A154652EDEA
:1057E000026A52ED015A002F00F08D8001F1100085
:1057F00006F11003BC4610ED047A50ED037A10ED6B
:10580000025A50ED011A24EE872A32EE262A24EE9F
:10581000076A63EE026A36EE266A36EE256A64EEA1
:10582000A76A36EE266A23EE877A62EE826A37EE40
:10583000267A64EE276A63EE065A76EEA56A37EE9C
:10584000267A64EE856A37EE267A63EEA77A62EEF0
:10585000866A77EEA67A64EE056A63EE075A76EEFC
:10586000A56A77EEA67A64EEA16A77EEA67A23EEB1
:10587000855A62EE876A35EE265A64EE216A63EE37
:10588000275A76EEA56A75EE266A23EEA15A62EED5
:10589000A75A75EE255A03ED042A03ED036A03EDBA
:1058A000027A43ED017A10301033BCF1010CA2D121
:1058B00059445346B8F1000F19D001EB0900B1EC7F
:1058C000017A64EE877A77EEA67A64EE076A23EEB1
:1058D000276A76EE866A76EEA56A23EE877A62EE0E
:1058E000A75A77EE255AE3EC017A8842E7D145EDD5
:1058F000026A45ED015A0EF1140E0832013C7FF4A4
:1059000062AFBDE8F08F3346D4E738B504461D4694
:1059100001708260CA000021184600F0EAFC656050
:1059200038BD000010B50446036898472368024953
:105930002046984710BD00BF4867000838B50446A8
:105940000568A84730B904492046A8472368034999
:105950002046984738BD00BF506700084C670008D4
:1059600000B583B00191002301A9006EFEF7F5FD9B
:10597000012808D04FF0500383F31188BFF36F8FD5
:10598000BFF34F8FFEE703B05DF804FB00B583B0B3
:10599000019100231A4601A9006EFEF71AFD0128A5
:1059A00008D04FF0500383F31188BFF36F8FBFF31C
:1059B0004F8FFEE703B05DF804FB000070B582B0C6
:1059C00004460E4610461D4600220421FEF7D6FC72
:1059D0002066231D019300962346AAB20849D4F8F5
:1059E000C000FFF779F963680BB102B070BD4FF0EA
:1059F000500383F31188BFF36F8FBFF34F8FFEE720
:105A00009866000890B110B582B00446D0F8B8305E
:105A10000B4998474FF0FF3201A9206EFEF716FEA2
:105A2000D4F8B830019920469847F3E74FF0500377
:105A300083F31188BFF36F8FBFF34F8FFEE700BF73
:105A4000446700080160094BC0F8C030084BC0F83B
:105A5000B430084BC0F8BC30074BC0F8B830074B27
:105A6000C0F8C430064BC0F8C8307047055A00086B
:105A700025590008BD5900083D5900088D590008F6
:105A80006159000890ED017AD1ED017AF8EEE77ADC
:105A900067EE877AC0ED037A90ED027AB1F90030B3
:105AA00007EE903AF8EEE77A67EE877AC0ED047A6F
:105AB000704710B50446C368436103698361D0F839
:105AC0009000836A04F12C0204F114019847D4F881
:105AD0009400836A04F1300204F11801984710BD64
