:020000040800F2
:1000000000000220B9520008AD200008AF2000080F
:10001000B1200008B3200008B5200008000000004F
:10002000000000000000000000000000214E000859
:10003000B720000800000000C14E0008254F00084E
:100040000953000809530008095300080953000820
:100050000953000809530008095300080953000810
:100060000953000809530008095300080953000800
:1000700009530008095300080953000809530008F0
:1000800009530008095300080953000809530008E0
:1000900009530008095300080953000809530008D0
:1000A00009530008095300080953000809530008C0
:1000B000A5220008B52200080953000809530008CA
:1000C00009530008095300080953000809530008A0
:1000D00009530008095300080925000819250008DC
:1000E0000953000809530008095300080953000880
:1000F0000953000809530008095300080953000870
:10010000095300080953000809530008095300085F
:10011000095300080953000809530008095300084F
:10012000095300080953000809530008095300083F
:10013000095300080953000809530008095300082F
:10014000095300080953000809530008095300081F
:10015000095300080953000809530008095300080F
:1001600009530008095300080953000809530008FF
:100170000953000809530008095300080000000053
:080180000953000809530008AF
:1001900010B5054C237833B9044B13B10448AFF3C1
:1001A00000800123237010BD140000200000000017
:1001B0008053000808B5034B1BB103490348AFF354
:1001C000008008BD000000001800002080530008D7
:1001D000034613F8012B002AFBD1181A0138704787
:1001E00081F0004102E000BF83F0004330B54FEAE8
:1001F00041044FEA430594EA050F08BF90EA020F55
:100200001FBF54EA000C55EA020C7FEA645C7FEAE7
:10021000655C00F0E2804FEA5454D4EB5555B8BF0A
:100220006D420CDD2C4480EA020281EA030382EA7B
:10023000000083EA010180EA020281EA0303362D0D
:1002400088BF30BD11F0004F4FEA01314FF4801CE0
:100250004CEA113102D0404261EB410113F0004FF2
:100260004FEA03334CEA133302D0524263EB4303A9
:1002700094EA050F00F0A780A4F10104D5F1200E47
:100280000DDB02FA0EFC22FA05F2801841F10001A2
:1002900003FA0EF2801843FA05F359410EE0A5F176
:1002A00020050EF1200E012A03FA0EFC28BF4CF0A7
:1002B000020C43FA05F3C01851EBE37101F000455D
:1002C00007D54FF0000EDCF1000C7EEB00006EEB6A
:1002D0000101B1F5801F1BD3B1F5001F0CD34908F4
:1002E0005FEA30004FEA3C0C04F101044FEA44524B
:1002F00012F5800F80F09A80BCF1004F08BF5FEAD2
:10030000500C50F1000041EB045141EA050130BDB1
:100310005FEA4C0C404141EB0101013C28BFB1F5C3
:10032000801FE9D291F0000F04BF01460020B1FA0E
:1003300081F308BF2033A3F10B03B3F120020CDAE1
:100340000C3208DD02F1140CC2F10C0201FA0CF0BF
:1003500021FA02F10CE002F11402D8BFC2F1200C24
:1003600001FA02F120FA0CFCDCBF41EA0C019040DA
:10037000E41AA2BF01EB0451294330BD6FEA040423
:100380001F3C1CDA0C340EDC04F11404C4F120020E
:1003900020FA04F001FA02F340EA030021FA04F320
:1003A00045EA030130BDC4F10C04C4F1200220FA77
:1003B00002F001FA04F340EA0300294630BD21FAB5
:1003C00004F0294630BD94F0000F83F4801306BF7B
:1003D00081F480110134013D4EE77FEA645C18BF6F
:1003E0007FEA655C29D094EA050F08BF90EA020F06
:1003F00005D054EA000C04BF1946104630BD91EAFE
:10040000030F1EBF0021002030BD5FEA545C05D100
:100410004000494128BF41F0004130BD14F580043F
:100420003CBF01F5801130BD01F0004545F0FE41B3
:1004300041F470014FF0000030BD7FEA645C1ABFE8
:10044000194610467FEA655C1CBF0B46024650EA1F
:10045000013406BF52EA033591EA030F41F400214B
:1004600030BD00BF90F0000F04BF0021704730B5D1
:100470004FF4806404F132044FF000054FF00001A6
:1004800050E700BF90F0000F04BF0021704730B567
:100490004FF4806404F1320410F0004548BF40423C
:1004A0004FF000013EE700BF42004FEAE2014FEA91
:1004B00031014FEA02701FBF12F07F4393F07F4F6C
:1004C00081F06051704732F07F4208BF704793F06F
:1004D0007F4F04BF41F40021704730B54FF4607482
:1004E00001F0004521F000411CE700BF50EA010285
:1004F00008BF704730B54FF000050AE050EA01022E
:1005000008BF704730B511F0004502D5404261EB9D
:1005100041014FF4806404F132045FEA915C3FF4DE
:10052000D8AE4FF003025FEADC0C18BF03325FEA7B
:10053000DC0C18BF033202EBDC02C2F1200300FA2C
:1005400003FC20FA02F001FA03FE40EA0E0021FA51
:1005500002F11444BDE600BF70B54FF0FF0C4CF43F
:10056000E06C1CEA11541DBF1CEA135594EA0C0FF1
:1005700095EA0C0F00F0DEF82C4481EA030621EA2C
:100580004C5123EA4C5350EA013518BF52EA033567
:1005900041F4801143F4801338D0A0FB02CE4FF019
:1005A0000005E1FB02E506F00042E0FB03E54FF049
:1005B0000006E1FB03569CF0000F18BF4EF0010E41
:1005C000A4F1FF04B6F5007F64F5407404D25FEA3D
:1005D0004E0E6D4146EB060642EAC62141EA5551F0
:1005E0004FEAC52040EA5E504FEACE2EB4F1FD0C32
:1005F00088BFBCF5E06F1ED8BEF1004F08BF5FEAB0
:10060000500E50F1000041EB045170BD06F0004661
:1006100046EA010140EA020081EA0301B4EB5C040E
:10062000C2BFD4EB0C0541EA045170BD41F4801106
:100630004FF0000E013C00F3AB8014F1360FDEBF2B
:10064000002001F0004170BDC4F10004203C35DA07
:100650000C341BDC04F11404C4F1200500FA05F38A
:1006600020FA04F001FA05F240EA020001F000422B
:1006700021F0004110EBD37021FA04F642EB0601A1
:100680005EEA430E08BF20EAD37070BDC4F10C04CB
:10069000C4F1200500FA04F320FA05F001FA04F28F
:1006A00040EA020001F0004110EBD37041F100017B
:1006B0005EEA430E08BF20EAD37070BDC4F1200586
:1006C00000FA05F24EEA020E20FA04F301FA05F2EE
:1006D00043EA020321FA04F001F0004121FA04F296
:1006E00020EA020000EBD3705EEA430E08BF20EA66
:1006F000D37070BD94F0000F0FD101F000464000A0
:1007000041EB010111F4801F08BF013CF7D041EA21
:10071000060195F0000F18BF704703F00046520025
:1007200043EB030313F4801F08BF013DF7D043EAF6
:100730000603704794EA0C0F0CEA135518BF95EAAC
:100740000C0F0CD050EA410618BF52EA4306D1D133
:1007500081EA030101F000414FF0000070BD50EA52
:10076000410606BF1046194652EA430619D094EADC
:100770000C0F02D150EA013613D195EA0C0F05D1C6
:1007800052EA03361CBF104619460AD181EA03011A
:1007900001F0004141F0FE4141F470014FF00000D2
:1007A00070BD41F0FE4141F4780170BD70B54FF06D
:1007B000FF0C4CF4E06C1CEA11541DBF1CEA1355ED
:1007C00094EA0C0F95EA0C0F00F0A7F8A4EB0504CF
:1007D00081EA030E52EA03354FEA013100F08880C6
:1007E0004FEA03334FF0805545EA131343EA12638F
:1007F0004FEA022245EA111545EA10654FEA002644
:100800000EF000419D4208BF964244F1FD0404F5FC
:10081000407402D25B084FEA3202B61A65EB030558
:100820005B084FEA32024FF480104FF4002CB6EB15
:10083000020E75EB030E22BFB61A754640EA0C0095
:100840005B084FEA3202B6EB020E75EB030E22BFD5
:10085000B61A754640EA5C005B084FEA3202B6EB16
:10086000020E75EB030E22BFB61A754640EA9C00D5
:100870005B084FEA3202B6EB020E75EB030E22BFA5
:10088000B61A754640EADC0055EA060E18D04FEA63
:10089000051545EA16754FEA06164FEAC30343EA03
:1008A00052734FEAC2025FEA1C1CC0D111F4801FD0
:1008B0000BD141EA00014FF000004FF0004CB6E7C9
:1008C00011F4801F04BF01430020B4F1FD0C88BF68
:1008D000BCF5E06F3FF6AFAEB5EB030C04BFB6EB73
:1008E000020C5FEA500C50F1000041EB045170BD66
:1008F0000EF0004E4EEA113114EB5C04C2BFD4EB93
:100900000C0541EA045170BD41F480114FF0000E16
:10091000013C90E645EA060E8DE60CEA135594EA92
:100920000C0F08BF95EA0C0F3FF43BAF94EA0C0F95
:100930000AD150EA01347FF434AF95EA0C0F7FF40A
:1009400025AF104619462CE795EA0C0F06D152EA5E
:1009500003353FF4FDAE1046194622E750EA410642
:1009600018BF52EA43067FF4C5AE50EA41047FF453
:100970000DAF52EA43057FF4EBAE12E74FF0FF3CB8
:1009800006E000BF4FF0010C02E000BF4FF0010C89
:100990004DF804CD4FEA410C7FEA6C5C4FEA430C02
:1009A00018BF7FEA6C5C1BD001B050EA410C0CBF51
:1009B00052EA430C91EA030F02BF90EA020F0020B3
:1009C000704710F1000F91EA030F58BF994208BF1A
:1009D00090422CBFD8176FEAE37040F001007047D7
:1009E0004FEA410C7FEA6C5C02D150EA013C07D12E
:1009F0004FEA430C7FEA6C5CD6D152EA033CD3D079
:100A00005DF8040B704700BF8446104662468C4672
:100A10001946634600E000BF01B5FFF7B7FF0028A5
:100A200048BF10F1000F01BD4DF808EDFFF7F4FFCE
:100A30000CBF012000205DF808FB00BF4DF808ED59
:100A4000FFF7EAFF34BF012000205DF808FB00BF7C
:100A50004DF808EDFFF7E0FF94BF012000205DF89E
:100A600008FB00BF4DF808EDFFF7CEFF94BF012053
:100A700000205DF808FB00BF4DF808EDFFF7C4FF4C
:100A800034BF012000205DF808FB00BF4FEA41029F
:100A900012F5001215D211D56FF47873B3EB6252D0
:100AA00012D94FEAC12343F0004343EA505311F0F7
:100AB000004F23FA02F018BF404270474FF0000089
:100AC000704750EA013005D111F0004008BF6FF0C7
:100AD000004070474FF00000704700BF4A0011D23D
:100AE00012F5001211D20DD56FF47873B3EB625288
:100AF0000ED44FEAC12343F0004343EA505323FA94
:100B000002F070474FF00000704750EA013002D108
:100B10004FF0FF3070474FF00000704753B94AB9AB
:100B2000002908BF00281CBF4FF0FF314FF0FF30F5
:100B300000F06AB9ADF1080C6DE904CE00F006F8DA
:100B4000DDF804E0DDE9022304B070472DE9F04749
:100B5000089D0C46002B4ED194468C458646B2FA31
:100B600082F262D94AB1C2F12003914020FA03F324
:100B70000CFA02FC194300FA02FE4FEA1C471FFA66
:100B80008CF6B1FBF7F44FEA1E4307FB141143EA5E
:100B9000014304FB06F199420AD91CEB030304F15B
:100BA000FF3080F01281994240F20F81023C634491
:100BB000591A1FFA8EF3B1FBF7F007FB101143EA45
:100BC000014300FB06F69E420AD91CEB030300F129
:100BD000FF3180F0FC809E4240F2F980634402388D
:100BE0009B1B40EA044000211DB1D3400022C5E90F
:100BF0000032BDE8F0878B4205D90DB1C5E900018F
:100C000000210846F5E7B3FA83F1002946D1A34253
:100C100002D39042C0F0F080861A64EB03030120F7
:100C2000002DE6D0C5E90063E3E7002A40F090809C
:100C3000A1EB0C044FEA1C481FFA8CF70121B4FB0E
:100C4000F8F64FEA1E4308FB164443EA044307FB49
:100C500006F0984208D91CEB030306F1FF3402D2D8
:100C6000984200F2CD8026461C1A1FFA8EF3B4FB80
:100C7000F8F008FB104443EA044300FB07F79F42E7
:100C800008D91CEB030300F1FF3402D29F4200F2AB
:100C9000B0802046DB1B40EA0640A5E7C1F12006F4
:100CA0008B4022FA06F71F4320FA06FC04FA01F3F0
:100CB00043EA0C03F44000FA01F8380C4FEA1349F8
:100CC000B4FBF0FE1FFA87FC00FB1E4449EA044413
:100CD0000EFB0CF9A14502FA01F20AD93C190EF1FA
:100CE000FF3A80F08480A14540F28180AEF1020E8F
:100CF0003C44A4EB09041FFA83F9B4FBF0F300FBB6
:100D0000134449EA044403FB0CFCA44507D93C19ED
:100D100003F1FF3067D2A44565D9023B3C4443EA66
:100D20000E40A0FB0293A4EB0C049C42CE469C46D2
:100D300051D34ED055B1B8EB0E0364EB0C0404FA5A
:100D400006F6CB401E43CC40C5E90064002150E7C5
:100D5000C2F1200320FA03F10CFA02FC24FA03F397
:100D600094400C434FEA1C4800FA02FE1FFA8CF72D
:100D7000B3FBF8F008FB1031230C43EA014300FBFE
:100D800007F1994208D91CEB030300F1FF362CD27E
:100D900099422AD9023863445B1AA4B2B3FBF8F132
:100DA00008FB113344EA034401FB07F3A34208D9CB
:100DB0001CEB040401F1FF3613D2A34211D902390E
:100DC0006444E41A41EA004139E70446F0E6084683
:100DD00006E7C845AED2B9EB020E63EB070C01384B
:100DE000A8E73146EDE7034699E73046D4E7D64613
:100DF0007FE7634402384DE70646234608460FE77F
:100E0000023E634430E700BF704700BF80B5A0B02A
:100E10001548C36D154C2246154998476669276ADF
:100E2000D4F824802069FFF73FFB04460D46404676
:100E3000FFF73AFBCDE904013846FFF735FBCDE972
:100E400002013046FFF730FBCDE9000122462B4678
:100E5000084907A801F0F8F807A9074801F064FB62
:100E6000012003F04BFCD3E760000020300000209D
:100E7000C4000020985300085C01002000B583B036
:100E800001F020FC01F03CFA01F01CFA01F0B6FA86
:100E900001F084F90A4801F0BBFB0022642105201F
:100EA00002F080FF074B186000210191032300939B
:100EB0000B468222044803F037FA03F069FAFEE792
:100EC00060000020C00000200D0E00089A4200D2F1
:100ED0008854704770470146002008E000EB80000E
:100EE000531C0B60137803EB4003A3F130000A6836
:100EF0001378303BDBB2092BF0D970472DE9F04F66
:100F000083B005460E4693461F46DDF830A00D9C83
:100F1000DDF838900F9B13F0030F19D1A046019212
:100F2000C84509D202F1010B3B4631462020A847B3
:100F300008F101085A46F3E7DDF804B008E0013C87
:100F400002F101083B4631461AF80400A847424620
:100F5000002CF4D10F9B13F0020F03D1104603B005
:100F6000BDE8F08FA2EB0B034B45F7D2541C3B4678
:100F700031462020A8472246F4E72DE9F04385B00A
:100F800099460C9D0D9C9DF83880DDF840E0119F3E
:100F9000129E16F0020F21D17FB116F0010F0CD076
:100FA000B8F1000F02D116F00C0F06D0013F04E09B
:100FB0004FF0300C05F804C00134744501D21F2CE9
:100FC000F6D916F0010F09D0BC4207D21F2C05D864
:100FD0004FF0300C05F804C00134F2E716F0100FA2
:100FE00014D016F4806F04D11CB1744522D0BC42D9
:100FF00020D00F9B102B36D00F9B022B3ED01F2CE6
:101000000ED84FF0300C05F804C001341F2C07D85F
:10101000B8F1000F3AD04FF02D0C05F804C00134A0
:1010200003960297019400954B46FFF767FF05B0C2
:10103000BDE8F083B4F1010C13D00F9B102B0ED040
:1010400064460F9B102BD7D116F0200FD4D01F2C45
:10105000D2D84FF0580C05F804C00134CFE7023C59
:10106000C7E76446C5E716F0200FEAD11F2CE8D881
:101070004FF0780C05F804C00134C0E71F2CCFD81E
:101080004FF0620C05F804C00134B8E716F0040F05
:1010900005D04FF02B0C05F804C00134C0E716F062
:1010A000080FBDD04FF0200C05F804C00134B7E79D
:1010B000F0B591B0169C189D1B9E0CB926F0100639
:1010C00016F4806E16D064B34FF0000E12E00CF1EF
:1010D000300C5FFA8CFC0EF101070EF1400EEE446D
:1010E0000EF820CCB4FBF5FCAC421BD31F2F19D853
:1010F000BE466446B4FBF5FC05FB1C4C5FFA8CFC59
:10110000BCF1090FE3D916F0200F08D04127BC44E9
:101110005FFA8CFCACF10A0C5FFA8CFCDBE7612710
:10112000F5E7274606961A9C0594199C04940395A6
:101130009DF85C400294019708AC0094FFF71DFFF6
:1011400011B0F0BD2DE9F04F95B009900A910B92C6
:101150009846DDF878B0DDF87C90229D239F269E8E
:101160005BEA090201D126F0100616F480641ED055
:101170005BEA09022FD0002419E03032D3B204F127
:10118000010A04F150020DEB020404F8203C2A4647
:101190003B4658464946FFF7C1FCAB4579EB07098A
:1011A0001BD3BAF11F0F18D85446834689462A46E6
:1011B0003B4658464946FFF7B1FCD2B2092ADCD972
:1011C00016F0200F05D041231344DBB20A3BDBB2FB
:1011D000D5E76123F8E74FF0000A0696259B0593B3
:1011E000249B049303959DF880300293CDF804A0CE
:1011F0000CAB009343460B9A0A990998FFF7BDFE82
:1012000015B0BDE8F08F00002DE9F04F2DED028BF9
:1012100093B082460C4693461D4657EC106B8DEDFD
:10122000080B32463B4630463946FFF7FDFB0028A7
:1012300000F009814FF0FF32B14B30463946FFF7DD
:101240001BFC002840F0FF804FF0FF326FF480134A
:1012500030463946FFF7F2FB002840F0F4800022C8
:101260000023DDE9086730463946FFF7E7FB002831
:1012700040F0FC809DED087B8DED067B209B13F4F8
:101280008063119301D106231E93DDE90601024616
:10129000C1F30A50C1F31303904643F07F5949F458
:1012A0004019A0F2FF30FFF7EDF883A3D3E9002344
:1012B000FFF752F982A3D3E90023FEF797FF064612
:1012C0000F4600228F4B40464946FEF78DFF7EA316
:1012D000D3E90023FFF740F902460B463046394672
:1012E000FEF784FFFFF7D2FB0646FFF7CBF88046F8
:1012F000894677A3D3E90023FFF72EF90022824B1A
:10130000FEF774FFFFF7C2FB074673A3D3E9002380
:1013100040464946FFF720F9804689463846FFF7A0
:10132000B1F86FA3D3E90023FFF716F902460B4685
:1013300040464946FEF758FF8046894602460B461E
:10134000FFF70AF9CDE90C0107F2FF37002100226F
:10135000CDE90A123B050B9300230A9342464B4604
:1013600040464946FEF742FFCDE90E0142464B4654
:1013700000204FF08041FEF737FF8046894600226B
:10138000624BDDE90C01FFF711FA0022604BFEF71A
:101390002DFF02460B46DDE90C01FFF707FA00229C
:1013A0005C4BFEF723FF02460B46DDE90C01FFF71D
:1013B000FDF902460B4640464946FEF717FF024636
:1013C0000B46DDE90E01FFF7F1F90022524BFEF763
:1013D0000DFFDDE90A23FFF7BFF88046894649EC97
:1013E000188BDDE90623FFF747FB40B1013E0022E1
:1013F000474B40464946FFF7D9F941EC180B06F137
:101400006303C62B3BD80427209B13F4006F40D006
:1014100035A3D3E90023DDE9068940464946FFF7B5
:1014200021FB00283BD032A3D3E9002340464946A4
:10143000FFF704FB002832D01E9BB34221DD9E1B28
:10144000731E1E931FE0209B02931F9B01931E9B04
:1014500000939DED080B2B465A462146504600F05E
:10146000CBF813B0BDEC028BBDE8F08F9FED227B73
:101470008DED067B069607F100430793FEE60527F0
:10148000C2E700231E93209B43F480632093002730
:101490003E461F9B9F4241D2A3EB070840E01E9BA4
:1014A000002BF6D0119B002BF3D01E9B013B1E930B
:1014B000EFE700BFAFF30080FB799F501344D33FA9
:1014C000B3C8608B288AC63F61436F63A787D23F4A
:1014D00071A379094F930A401655B5BBB16B024011
:1014E000EF39FAFE422EE63F2D431CEBE2361A3F5F
:1014F0000000000080842E41000000000000000079
:10150000FFFFEF7F0000F83F0000E03F00002C40AD
:1015100000002440000018400000F03F4FF0000899
:10152000209B13F0020902D00FB14FF000083EB12A
:1015300053EC182BDDE90601FFF738F9CDE9060178
:1015400000220023DDE90801FFF778FA00283BD1EB
:10155000209B23F400630293CDF804801E9B00932C
:101560009DED060B2B465A462146504600F044F8A6
:10157000002F3FF476AF209B13F0200F2CD04FF0BC
:10158000450C00F101082B46024621466046D04733
:1015900086EAE672A2EBE67205230593013F049703
:1015A000002303930A230293F30F019300922B4627
:1015B000424621465046FFF77BFDB9F1000F3FF44C
:1015C00050AF02461F9F10E0DDE90601024601F11F
:1015D0000043CDE90623BBE74FF0650CD1E7561C6D
:1015E0002B4621462020D0473246A2EB0B03BB42BC
:1015F000F5D3104635E700BF2DE9F04F2DED028BF6
:1016000093B00590089192469B4659EC108B1E9D15
:1016100042464B4640464946FFF706FA002840D06E
:101620004FF0FF326FF4801340464946FFF706FA49
:10163000002845D14FF0FF32B14B40464946FFF7F5
:101640001BFA00284BD1AAA3D3E900234046494600
:10165000FFF712FA00285AD1A7A3D3E90023404686
:101660004946FFF7EBF9002851D1002200234046FC
:101670004946FFF7E3F9002857D100230993209B3F
:1016800013F4806F5CD000241F2C5BD8092D59D92E
:1016900004F148036B44302203F8202C013D01344F
:1016A000F2E7209B03931F9B029303230193954B27
:1016B00000935B46524608990598FFF71FFC10E11E
:1016C000209B03931F9B0293042301938E4B009353
:1016D0005B46524608990598FFF710FC01E1209BF4
:1016E00013F004030FD0894A7BB10423209903919E
:1016F0001F990291019300925B4652460899059802
:10170000FFF7FCFBEDE0824AEEE70323EEE7209BC8
:1017100002931F9B0193009549EC108B5B46524648
:1017200008990598FFF770FDDBE042464B46002024
:101730000021FEF759FD80468946012309939EE763
:101740000625A0E740464946FFF7A0F90646FEF702
:1017500099FE02460B4640464946FEF745FD6D4B55
:1017600003EBC50393ED008B53EC182BFEF7F4FE4F
:1017700002460B46CDE90623FFF7B0F90746FEF710
:1017800071FE02460B46DDE90601FEF72DFD02461D
:101790000B46CDE9062300225F4BFFF76DF950B3EE
:1017A00001373846FEF75EFE02460B4651EC180B39
:1017B000FFF74EF908B10136002755BB3046FEF75A
:1017C00061FE02460B4640464946FEF70DFD804647
:1017D00089460022504BFFF731F938B100224E4BB9
:1017E00040464946FFF748F9002842D016F0010F5D
:1017F0003FD001363DE00022474BDDE90601FFF70F
:101800001DF90028D9D117B117F0010FD5D0013734
:10181000D3E71F2C17D8013D404BA3FB0723DB0860
:10182000194603EB8303A7EB4303621C303304F137
:1018300048000DEB000404F8203C092F02D90F46A4
:101840001446E6E714461F2C0AD86B1E45B104F176
:1018500048026A44302102F8201C1D460134F2E798
:101860001F2C06D804F148036B442E2203F8202CC9
:1018700001341F2C17D82A4A82FB0632F317C3EB18
:10188000A2031A4603EB8303A6EB4303611C303328
:1018900004F148000DEB000404F8203C16460AB1A0
:1018A0000C46E6E70C46209B03F00303012B39D0DE
:1018B0001F2C09D8099B002B51D004F148036B441D
:1018C0002D2203F8202C0134209B03931F9B0293AD
:1018D00001940AAB00935B46524608990598FFF7BE
:1018E0000DFB13B0BDEC028BBDE8F08FAFF30080B1
:1018F0000000000065CDCD410000000065CDCDC1E8
:10190000FFFFEF7FC0530008C4530008B453000822
:10191000BC530008D05300080000E03FCDCCCCCC35
:10192000676666661F9BB3B1099B1BB9209B13F0CA
:101930000C0F12D01F9B013B1F93194606E004F1C8
:1019400048036B44302203F8202C01348C42AFD280
:101950001F2CF4D9ACE71F99F8E71F99F6E7209BF5
:1019600013F0040F07D004F148036B442B2203F853
:10197000202C0134A8E7209B13F0080FA4D004F119
:1019800048036B44202203F8202C01349CE700BF5D
:101990002DE9F04F91B0804617460F9389460029F4
:1019A00000F0408300260F9B1878002800F03D834C
:1019B000252809D0741C3B4632464946C0470F9B38
:1019C00001330F932646EEE701330F9300251FE006
:1019D00045F0010501320F92012318E045F00205A0
:1019E00001320F92012312E045F0040501320F92FB
:1019F00001230CE045F0080501320F92012306E0B7
:101A000045F0100501320F92012300E000234BB393
:101A10000F9A1378203B102BF8D801A151F823F02E
:101A2000F51900080D1A00080D1A0008011A00081F
:101A30000D1A00080D1A00080D1A00080D1A0008EA
:101A40000D1A00080D1A00080D1A0008E9190008FF
:101A50000D1A0008DD1900080D1A00080D1A0008FB
:101A6000D11900080B930F9B1A78A2F13003DBB257
:101A7000092B18D92A2A1BD0DDF82CB00F9B1A7815
:101A80002E2A25D00F9A1378683B122B5CD8DFE8FA
:101A900003F0495BAA5B3B5B5B5B5B5B5B5B575B40
:101AA0005B5B5B5BAF000FA8FFF715FA8346E5E7CA
:101AB0001A9B1A1D1A921B68002B04DB9B460F9B76
:101AC00001330F93DAE745F00205C3F1000BF6E7A7
:101AD00045F480655A1C0F925A78A2F13003DBB2AC
:101AE000092B0CD92A2ACDD11A9B1A1D1A921C68CF
:101AF00024EAE4730B930F9B01330F93C2E70FA803
:101B0000FFF7E9F90B90BDE745F48071531C0F9383
:101B100053786C2B01D00D4616E045F44075023227
:101B20000F9211E045F08001531C0F935378682BFE
:101B300001D00D4608E045F0C00502320F9203E0E7
:101B400045F4807501320F920F9B1878672854D89E
:101B5000252867D3A0F12503422B63D8DFE813F0D3
:101B6000570262006200620062006200620062006E
:101B70006200620062006200620062006200620055
:101B80006200620062006200620062006200620045
:101B90006200620062006200620062006200620035
:101BA00080016201800162006200620062006200E6
:101BB0006200620062006200620062006200620015
:101BC0006200620062006C006200620062006200FB
:101BD000620062006200620062006C00A5016C009D
:101BE00080016201800145F4007501320F92ABE77C
:101BF00045F4807501320F92A6E7782812D869283B
:101C000010D3A0F16902D2B20123934049F24102FC
:101C1000134211D113F0800F40F0DE8113F4806F76
:101C200040F07581741C3B4632464946C0470F9BC5
:101C300001330F932646B6E6782809D062283AD0B9
:101C40006F283AD058283AD025F010050A2300E032
:101C50001023582835D0692803D0642801D025F0F6
:101C60000C0515F4806F01D025F0010569282BD0F3
:101C7000642829D015F4007F40F0968015F4807F09
:101C800040F0AE8015F0400F00F0BF801A9A111D91
:101C90001A9112780595CDF810B00B990391029323
:101CA0000023019300923B46324649464046FFF7E7
:101CB000FFF9064629E00223CBE70823C9E71023F2
:101CC000C7E745F02005C6E715F4007F21D115F4DC
:101CD000807F42D115F0400F58D01A9A111D1A91E9
:101CE000127882EAE271A1EBE2710595CDF810B0AD
:101CF0000B9803900293D20F019200913B4632461B
:101D000049464046FFF7D4F906460F9B01330F932F
:101D100049E61A9A073222F0070202F108011A91E5
:101D2000516812680846002913DB0895CDF81CB0ED
:101D30000B9C0694049300230593C90F0291009213
:101D400001903B46324649464046FFF7FBF90646BE
:101D5000DBE7524261EB4100E7E71A9A111D1A9145
:101D6000126882EAE271A1EBE2710595CDF810B03C
:101D70000B9803900293D20F019200913B4632469A
:101D800049464046FFF794F90646BEE715F0800F36
:101D900005D01A9A111D1A91B2F90020A1E71A9ADA
:101DA000111D1A9112689CE71A9A073222F0070255
:101DB00002F108011A910895CDF81CB00B99069113
:101DC0000021049305910291D2E90023CDE900237B
:101DD0003B46324649464046FFF7B4F9064694E78B
:101DE0001A9A111D1A910595CDF810B00B9903910F
:101DF000029300230193136800933B463246494601
:101E00004046FFF755F906467FE715F0800F04D0EE
:101E10001A9A111D1A9112883CE71A9A111D1A91EB
:101E2000126837E7462818D01A9B073323F00703B8
:101E300003F108021A9293ED000B0295CDF804B05D
:101E40000B9B00933B46324649464046FFF7D4FB86
:101E500006460F9B01330F93A5E545F02005E3E708
:101E6000672801D0472801D145F40065452801D0F5
:101E7000472801D145F020051A9B073323F00703BB
:101E800003F108021A9293ED000B0295CDF804B00D
:101E90000B9B00933B46324649464046FFF7B4F958
:101EA00006460F9B01330F937DE515F002051DD00B
:101EB00001241A98031D1A9306F1010A3B46324683
:101EC00049460078C047A5B90F9B01330F9356468A
:101ED00069E502F1010A3B4649462020C0472346F6
:101EE00052465C1C9B45F4D81646E2E70123324675
:101EF000F7E7524606E0561C3B4649462020C047BD
:101F00002C463246651CA345F5D89246DCE71A9B61
:101F10001A1D1A92D3F800A00B9BFBB94FF0FF32A9
:101F2000534601E001330A46197811B1511E002AC7
:101F3000F8D1A3EB0A0315F480620C9203D00B9A3C
:101F4000934228BF134615F0020409D00D94CDF832
:101F500038B00B9D32460C9E9B461FE00B9ADFE784
:101F60003246264606E0541C3B4649462020C047E0
:101F70002B4622465D1C9B45F5D834462B460D94D6
:101F8000CDF838B00B9D0C9E9B4607E01D460AF12C
:101F9000010A541C3B464946C04722469AF80000B5
:101FA00020B1002EF3D06B1E002DEFD10D9C1646F4
:101FB0005B46DDF838B054B90F9B01330F93F2E460
:101FC000551C3B4649462020C04723462A465C1CF8
:101FD0009B45F5D81646EFE745F021051A9B1A1DDB
:101FE0001A921B680595082204920B9A03921022FC
:101FF00002920022019200933B46324649464046F7
:10200000FFF756F806460F9B01330F93CBE4741C81
:102010003B46324649462520C0470F9B01330F936C
:102020002646C0E4DFF81C80BCE4BE4208D37A1E1A
:102030003B4649460020C047304611B0BDE8F08F0E
:102040003246F5E7D50E00080EB400B584B001465F
:1020500005AA52F8043B039200924FF0FF32044865
:10206000FFF796FC04B05DF804EB03B0704700BFC7
:10207000CD0E000882B0002100910B4B5A6C42F447
:1020800080425A645A6C02F480420092009A019194
:102090001A6C42F080521A641B6C03F08053019357
:1020A000019B02B0704700BF00380240FEE7FEE728
:1020B000FEE7FEE7FEE77047034AD2F8883043F4B4
:1020C0007003C2F88830704700ED00E030B58DB085
:1020D0002422002103A803F018F900250195029598
:1020E0000E4C4FF0804323606560A5604FF0FF33D6
:1020F000E36025618023A3610323039301230593F8
:10210000099303A9204601F02DF90195029501A933
:10211000204601F009FA0DB030BD00BF14010020C7
:1021200030B58DB02422002103A803F0EEF800257D
:10213000019502950D4C0E4B23606560A5604FF62E
:10214000FF73E36025618023A361032303930123CD
:102150000593099303A9204601F004F9019502951E
:1021600001A9204601F0E0F90DB030BDCC000020FF
:10217000000400400368B3F1804F03D0054A934246
:1021800004D070475A6A044B5A6070475A6A024B2F
:102190001A80F6E700040040C400002008B5FFF7ED
:1021A00095FFFFF7BDFF064B00221A805A603C21C5
:1021B000044801F03EF93C21034801F03AF908BD1A
:1021C000C400002014010020CC00002010B58AB00B
:1021D0000023059306930793089309930368B3F1CB
:1021E000804F04D02C4A93422BD00AB010BD00245B
:1021F000019403F50E331A6C42F001021A641A6C52
:1022000002F001020192019A02941A6B42F001025B
:102210001A631B6B03F001030293029B03230593D4
:10222000022306930123099305A91C4800F044FBEF
:10223000224607211C2000F0B9FA1C2000F0C6FA43
:10224000D3E700240394164B1A6C42F002021A647E
:102250001A6C02F002020392039A04941A6B42F081
:1022600001021A631B6B03F001030493049BC02358
:1022700005930223069301220792099305A90748B3
:1022800000F01AFB224607211D2000F08FFA1D20C6
:1022900000F09CFAA9E700BF0004004000000240E3
:1022A0000038024008B5024800F040FF08BD00BFFA
:1022B0001401002008B5024800F038FF08BD00BF37
:1022C000CC00002082B0002100910B4B1A6B42F031
:1022D00080021A631A6B02F080020092009A019148
:1022E0001A6B42F001021A631B6B03F001030193A6
:1022F000019B02B0704700BF0038024072B6FEE793
:1023000000B595B03022002108A802F0FEFF00239E
:10231000039304930593069307930193204A116C4A
:1023200041F080511164126C02F080520192019AC6
:1023300002931C4B1A6842F480421A601B6803F433
:1023400080430293029B012308934FF48033099347
:1023500002220E924FF480030F9304231093A821BE
:1023600011911292139308A800F09CFB98B90F23C7
:10237000039302230493002305934FF4A053069381
:102380004FF480530793052103A800F0F5FD20B911
:1023900015B05DF804FBFFF7B1FFFFF7AFFF00BF1B
:1023A000003802400070004008B50368104A9342AC
:1023B00003D0104A93420ED008BD4FF4E13343607E
:1023C00000238360C36003610C2242618361C361A7
:1023D00001F0D8F9F0E7084B436000238360C36045
:1023E00003610C2242618361C36101F0CBF9E3E731
:1023F000004400400048004000CA080010B50648EC
:10240000064B0360064C03F580632360FFF7CCFFA7
:102410002046FFF7C9FF10BDA40100200044004082
:102420005C01002010B58AB0002305930693079342
:102430000893099303682F4A934204D02E4A93428B
:102440002CD00AB010BD002401942C4B1A6C42F41D
:1024500000321A641A6C02F400320192019A02945A
:102460001A6B42F001021A631B6B03F00103029323
:10247000029B0C230593022306930323089307234F
:10248000099305A91E4800F017FA224609212620C3
:1024900000F08CF9262000F099F9D2E7002403948B
:1024A000164B1A6C42F480221A641A6C02F48022D1
:1024B0000392039A04941A6B42F002021A631B6B94
:1024C00003F002030493049B4FF44063059302233B
:1024D0000693032308930723099305A9094800F0ED
:1024E000EBF922460A21272000F060F9272000F0AE
:1024F0006DF9A6E700440040004800400038024063
:10250000000002400004024008B5024801F012FA3F
:1025100008BD00BFA401002008B5024801F00AFA76
:1025200008BD00BF5C01002038B505460C460846D2
:10253000FDF74EFE82B22146284601F053F938BD20
:1025400090ED027AD1ED017AF8EEE77A67EE877ABC
:10255000C0ED047A90ED037AB1F9003007EE903ABD
:10256000F8EEE77A67EE877AC0ED057A704790ED6E
:10257000047AD0ED0B7A77EE677AD0ED006A87EEB9
:10258000A66A80ED066A80ED0B7A90ED057AD0EDB3
:10259000137A77EE677A87EEA66A80ED076A80ED98
:1025A000137A704790ED047A80ED087AD0ED067AC0
:1025B000C0ED097A43690364C3694364D0ED016ADD
:1025C00027EE267A80ED0C7A67EEA67AC0ED0D7ABA
:1025D000704738B505461446FFF7B2FF2846FFF7A7
:1025E000C6FF2846FFF7DEFF05F120030FCB84E886
:1025F0000F0004F1100C05F130030FCB8CE80F0035
:102600002034403595E80F0084E80F0038BD000005
:10261000114B0360114B4360114B8360114BC3603E
:102620000023036243628362C36203634363836381
:10263000C363036443648364C364002303618361ED
:102640004361C361084B0365084B4365084B8365D1
:10265000084BC365704700BF6F12833AA79B443A8B
:102660002EE34D3B2EE3CD3A412500086F250008AF
:10267000A5250008D325000810B504460E4B1A788E
:102680004FF47A73B3FBF2F30C4A1068B0FBF3F02B
:1026900000F0A0F868B90F2C01D901200AE000224F
:1026A00021464FF0FF3000F081F8054B1C60002000
:1026B00000E0012010BD00BF040000200000002049
:1026C0000800002008B50B4B1A6842F400721A602B
:1026D0001A6842F480621A601A6842F480721A60C2
:1026E000032000F051F80F20FFF7C6FFFFF7C2FCF0
:1026F000002008BD003C0240014B1868704700BF35
:10270000EC010020002807DB00F01F024009012334
:102710009340024A42F82030704700BF00E100E0D9
:10272000002808DB0901C9B200F1604000F56140F2
:1027300080F80013704700F00F000901C9B2014B87
:102740001954704714ED00E000B500F00700C0F127
:10275000070CBCF1040F28BF4FF0040C031D062B1F
:102760000FD9C31E4FF0FF3E0EFA0CF021EA000114
:1027700099400EFA03FE22EA0E0241EA02005DF8D9
:1027800004FB0023EEE70000074AD36823F4E0636C
:102790001B041B0C000200F4E060034343F0BF6322
:1027A00043F40033D360704700ED00E010B50446F9
:1027B000054BD868C0F30220FFF7C6FF014620464C
:1027C000FFF7AEFF10BD00BF00ED00E008B5FFF75A
:1027D00099FF08BD0138B0F1807F0BD24FF0E023A4
:1027E0005861054AF02182F82310002098610722E1
:1027F0001A6170470120704700ED00E070B5044693
:10280000866DFFF779FF94F83530DBB2022B06D0E6
:1028100080236365002384F83430012070BD0546B1
:102820002268136823F0160313602268536923F0AB
:1028300080035361236CE3B12268136823F008031B
:1028400013602268136823F00103136023681B6878
:1028500013F0010F11D0FFF74FFF431B052BF5D9E4
:1028600020236365032084F83500002384F8343086
:10287000D4E7A36C002BDFD1E3E7E26D3F23934065
:10288000B360012384F83530002084F83400C5E7B4
:1028900090F83530DBB2022B03D080234365012052
:1028A0007047052380F835300268136823F0010370
:1028B000136000207047000000230F2B00F2E98016
:1028C00070B582B065E085684FEA430E032404FAD0
:1028D0000EF425EA0405CC6804FA0EF42C43846057
:1028E000446824EA02044A68C2F300129A40224370
:1028F00042605CE0DC08083450F8242003F007054F
:10290000AD004FF00F0E0EFA05FE22EA0E0E0A6918
:10291000AA4042EA0E0240F824205CE0072200E0D0
:10292000002202FA0EF22A4302345A4D45F82420BE
:10293000594A94686FEA0C0224EA0C054E6816F4B2
:10294000801F01D04CEA0405534CA560E46802EAFC
:1029500004054E6816F4001F01D04CEA04054E4CE5
:10296000E560646802EA04054E6816F4003F01D091
:102970004CEA0405484C6560246822404D6815F413
:10298000803F01D04CEA0402434C226001330F2BFC
:102990007DD801229A400C6804EA020C32EA040451
:1029A000F4D14C6804F00304013C012C8BD94A6833
:1029B00002F00302032A09D0C4685D000322AA4082
:1029C00024EA02048A68AA402243C2604A6802F0EC
:1029D0000302022A8ED004684FEA430E032202FA51
:1029E0000EF224EA02044A6802F0030202FA0EF22E
:1029F000224302604A6812F4403FC7D0002201928D
:102A0000264A546C44F480445464526C02F480426C
:102A10000192019A9C08A51C1E4A52F8255003F009
:102A2000030E4FEA8E0E0F2202FA0EF225EA02057D
:102A30001B4A90423FF474AF02F5806290421AD074
:102A400002F58062904218D002F58062904216D062
:102A500002F58062904214D002F58062904212D05A
:102A600002F58062904210D002F5806290423FF4FD
:102A700055AF082255E7012253E7022251E703220E
:102A80004FE704224DE705224BE7062249E702B053
:102A900070BD704700380140003C014000380240E2
:102AA00000000240002800F0E08170B582B00446CA
:102AB000036813F0010F3BD09F4B9B6803F00C039E
:102AC000042B2CD09C4B9B6803F00C03082B21D0CB
:102AD0006368B3F5803F4FD0B3F5A02F52D0964B2B
:102AE0001A6822F480321A601A6822F480221A606E
:102AF0006368002B50D0FFF7FFFD05468E4B1B6827
:102B000013F4003F14D1FFF7F7FD401B6428F5D9FB
:102B10000320B1E1884B5B6813F4800FD8D0864B5B
:102B20001B6813F4003F03D06368002B00F09F8103
:102B3000236813F0020F54D07F4B9B6813F00C0FE7
:102B40003ED07D4B9B6803F00C03082B33D0E36829
:102B5000002B68D0794B01221A60FFF7CDFD0546A6
:102B6000754B1B6813F0020F54D1FFF7C5FD401BD6
:102B70000228F5D903207FE16F4A136843F48033BC
:102B80001360B5E76C4B1A6842F480221A601A6829
:102B900042F480321A60ABE7FFF7AEFD0546664BA4
:102BA0001B6813F4003FC3D0FFF7A6FD401B642849
:102BB000F5D9032060E1604B5B6813F4800FC6D148
:102BC0005D4B1B6813F0020F03D0E368012B40F04C
:102BD0005081594A136823F0F803216943EAC1037D
:102BE0001360236813F0080F42D063696BB3534B33
:102BF0000122C3F8802EFFF77FFD05464E4B5B6F29
:102C000013F0020F34D1FFF777FD401B0228F5D9EE
:102C1000032031E1484A136823F0F803216943EAAD
:102C2000C1031360DDE7454B00221A60FFF764FD26
:102C30000546414B1B6813F0020FD2D0FFF75CFD35
:102C4000401B0228F5D9032016E13C4B0022C3F8B3
:102C5000802EFFF751FD0546374B5B6F13F0020FD7
:102C600006D0FFF749FD401B0228F5D9032003E1F8
:102C7000236813F0040F77D02F4B1B6C13F0805F89
:102C800033D1002301932C4B1A6C42F080521A640A
:102C90001B6C03F080530193019B0125284B1B689B
:102CA00013F4807F23D0A368012B34D0052B38D0B8
:102CB000214B1A6F22F001021A671A6F22F00402E8
:102CC0001A67A368002B3DD0FFF716FD06461A4B86
:102CD0001B6F13F0020F46D1FFF70EFD801B41F270
:102CE00088339842F3D90320C6E00025D6E7144A7A
:102CF000136843F480731360FFF7FEFC0646104B25
:102D00001B6813F4807FCED1FFF7F6FC801B0228EE
:102D1000F5D90320B0E0084A136F43F001031367AD
:102D2000CFE7054B1A6F42F004021A671A6F42F0A0
:102D300001021A67C5E700BF0038024000004742A1
:102D400000700040FFF7D8FC0646524B1B6F13F093
:102D5000020F08D0FFF7D0FC801B41F28833984265
:102D6000F3D9032088E0EDB9A369002B00F083803C
:102D7000484A926802F00C02082A51D0022B17D060
:102D8000454B00221A66FFF7B7FC0446414B1B680F
:102D900013F0007F42D0FFF7AFFC001B0228F5D9EB
:102DA000032069E03B4A136C23F080531364DBE794
:102DB000394B00221A66FFF79FFC0546354B1B680E
:102DC00013F0007F06D0FFF797FC401B0228F5D9CF
:102DD000032051E0E369226A1343626A43EA8213E3
:102DE000A26A5208013A43EA0243E26A43EA0263F2
:102DF000284A5360284B01221A66FFF77DFC0446DF
:102E0000244B1B6813F0007F06D1FFF775FC001BF5
:102E10000228F5D903202FE000202DE000202BE030
:102E2000012B2BD01B4B5B6803F48001E2699142BC
:102E300026D103F03F02216A8A4223D1616A47F614
:102E4000C0721A40B2EB811F1ED103F44031A26A56
:102E50005208013AB1EB024F18D103F07063E26AF5
:102E6000B3EB026F14D1002006E00120704701206F
:102E700002E0012000E0002002B070BD0120FBE76D
:102E80000120F9E70120F7E70120F5E70120F3E74A
:102E90000120F1E7003802400000474208B5334BFB
:102EA0009B6803F00C03042B5BD0082B5BD12F4BEA
:102EB0005A6802F03F025B6813F4800F2CD02B4B52
:102EC0005868C0F388104FEA401CBCEB000C6EEB56
:102ED0000E0E4FEA8E1343EA9C634FEA8C11B1EB5E
:102EE0000C0163EB0E03DB0043EA5173C90011EBE5
:102EF000000C43F10003590200234FEA4C2041EA41
:102F0000DC51FDF70BFE194B5B68C3F30143013342
:102F10005B00B0FBF3F027E0144B5868C0F3881057
:102F20004FEA401CBCEB000C6EEB0E0E4FEA8E130A
:102F300043EA9C634FEA8C11B1EB0C0163EB0E0387
:102F4000DB0043EA5173C90011EB000C43F10003AD
:102F5000990200234FEA8C2041EA9C51FDF7DEFDE7
:102F6000D1E7034800E0034808BD00BF0038024035
:102F700000127A000024F400002800F09B8070B555
:102F80000D4604464F4B1B6803F007038B4208D2E3
:102F9000CBB24C4A1370136803F007038B4240F026
:102FA0008B80236813F0020F17D013F0040F04D0A6
:102FB000454A936843F4E0539360236813F0080F85
:102FC00004D0414A936843F4604393603E4A936857
:102FD00023F0F003A1680B439360236813F0010F03
:102FE00032D06368012B21D09A1E012A25D9364A96
:102FF000126812F0020F61D033498A6822F003028E
:1030000013438B60FFF778FB06462F4B9B6803F05A
:103010000C036268B3EB820F16D0FFF76DFB801BC9
:1030200041F288339842F0D9032042E0264A1268E0
:1030300012F4003FE0D101203BE0234A126812F075
:10304000007FD9D1012034E01E4B1B6803F0070339
:10305000AB4207D9EAB21B4B1A701B6803F0070397
:10306000AB422DD1236813F0040F06D0164A9368A3
:1030700023F4E053E1680B439360236813F0080FD7
:1030800007D0114A936823F46043216943EAC103DE
:103090009360FFF703FF0C4B9B68C3F303130B4ACA
:1030A000D35CD8400A4B18600A4B1868FFF7E4FA63
:1030B000002070BD012070470120FAE70120F8E7E9
:1030C0000120F6E7003C0240003802402854000886
:1030D0000000002008000020014B1868704700BF66
:1030E0000000002008B5FFF7F7FF044B9B68C3F30F
:1030F0008223034AD35CD84008BD00BF0038024099
:103100002054000808B5FFF7E7FF044B9B68C3F3A2
:103110004233034AD35CD84008BD00BF00380240A8
:1031200020540008704770477047704770B50446D8
:103130000368DE681D6915F0020F10D016F0020F4B
:103140000DD06FF002021A610123037703689B69B7
:1031500013F0030F5ED0FFF70DF80023237715F06F
:10316000040F12D016F0040F0FD023686FF0040282
:103170001A610223237723689B6913F4407F4FD0A1
:103180002046FEF7F7FF0023237715F0080F12D033
:1031900016F0080F0FD023686FF008021A6104239D
:1031A00023772368DB6913F0030F40D02046FEF736
:1031B000E1FF0023237715F0100F12D016F0100F47
:1031C0000FD023686FF010021A6108232377236859
:1031D000DB6913F4407F31D02046FEF7CBFF00239C
:1031E000237715F0010F02D016F0010F2DD115F045
:1031F000800F02D016F0800F2FD115F0400F02D0B3
:1032000016F0400F31D115F0200F02D016F0200F2C
:1032100033D170BDFFF787FF2046FFF785FF9CE79E
:103220002046FFF780FF2046FFF77EFFABE72046F2
:10323000FFF779FF2046FFF777FFBAE72046FFF751
:1032400072FF2046FFF770FFC9E723686FF00102A5
:103250001A612046FFF766FFC9E723686FF0800216
:103260001A61204600F0A7F9C7E723686FF0400213
:103270001A612046FFF759FFC5E723686FF0200267
:103280001A61204600F096F9C3E700000368344A4B
:10329000904212D0B0F1804F0FD0A2F57C42904204
:1032A0000BD002F58062904207D002F58062904216
:1032B00003D002F57842904203D123F070034A68AC
:1032C0001343274A90422AD0B0F1804F27D0A2F56D
:1032D0007C42904223D002F5806290421FD002F5DA
:1032E000806290421BD002F57842904217D002F5DE
:1032F0007052904213D002F5806290420FD002F5D6
:10330000806290420BD0A2F59832904207D002F52D
:103310008062904203D002F58062904203D123F490
:103320004073CA68134323F080034A691343036060
:103330008B68C3620B688362094B984203D003F524
:103340008063984201D10B690363012343610369E0
:1033500013F0010F03D0036923F0010303617047E9
:1033600000000140002853D0F8B50D46044690F8FF
:103370003D30002B47D0022384F83D30226893680B
:1033800023F4804323F007039360214651F8040B94
:10339000FFF77CFF21688B688A690E6A28681843EA
:1033A00022F4407222F00302AB68AF6943EA0723BC
:1033B000134323F47C4323F0FC03EA68EF6942EAF9
:1033C00007221A432B6A1B032F6943EA071313438F
:1033D00026F0AA066A686D6942EA051232438860DF
:1033E00021688B6123681A62012384F8463084F8CF
:1033F0003E3084F83F3084F8423084F8433084F81B
:103400003D300020F8BD80F83C30FEF7DFFEB2E72B
:103410000120704701F01F014FF0010C0CFA01FC74
:10342000036A23EA0C030362036A8A4013430362BC
:10343000704738B5044690F83E00C0B294F83F306B
:1034400094F84220D2B294F843C00D4609BB01283B
:103450005ED1012A5DD1022384F83E3084F84230E7
:10346000002D39D0042D48D0012200212068FFF71B
:10347000D1FF012204212068FFF7CCFF2268D36826
:1034800043F00203D3602268D36843F00403D3609F
:103490002CE0DBB25FFA8CFC042912D001283DD16C
:1034A000012B36D1012A3BD1BCF1010F3AD10223C5
:1034B00084F83E3084F83F3084F8423084F843305A
:1034C000CEE7012B26D1BCF1010F25D1022384F8D0
:1034D0003F3084F84330C3E7012200212068FFF722
:1034E00099FF2268D36843F00203D360226813680F
:1034F00043F00103136000200BE001220421206847
:10350000FFF788FF2268D36843F00403D360EDE738
:10351000012038BD0120FCE71846FAE70120F8E752
:103520001846F6E71046F4E790F83C20012A3DD013
:1035300010B40346012280F83C20022280F83D208E
:1035400002685068946820F0700C086840EA0C002B
:1035500050601A68164882421AD0B2F1804F17D0D4
:10356000A0F57C40824213D000F5806082420FD0EB
:1035700000F5806082420BD000F57840824207D08F
:1035800000F57050824203D0A0F59430824204D1FD
:1035900024F08004496821439160012283F83D2092
:1035A000002083F83C005DF8044B70470220704710
:1035B0000000014070477047026802F10C0353E8B5
:1035C000003F23F490730C3242E800310029F3D11C
:1035D000026802F1140353E8003F23F001031432A0
:1035E00042E800310029F3D1036B012B05D02023E1
:1035F00080F84230002303637047026802F10C0335
:1036000053E8003F23F010030C3242E80031002958
:10361000F3D1ECE790F84130DBB2212B01D002204E
:1036200070478368B3F5805F17D0036A5A1C026243
:103630001A7803685A60C38C9BB2013B9BB2C38467
:103640004BB90268D36823F08003D3600268D36863
:1036500043F04003D360002070470369002BE4D19E
:10366000036A1B880268C3F308035360036A0233CA
:103670000362E0E710B504460268136923F440537F
:10368000C1680B431361836802691A4343691A4393
:10369000C3691A430168CB6823F4164323F00C0373
:1036A0001343CB600268536923F4407381690B4371
:1036B00053610368314A934206D002F58062934217
:1036C00002D0FFF70FFD01E0FFF71CFDE369B3F542
:1036D000004F29D00021031849411B1841F1000176
:1036E000C90041EA5371DB00181863684FEA83028E
:1036F0004FEA937341F10001FDF710FA204AA2FB53
:1037000000314909642303FB11031B013233A2FB7F
:1037100003235B0903F0F00202EB011203F00F0335
:10372000216813448B6010BD0023021843EB030192
:10373000121841F10001C90041EA5271D20010187B
:1037400041F10001626892185B41FDF7E7F90C4A0C
:10375000A2FB00314909642303FB1103DB00323370
:10376000A2FB03235B095A0002F4F87202EB011278
:1037700003F00703216813448B60D4E70010014075
:103780001F85EB5160B310B5044690F8413013B378
:10379000242384F841302268D36823F40053D36093
:1037A0002046FFF767FF2268136923F490431361F3
:1037B0002268536923F02A0353612268D36843F4D3
:1037C0000053D36000206064202384F8413084F8E3
:1037D0004230606310BD80F84030FEF723FED7E72B
:1037E0000120704790F84130DBB2202B10D189B115
:1037F00092B101628284C28400234364212280F852
:1038000041200168CA6842F08002CA6018467047C9
:10381000022070470120704701207047704708B5AB
:103820000168CA6822F04002CA60202280F8412064
:10383000FFF7F4FF002008BD7047704708B5806BA4
:103840000023C385C384FFF7F8FF08BD704790F8D5
:103850004230DBB2222B69D18368B3F5805F4FD051
:10386000826AB3F5805F04D0002B56D10369002B28
:1038700053D103685B681370836A01338362C38D1D
:103880009BB2013B9BB2C385002B51D100B583B0E5
:103890000268D36823F02003D3600268D36823F45E
:1038A0008073D3600268536923F0010353612023BE
:1038B00080F8423000234363036B012B33D1002394
:1038C0000363026802F10C0353E8003F23F0100386
:1038D0000C3242E800310029F3D103681A6812F073
:1038E000100F06D0002201921A6801925B680193C2
:1038F000019B818DFFF7AAFF002003B05DF804FB58
:103900000269002AACD1826A03685B68C3F30803CA
:103910001380836A02338362B1E703685B6803F054
:103920007F031370A8E7FFF787FFE5E702207047E2
:103930000020704710B582B0044602681368D06852
:10394000516913F00F0F09D113F0200F0CD010F0B4
:10395000200F09D02046FFF77AFF16E011F0010191
:1039600015D110F4907F12D1216B012979D013F079
:10397000800F03D010F0800F40F0148113F0400F3F
:1039800003D010F0400F40F0118102B010BD13F0D1
:10399000010F06D010F4807F03D0626C42F0010268
:1039A000626413F0040F04D019B1626C42F0020299
:1039B000626413F0020F04D019B1626C42F0040289
:1039C000626413F0080F07D010F0200F00D119B176
:1039D000626C42F008026264626C002AD5D013F077
:1039E000200F02D010F0200F29D123685B6903F06B
:1039F0004003626C12F0080F00D163B32046FFF75A
:103A0000DBFD23685B6913F0400F20D0226802F1D0
:103A1000140353E8003F23F04003143242E800311E
:103A20000029F3D1E36B73B1624A1A65E06BFEF7CC
:103A30002FFF0028A9D0E06B036D9847A5E720462B
:103A4000FFF705FFD1E72046FFF7F7FE9DE7204689
:103A5000FFF7F3FE99E72046FFF7EFFE00236364CC
:103A600093E713F0100F82D010F0100F3FF47FAFE8
:103A7000002301931368019353680193019B5369D9
:103A800013F0400F52D0E26B13685B689BB2002BBF
:103A90003FF47BAFA18D99427FF677AFE385D36981
:103AA000B3F5807F37D0226802F10C0353E8003F62
:103AB00023F480730C3242E800310029F3D12268EC
:103AC00002F1140353E8003F23F00103143242E8EB
:103AD00000310029F3D1226802F1140353E8003FBA
:103AE00023F04003143242E800310029F3D12023AF
:103AF00084F8423000232363226802F10C0353E868
:103B0000003F23F010030C3242E800310029F3D1CA
:103B1000E06BFEF773FE02236363A18DE38D9BB21E
:103B2000C91A89B22046FFF791FE2EE7A18DE38DD9
:103B30009BB2C91A89B2E38D9BB2002B3FF425AF2B
:103B400000293FF422AF226802F10C0353E8003F42
:103B500023F490730C3242E800300028F3D122683D
:103B600002F1140353E8003F23F00103143242E84A
:103B700000300028F3D1202384F84230002323634F
:103B8000226802F10C0353E8003F23F010030C32CB
:103B900042E800300028F3D1022363632046FFF798
:103BA00055FEF2E62046FFF735FDEEE62046FFF72C
:103BB00036FEEAE63D38000800F1080343604FF0A6
:103BC000FF328260C36003610023036070470023FB
:103BD0000361704730B40D68B5F1FF3F11D000F1BB
:103BE00008031C465B681A68AA42FAD963684B60EE
:103BF00099608C606160086103680133036030BCC8
:103C000070470469F2E70369416882688A60416825
:103C100051605A68824206D0002202611A68013A55
:103C20001A601868704782685A60F5E710B5044654
:103C300001F008F9A36B23B9012401F025F920460E
:103C400010BD0024F9E70346026C6AB110B50846BE
:103C5000D9681144D9609C68A14201D31968D96020
:103C6000D96801F07FFB10BD704738B5054601F0FB
:103C7000E9F895F8454064B201E0013C64B2002CDB
:103C80000ADD6B6A43B105F1240000F0EBFD00286A
:103C9000F3D000F0AFFEF0E7FF2385F8453001F0E8
:103CA000F3F801F0CFF895F8444064B201E0013C2C
:103CB00064B2002C0ADD2B6943B105F1100000F05D
:103CC000D1FD0028F3D000F095FEF0E7FF2385F842
:103CD000443001F0D9F838BD38B590B10D460446EE
:103CE000C36B2BB1026C0021A2FB032393B999B1E2
:103CF0004FF0500383F31188BFF36F8FBFF34F8FE3
:103D0000FEE74FF0500383F31188BFF36F8FBFF3CB
:103D10004F8FFEE70121EAE701F094F82368E26B98
:103D2000216C01FB0230A0600020A0636360013AB7
:103D300002FB0133E360FF2384F8443084F845300C
:103D4000B5B923691BB901F09FF8012038BD04F112
:103D5000100000F087FD0028F5D04FF0E0234FF071
:103D60008052C3F8042DBFF34F8FBFF36F8FEAE784
:103D700004F11000FFF720FF04F12400FFF71CFFFF
:103D8000E1E738B51D46049C0B4649B92460E06361
:103D9000236401212046FFF79FFF84F84C5038BD73
:103DA0002260F4E7F0B583B060B10C4617460546D3
:103DB0000023A4FB001272B923B904FB05F010F133
:103DC000510F0AD94FF0500383F31188BFF36F8F5F
:103DD000BFF34F8FFEE70123EEE7503001F0B6F955
:103DE000064638B100903B4600F150022146284675
:103DF000FFF7C7FF304603B0F0BDF0B585B00192C4
:103E000090B10F460446C1B100F0FAFD064600BB72
:103E1000019B002B5ED04FF0500383F31188BFF35A
:103E20006F8FBFF34F8FFEE74FF0500383F311887E
:103E3000BFF36F8FBFF34F8FFEE7036C002BE3D010
:103E40004FF0500383F31188BFF36F8FBFF34F8F91
:103E5000FEE700263EE039462046FFF7F4FE013D2E
:103E6000A563236923B901F00FF8012005B0F0BD67
:103E700004F1100000F0F6FC0028F4D04FF0E0232D
:103E80004FF08052C3F8042DBFF34F8FBFF36F8FF5
:103E9000E9E700F0F9FF0020E8E702A800F05AFD8A
:103EA000012621E0002384F8443029E0002384F82F
:103EB00045302BE02046FFF7D8FE00F079FB09E003
:103EC0002046FFF7D2FE00F073FB2046FFF7AEFE60
:103ED00000283FD100F0B6FFA56B002DBBD1019BA0
:103EE000002BD6D0002ED8D000F0CEFF00F096FAEE
:103EF00000F0A8FF94F844305BB2B3F1FF3FD1D09B
:103F000094F845305BB2B3F1FF3FCFD000F0BCFF77
:103F100001A902A800F02AFD0028D1D12046FFF710
:103F200085FE0028C6D0019904F1240000F058FC59
:103F30002046FFF79AFE00F03BFB0028CAD14FF065
:103F4000E0234FF08052C3F8042DBFF34F8FBFF32F
:103F50006F8FBFE7002089E728B110B4044631B362
:103F6000002003460DE04FF0500383F31188BFF3A8
:103F70006F8FBFF34F8FFEE70E4800EBC30014E0D6
:103F80000133072B10D80B4A02EBC3025268A2423E
:103F9000F2D00028F4D1074A52F83320002AEFD19A
:103FA000044800EBC300EBE708B1016044605DF832
:103FB000044B7047F001002070B504460D461646CC
:103FC00000F040FF94F844305BB2B3F1FF3F0DD0F6
:103FD00094F845305BB2B3F1FF3F0BD000F054FFD3
:103FE000A36B5BB12046FFF740FE70BD002384F851
:103FF0004430EDE7002384F84530EFE732462946A8
:1040000004F1240000F004FCECE70000074B1B68FF
:104010001B6823B9064B4FF0FF321A607047034B01
:104020001B68DB681A68024B1A607047A002002008
:104030003802002010B50446006B01F001F920465B
:1040400001F0FEF810BD2DE9F84380460D461646F6
:104050009946089F0A9C9200A521206B01F055F912
:10406000226B06F18043013B02EB830222F007063C
:1040700065B10022092A06D8AB5CA11881F834305A
:104080000BB10132F6E7002384F83D30042F08D944
:104090004FF0500383F31188BFF36F8FBFF34F8F3F
:1040A000FEE7E762A764201DFFF791FD04F1180009
:1040B000FFF78DFD2461C7F10507A76164624A46D9
:1040C0004146304600F094FE2060099B03B11C601D
:1040D000BDE8F88338B5002407E004EB84029300C0
:1040E0000E481844FFF768FD0134042CF5D90C4D37
:1040F0002846FFF761FD0B4C2046FFF75DFD0A489F
:10410000FFF75AFD0948FFF757FD0948FFF754FD2F
:10411000084B1D60084B1C6038BD00BFCC0200205E
:10412000B8020020A40200208802002074020020AF
:104130005C020020A00200209C02002010B5044672
:1041400000F080FE294A136801331360284B1B6876
:104150005BB1284B1B686BB9254B1B68DA6AE36AB5
:104160009A4207D8224B1C6004E0214B1C60136864
:10417000012B37D0204A1368013313602364E36AAC
:1041800001229A401D49086802430A601C4A03EB59
:10419000830302EB83035B68A3609868E060211DE2
:1041A00041609960E36A03EB8301880002EB8101BF
:1041B000616111580131115000F066FE0D4B1B6812
:1041C0007BB10B4B1B68DA6AE36A9A4209D24FF063
:1041D000E0234FF08052C3F8042DBFF34F8FBFF39D
:1041E0006F8F10BDFFF776FFC4E700BF58020020B5
:1041F000300300204C0200203C020020500200202E
:10420000CC0200200F4B1B68D3B110B500F01AFE92
:104210000D4BDB68DC68201DFFF7F5FC0B4A1368CB
:10422000013B1360074A1368013B136000F02CFE4A
:104230002046FFF7FFFE034B1B68002BE6D110BDA5
:10424000704700BF70020020740200205802002056
:1042500008B5FFF7D7FF074B1B68012BF9D94FF0C3
:10426000E0234FF08052C3F8042DBFF34F8FBFF30C
:104270006F8FEEE7CC02002070B504460D46234B4D
:104280001E68234B18680430FFF7BDFC48B9204B6B
:104290001B68DB6A01229A401E490B6823EA02036D
:1042A0000B60B4F1FF3F0DD03444194B1B685C60C8
:1042B000A6421DD9184B1868154B19680431FFF731
:1042C00089FC70BD002DEFD0144A5168104B18685E
:1042D000816018688C68C460186804306060186871
:1042E000043088601B685A61136801331360E8E783
:1042F0000B4B1868064B19680431FFF76BFC094B30
:104300001B68A342DDD9074B1C60DAE7540200208A
:1043100030030020500200209C0200205C0200209C
:10432000A0020020380200202DE9F04385B00746A6
:10433000884614461E46900000F008FF18B38146D8
:10434000582000F003FF0546B8B15822002100F0C4
:10435000DCFFC5F830900023039302950D9B019379
:104360000C9B00933346224641463846FFF76BFECE
:104370002846FFF7E3FE012007E0484600F060FF13
:104380004FF0FF3001E04FF0FF3005B0BDE8F083A3
:1043900000B583B01A4B0193002300938222194980
:1043A0001948FFF7C1FF012807D0B0F1FF3F1DD02A
:1043B000164B1B6803B05DF804FB00F0B3FC01284A
:1043C000F3D14FF0500383F31188BFF36F8FBFF326
:1043D0004F8F0F4B4FF0FF321A600E4B01221A60C5
:1043E0000D4B00221A6000F0C7FDE1E74FF05003CB
:1043F00083F31188BFF36F8FBFF34F8FFEE700BFCA
:104400003402002038540008514200080C000020FB
:10441000380200204C02002054020020024A136897
:1044200001331360704700BF30020020014B186851
:10443000704700BF54020020F8B5524B1B68002B98
:1044400040F09980504B1C6801341C60C4B94F4B3C
:104450001B681B6843B14FF0500383F31188BFF30F
:104460006F8FBFF34F8FFEE7484A1168484B1868BB
:1044700010601960474A136801331360FFF7C6FDE7
:10448000454B1B68A34211D90020444B1B68DB6AD3
:1044900003EB83039A00424B9B58012B00D9012068
:1044A000404B1B68002B6BD0012069E0002037E0F7
:1044B000394B4FF0FF321A60E7E7374B1A60E4E7F9
:1044C000D968516042E00021996211680139116098
:1044D000DA6A01219140344E3768394331603049FE
:1044E00002EB82024FEA820C8C44DCF804209A60D2
:1044F0009668DE6075609560DA6A02EB820C4FEABE
:104500008C056E185E614D5901354FEA8C0C41F8EF
:104510000C50DA6A214B1B68DB6A9A4200D90120F1
:104520001A4B1B681B68002BC2D0184B1B68DB683A
:10453000DB685A689442C0D35A699D68D968A960FB
:104540009D684D6051681D1DA942B9D00021596177
:104550001168013911609A6A002AB9D0DE69196AB6
:10456000B160DE694E60566803F118018E42AAD12F
:10457000196A5160A7E70D4A1368013313600020E0
:10458000F8BD00BF3002002054020020A00200202D
:104590009C0200204002002038020020300300204E
:1045A000CC020020440200205002002048020020DB
:1045B00038B54A4B1B6843B94FF0500383F3118859
:1045C000BFF36F8FBFF34F8FFEE700F03BFC434B11
:1045D0001A68013A1A601B68002B7AD1404B1B689D
:1045E0003BB9002476E0196A516015E0D968516042
:1045F00021E000233B4A1268002A47D0394BDB6890
:10460000DB689A6AD869196A8160D869486050681D
:1046100003F118018842E6D000219962116801393E
:1046200011605A699868D9688160986848605168D3
:10463000181D8142DAD000215961116801391160D9
:10464000DA6A01219140284C2568294321602749D5
:1046500002EB820201EB820252689A609468DC608D
:1046600060609060DA6A02EB8200840001EB8000F7
:104670005861085901300851D96A1D4A1268D26A36
:104680009142B7D31B4A01211160B3E70BB1FFF789
:10469000BDFC194B1C6884B9164B1C68D4B14FF093
:1046A000E0234FF08052C3F8042DBFF34F8FBFF3C8
:1046B0006F8F01240EE0013C07D0FFF7BDFE0028FC
:1046C000F9D00C4B01221A60F5E70B4B00221A605F
:1046D000E2E7002400F0D8FB204638BD300200207D
:1046E000580200208802002050020020CC02002046
:1046F00030030020440200204802002010B5A8B179
:104700000446104B1B6843B14FF0500383F31188EC
:10471000BFF36F8FBFF34F8FFEE7FFF77FFE0021E0
:104720002046FFF7A9FDFFF743FF48B94FF0E0230C
:104730004FF08052C3F8042DBFF34F8FBFF36F8F3C
:1047400010BD00BF30020020204B1B681BB1204B66
:1047500001221A6070471E4B00221A601D4B1B6815
:10476000B3FA83F3DBB2C3F11F0303EB83018A00C7
:1047700019498A5842B94FF0500383F31188BFF3A7
:104780006F8FBFF34F8FFEE7134803EB83018A005F
:10479000024451684968516003EB830C4FEA8C0274
:1047A00008320244914209D003EB83039A000A4B7A
:1047B00013445B68DA68094B1A60704748686246C0
:1047C0009100054A0A445060EEE700BF3002002025
:1047D0004402002050020020CC02002030030020C0
:1047E00058B110B50C46094A11681831FFF7F2F9B3
:1047F00001212046FFF740FD10BD4FF0500383F329
:104800001188BFF36F8FBFF34F8FFEE73003002097
:1048100038B5D8B18C46114605464268104B186829
:10482000C26118689468046218681830606018687B
:10483000183090601B689D622B6801332B6009B1B2
:104840004FF0FF3C6046FFF717FD38BD4FF05003B7
:1048500083F31188BFF36F8FBFF34F8FFEE700BF65
:1048600030030020C368DB68002B4AD030B49A6A5A
:10487000D869196A8160D8694860516803F11800E5
:10488000814247D0002199621168013911602B4A99
:104890001268002A44D15A699868D968816098687A
:1048A00048605168181D814237D000215961116854
:1048B00001391160DA6A01219140214C25682943B0
:1048C0002160204902EB820201EB820252689A6069
:1048D0009468DC6060609060DA6A02EB82008400B9
:1048E00001EB80005861085901300851DA6A164B13
:1048F0001B68DB6A9A421FD90120144B186030BC38
:1049000070474FF0500383F31188BFF36F8FBFF3ED
:104910004F8FFEE7196A5160B4E7D9685160C4E768
:104920000B4A5168D9618C681C62606088609A6229
:10493000116801311160D9E70020E0E73002002062
:1049400050020020CC02002030030020440200204E
:1049500088020020034B1B680360034B1B68436005
:10496000704700BF4002002054020020F8B5B8B1E3
:104970000C460546E9B100F065FA1C4B19686B68F6
:10498000C81A2268B2F1FF3F2AD0194E36682F6844
:10499000B74217D08B4215D800232360012420E0B2
:1049A0004FF0500383F31188BFF36F8FBFF34F8F26
:1049B000FEE74FF0500383F31188BFF36F8FBFF30F
:1049C0004F8FFEE7824203D800232360012408E0D2
:1049D0005B1A134423602846FFF7BCFF002400E065
:1049E000002400F051FA2046F8BD00BF5402002018
:1049F00040020020014B01221A607047440200204F
:104A0000054B1B6833B1054B1B680BB10020704789
:104A100002207047012070474C0200203002002025
:104A2000064B1A6813682BB90123036023B9D368B6
:104A3000186870470023F8E70020704744030020FF
:104A400008B54160006191420CD8D21A83699A423C
:104A500001D3012008BD011D094B1868FFF7BAF802
:104A60000020F7E79A4201D2994206D2011D054B78
:104A70001868FFF7AFF80020ECE70120EAE700BF75
:104A8000400300204403002070B504460D4616463E
:104A900004E0A3691D44236A20469847A1692B4678
:104AA000324629442046FFF7CBFF0028F1D170BDE4
:104AB00070B505460E460D4B1B68DB68DC68201D93
:104AC000FFF7A1F894F8283013F0040F07D123F072
:104AD000010384F82830236A2046984770BD324687
:104AE00029462046FFF7D0FFF5E700BF440300202A
:104AF00008B505E0DB684FF0FF311868FFF7D8FF15
:104B0000054B1B681A68002AF4D1044A1068024950
:104B10000860136008BD00BF44030020400300206C
:104B200038B50546FFF782FC0446074B1B688342F5
:104B300005D800232B60044B1C60204638BDFFF7CE
:104B4000D7FF01232B60F6E73403002070B582B055
:104B500006460C46FFF762FC01A8FFF7E1FF019B48
:104B600033BB0546E4B9B04213D22246711B124B47
:104B70001868FFF721FAFFF71BFDD8B94FF0E023C3
:104B80004FF08052C3F8042DBFF34F8FBFF36F8FE8
:104B900010E0FFF70DFD29463046FFF789FF09E0D9
:104BA000064A126812680AB90124DEE71C46DCE7EF
:104BB000FFF7FEFC02B070BD3C0300204003002064
:104BC00030B585B0002201A9384B1868FFF715F9F8
:104BD000002869D0019B002BF4DB039C636913B1AF
:104BE000201DFFF710F86846FFF79AFF0546019B66
:104BF000013B082BE6D8DFE803F00505293049051D
:104C00000529300094F8283043F0010384F8283057
:104C1000029BA169024619442046FFF711FF0028B4
:104C2000D0D094F8283013F0040F07D123F00103FB
:104C300084F82830236A20469847C3E7A3692A46A8
:104C4000029919442046FFF71FFFF3E794F8283034
:104C500023F0010384F82830B4E794F8283043F0B7
:104C6000010384F828300299A16131B1034602465C
:104C700001442046FFF7E4FEA4E74FF0500383F31E
:104C80001188BFF36F8FBFF34F8FFEE794F8283082
:104C900013F0020F04D023F0010384F8283091E7C9
:104CA000204600F0CDFA8DE705B030BD3C03002072
:104CB00000B583B001A8FFF7B3FE0199FFF746FFE7
:104CC000FFF77EFFF6E7000038B500F0BBF80F4BAA
:104CD0001B6813B100F0D8F838BD0D4D2846FEF71B
:104CE0006BFF0C4C2046FEF767FF0B4B1D600B4B18
:104CF0001C6000220C210A20FFF754F8034B1860B7
:104D00000028E7D00649FFF727F9E3E73C03002036
:104D10005C030020480300204403002040030020DF
:104D20004054000800B583B0FFF7CEFF0D4B1B6861
:104D30005BB10D4B01930223009300234FF4827269
:104D40000A490B48FFF7F0FA40B94FF0500383F3DC
:104D50001188BFF36F8FBFF34F8FFEE703B05DF88D
:104D600004FB00BF3C030020380300204854000827
:104D7000B14C000882B0002301930D4B1B68B3F1C6
:104D8000FF3F08D04FF0500383F31188BFF36F8FBC
:104D9000BFF34F8FFEE74FF0500383F31188BFF34B
:104DA0006F8FBFF34F8F019B002BFCD002B0704779
:104DB0001000002008480068006880F308884FF061
:104DC000000080F3148862B661B6BFF34F8FBFF363
:104DD0006F8F00DF00BF000008ED00E0DFF80C007F
:104DE000016841F4700101607047000088ED00E047
:104DF0004FF0807340F8043C21F0010140F8081C9A
:104E0000054B40F80C3C40F8202C6FF0020340F8B2
:104E1000243C4438704700BF754D00080000000076
:104E2000074B19680868B0E8F04F80F30988BFF3B2
:104E30006F8F4FF0000080F311887047AFF3008050
:104E4000300300204FF0500383F31188BFF36F8FBE
:104E5000BFF34F8F0B4A136801331360012B00D04F
:104E600070474FF0E023D3F8043D13F0FF0FF7D065
:104E70004FF0500383F31188BFF36F8FBFF34F8F51
:104E8000FEE700BF10000020094B1B6843B94FF03C
:104E9000500383F31188BFF36F8FBFF34F8FFEE78B
:104EA000013B034A13600BB983F31188704700BFBD
:104EB00010000020000000000000000000000000C2
:104EC000EFF30980BFF36F8F154B1A681EF0100FB8
:104ED00008BF20ED108A20E9F04F10602DE909008D
:104EE0004FF0500080F31188BFF34F8FBFF36F8FE7
:104EF000FFF72AFC4FF0000080F3118809BC196805
:104F00000868B0E8F04F1EF0100F08BFB0EC108A30
:104F100080F30988BFF36F8F704700BFAFF3008045
:104F20003003002008B54FF0500383F31188BFF31E
:104F30006F8FBFF34F8FFFF77FFA28B14FF0E02359
:104F40004FF08052C3F8042D002383F3118808BD6D
:104F50004FF0E022002313619361054B1B68054964
:104F6000A1FB03139B09013B5361072313617047A6
:104F700000000020D34D62104FF0E023D3F8002D45
:104F80003D4B9A421CD04FF0E023D3F8002D3B4B11
:104F90009A421ED030B583B0394B1A78D2B2019202
:104FA000FF221A701B78DBB28DF803309DF80330B6
:104FB00003F05003334A1370334B07221A601BE08F
:104FC0004FF0500383F31188BFF36F8FBFF34F8F00
:104FD000FEE74FF0500383F31188BFF36F8FBFF3E9
:104FE0004F8FFEE7284A1368013B13609DF803309A
:104FF0005B00DBB28DF803309DF8033013F0800FB7
:10500000F0D1214B1B68032B08D04FF0500383F3E2
:105010001188BFF36F8FBFF34F8FFEE71B021A4A51
:10502000136003F4E0631360019BDBB2144A137056
:105030004FF0E024D4F8203D43F47003C4F8203D41
:10504000D4F8203D43F07043C4F8203DFFF780FFC3
:1050500000250E4B1D60FFF7C1FED4F8343F43F02E
:105060004043C4F8343FFFF7A5FEFFF76DFBFFF7A1
:1050700081FE284603B030BD71C20F4170C20F419E
:1050800000E400E074030020700300201000002002
:10509000104A12F0070F1AD0D11D21F00701C1F5F7
:1050A000963313440A460C480260002141601344C1
:1050B000083B23F007030948036059601960991AF7
:1050C00051601360064B1960064B196070474FF42E
:1050D0009633E8E7940300208C0300208803002027
:1050E0008003002084030020164B1A461B6883426D
:1050F000FBD3516802EB010C844509D0416800EBF9
:10510000010C634509D00360904219D010607047CC
:105110004068014451601046F0E710B40A4C24681E
:10512000A3420BD05B681944416013681B6803609D
:10513000904200D010605DF8044B70470460F7E7C0
:10514000704700BF8C0300208803002070B505461F
:10515000FFF764F9354B1B685BB175B105F00703C8
:10516000C3F11002113BAB4206D3AD1805D50026A2
:1051700047E0FFF78DFFF0E70025002D40D02C4BD6
:105180001B68AB424BD32B4A146801E022461C46F5
:105190006368AB4202D22368002BF7D1234B1B6814
:1051A000A3423ED0166808362368136063685B1B11
:1051B000102B10D9601910F0070F08D04FF05003D2
:1051C00083F31188BFF36F8FBFF34F8FFEE7436008
:1051D0006560FFF789FF626815490B689B1A0B60D1
:1051E000154909688B4201D213490B6042F0004215
:1051F000626000232360114A13680133136000E0EA
:105200000026FFF7D5F916F0070F0CD04FF050032A
:1052100083F31188BFF36F8FBFF34F8FFEE7002634
:10522000EFE70026EDE7304670BD00BF88030020A1
:10523000840300208C030020800300207C030020D6
:10524000A8B338B50446A0F1080550F8043C002B7B
:1052500008DB4FF0500383F31188BFF36F8FBFF368
:105260004F8FFEE750F8082C42B14FF0500383F304
:105270001188BFF36F8FBFF34F8FFEE7002B00DB6A
:1052800038BD23F0004340F8043CFFF7C7F854F85A
:10529000041C074A13680B4413602846FFF724FFD9
:1052A000044A136801331360FFF782F9E8E7704797
:1052B0008403002078030020DFF834D0FCF7FCFEE4
:1052C0000C480D490D4A002302E0D458C450043361
:1052D000C4188C42F9D30A4A0A4C002301E0136037
:1052E0000432A242FBD300F019F8FBF7C7FD704768
:1052F000000002200000002014000020605400087C
:1053000014000020942F0120FEE70244034693423C
:1053100000D1704703F8011BF9E7000070B50D4D8F
:105320000D4C641BA4100026A64209D10B4D0C4C59
:1053300000F026F8641BA4100026A64205D170BD1B
:1053400055F8043B98470136EEE755F8043B98477B
:105350000136F2E758540008585400085854000821
:105360005C5400080A44914200F1FF3300D17047B9
:1053700010B511F8014B03F8014F9142F9D110BD5E
:10538000F8B500BFF8BC08BC9E467047F8B500BF32
:08539000F8BC08BC9E46704702
:105398005325302E36662025302E36662025302EB1
:1053A80036662025302E36660A000000666E692BA8
:1053B80000000000666E69006E616E00666E692D01
:1053C8000000000000000000000000000000F03FA6
:1053D80000000000000024400000000000005940C8
:1053E8000000000000408F40000000000088C3401B
:1053F80000000000006AF8400000000080842E4190
:1054080000000000D01263410000000084D79741DB
:105418000000000065CDCD4100000000010203043A
:10542800000000000000000001020304060708094C
:1054380049444C4500000000546D725100000000C2
:08544800546D722053766300DD
:0854500080ADFF7F01000000A8
:04545800B501000892
:04545C0091010008B2
:105460000024F4000100000010000000040000000F
:04547000AAAAAAAA90
:04000005080052B9E4
:00000001FF
